{"abi":[{"type":"constructor","inputs":[{"name":"yieldBox_","type":"address","internalType":"contract IYieldBox"},{"name":"token","type":"address","internalType":"address"}],"stateMutability":"nonpayable"},{"type":"function","name":"cheapWithdrawable","inputs":[],"outputs":[{"name":"amount","type":"uint256","internalType":"uint256"}],"stateMutability":"view"},{"type":"function","name":"contractAddress","inputs":[],"outputs":[{"name":"","type":"address","internalType":"address"}],"stateMutability":"view"},{"type":"function","name":"currentBalance","inputs":[],"outputs":[{"name":"amount","type":"uint256","internalType":"uint256"}],"stateMutability":"view"},{"type":"function","name":"deposited","inputs":[{"name":"amount","type":"uint256","internalType":"uint256"}],"outputs":[],"stateMutability":"nonpayable"},{"type":"function","name":"description","inputs":[],"outputs":[{"name":"","type":"string","internalType":"string"}],"stateMutability":"view"},{"type":"function","name":"name","inputs":[],"outputs":[{"name":"","type":"string","internalType":"string"}],"stateMutability":"view"},{"type":"function","name":"tokenId","inputs":[],"outputs":[{"name":"","type":"uint256","internalType":"uint256"}],"stateMutability":"view"},{"type":"function","name":"tokenType","inputs":[],"outputs":[{"name":"","type":"uint8","internalType":"enum TokenType"}],"stateMutability":"view"},{"type":"function","name":"withdraw","inputs":[{"name":"to","type":"address","internalType":"address"},{"name":"amount","type":"uint256","internalType":"uint256"}],"outputs":[],"stateMutability":"nonpayable"},{"type":"function","name":"withdrawable","inputs":[],"outputs":[{"name":"amount","type":"uint256","internalType":"uint256"}],"stateMutability":"view"},{"type":"function","name":"yieldBox","inputs":[],"outputs":[{"name":"","type":"address","internalType":"contract IYieldBox"}],"stateMutability":"view"}],"bytecode":{"object":"0x60c060405234801561001057600080fd5b5060405161079a38038061079a83398101604081905261002f9161005e565b6001600160a01b0391821660a05216608052610098565b6001600160a01b038116811461005b57600080fd5b50565b6000806040838503121561007157600080fd5b825161007c81610046565b602084015190925061008d81610046565b809150509250929050565b60805160a0516106c16100d9600039600081816101a701526102c60152600081816101f90152818161024c01528181610351015261038c01526106c16000f3fe608060405234801561001057600080fd5b50600436106100c95760003560e01c8063afa91cc611610081578063e3575f051161005b578063e3575f051461014b578063f3fef3a3146101e1578063f6b4dfb4146101f457600080fd5b8063afa91cc61461018f578063ce845d1d1461014b578063de406577146101a257600080fd5b806330fa738c116100b257806330fa738c14610136578063501883011461014b5780637284e4161461015357600080fd5b806306fdde03146100ce57806317d70f7c14610120575b600080fd5b61010a6040518060400160405280601181526020017f455243323053747261746567794d6f636b00000000000000000000000000000081525081565b6040516101179190610542565b60405180910390f35b610128600081565b604051908152602001610117565b61013e600181565b6040516101179190610575565b61012861021b565b61010a6040518060400160405280601981526020017f4d6f636b20537472617465677920666f722074657374696e670000000000000081525081565b6101a061019d3660046105b6565b50565b005b6101c97f000000000000000000000000000000000000000000000000000000000000000081565b6040516001600160a01b039091168152602001610117565b6101a06101ef3660046105e4565b6102c4565b6101c97f000000000000000000000000000000000000000000000000000000000000000081565b6040517f70a082310000000000000000000000000000000000000000000000000000000081523060048201526000907f00000000000000000000000000000000000000000000000000000000000000006001600160a01b0316906370a0823190602401602060405180830381865afa15801561029b573d6000803e3d6000fd5b505050506040513d601f19601f820116820180604052508101906102bf9190610610565b905090565b7f00000000000000000000000000000000000000000000000000000000000000006001600160a01b031663eb6d3a116040518163ffffffff1660e01b8152600401602060405180830381865afa158015610322573d6000803e3d6000fd5b505050506040513d601f19601f820116820180604052508101906103469190610629565b6001600160a01b03167f00000000000000000000000000000000000000000000000000000000000000006001600160a01b031603156103b3576103b36001600160a01b037f00000000000000000000000000000000000000000000000000000000000000001683836103b7565b5050565b604080516001600160a01b038481166024830152604480830185905283518084039091018152606490920183526020820180517bffffffffffffffffffffffffffffffffffffffffffffffffffffffff167fa9059cbb000000000000000000000000000000000000000000000000000000001790529151600092839290871691610441919061064d565b6000604051808303816000865af19150503d806000811461047e576040519150601f19603f3d011682016040523d82523d6000602084013e610483565b606091505b50915091508180156104ad5750805115806104ad5750808060200190518101906104ad9190610669565b610517576040517f08c379a000000000000000000000000000000000000000000000000000000000815260206004820152601c60248201527f426f72696e6745524332303a205472616e73666572206661696c656400000000604482015260640160405180910390fd5b5050505050565b60005b83811015610539578181015183820152602001610521565b50506000910152565b602081526000825180602084015261056181604085016020870161051e565b601f01601f19169190910160400192915050565b60208101600583106105b0577f4e487b7100000000000000000000000000000000000000000000000000000000600052602160045260246000fd5b91905290565b6000602082840312156105c857600080fd5b5035919050565b6001600160a01b038116811461019d57600080fd5b600080604083850312156105f757600080fd5b8235610602816105cf565b946020939093013593505050565b60006020828403121561062257600080fd5b5051919050565b60006020828403121561063b57600080fd5b8151610646816105cf565b9392505050565b6000825161065f81846020870161051e565b9190910192915050565b60006020828403121561067b57600080fd5b8151801515811461064657600080fdfea26469706673582212201acdc6ac277bb803c19dbd604b0f65e0037102c6d29e7f1e290a22bc9ac078dd64736f6c63430008160033","linkReferences":{}},"methodIdentifiers":{"cheapWithdrawable()":"e3575f05","contractAddress()":"f6b4dfb4","currentBalance()":"ce845d1d","deposited(uint256)":"afa91cc6","description()":"7284e416","name()":"06fdde03","tokenId()":"17d70f7c","tokenType()":"30fa738c","withdraw(address,uint256)":"f3fef3a3","withdrawable()":"50188301","yieldBox()":"de406577"},"id":19}