{"abi":[{"type":"function","name":"decimals","inputs":[{"name":"asset","type":"tuple","internalType":"struct Asset","components":[{"name":"tokenType","type":"uint8","internalType":"enum TokenType"},{"name":"contractAddress","type":"address","internalType":"address"},{"name":"strategy","type":"address","internalType":"contract IStrategy"},{"name":"tokenId","type":"uint256","internalType":"uint256"}]},{"name":"nativeDecimals","type":"uint8","internalType":"uint8"}],"outputs":[{"name":"","type":"uint8","internalType":"uint8"}],"stateMutability":"view"},{"type":"function","name":"name","inputs":[{"name":"asset","type":"tuple","internalType":"struct Asset","components":[{"name":"tokenType","type":"uint8","internalType":"enum TokenType"},{"name":"contractAddress","type":"address","internalType":"address"},{"name":"strategy","type":"address","internalType":"contract IStrategy"},{"name":"tokenId","type":"uint256","internalType":"uint256"}]},{"name":"nativeName","type":"string","internalType":"string"}],"outputs":[{"name":"","type":"string","internalType":"string"}],"stateMutability":"view"},{"type":"function","name":"symbol","inputs":[{"name":"asset","type":"tuple","internalType":"struct Asset","components":[{"name":"tokenType","type":"uint8","internalType":"enum TokenType"},{"name":"contractAddress","type":"address","internalType":"address"},{"name":"strategy","type":"address","internalType":"contract IStrategy"},{"name":"tokenId","type":"uint256","internalType":"uint256"}]},{"name":"nativeSymbol","type":"string","internalType":"string"}],"outputs":[{"name":"","type":"string","internalType":"string"}],"stateMutability":"view"},{"type":"function","name":"uri","inputs":[{"name":"asset","type":"tuple","internalType":"struct Asset","components":[{"name":"tokenType","type":"uint8","internalType":"enum TokenType"},{"name":"contractAddress","type":"address","internalType":"address"},{"name":"strategy","type":"address","internalType":"contract IStrategy"},{"name":"tokenId","type":"uint256","internalType":"uint256"}]},{"name":"nativeToken","type":"tuple","internalType":"struct NativeToken","components":[{"name":"name","type":"string","internalType":"string"},{"name":"symbol","type":"string","internalType":"string"},{"name":"decimals","type":"uint8","internalType":"uint8"},{"name":"uri","type":"string","internalType":"string"}]},{"name":"totalSupply","type":"uint256","internalType":"uint256"},{"name":"owner","type":"address","internalType":"address"}],"outputs":[{"name":"","type":"string","internalType":"string"}],"stateMutability":"view"}],"bytecode":{"object":"0x608060405234801561001057600080fd5b50611c8f806100206000396000f3fe608060405234801561001057600080fd5b506004361061004c5760003560e01c80635c6d8435146100515780636d7cd0371461007a57806384b1017d1461009f578063aa1163b9146100b2575b600080fd5b61006461005f3660046113d8565b6100c5565b6040516100719190611467565b60405180910390f35b61008d6100883660046114a9565b610614565b60405160ff9091168152602001610071565b6100646100ad3660046114e1565b61069f565b6100646100c03660046114e1565b610937565b60606100f26040518060800160405280606081526020016060815260200160608152602001600081525090565b6003610101602088018861157b565b600481111561011257610112611565565b036101bb5760408051808201825260078152664552433131353560c81b60208083019190915290835261015f91601491610150918a01908a0161159c565b6001600160a01b031690610ad0565b61016c8760600135610ccf565b60405160200161017d9291906115d5565b60408051601f198184030181529181526020838101929092528051808201825260078152664552433131353560c81b92810192909252820152610362565b60016101ca602088018861157b565b60048111156101db576101db611565565b036102835760006101f2604088016020890161159c565b6040805160c081019091526005608082019081527f455243323000000000000000000000000000000000000000000000000000000060a08301528152909150602081016102476001600160a01b038416610d6f565b815260200161025e836001600160a01b0316610e4b565b8152602001610275836001600160a01b0316610eab565b60ff16815250915050610362565b60408051808201909152600681527f4e61746976650000000000000000000000000000000000000000000000000000602082015281526102c38580611656565b8080601f01602080910402602001604051908101604052809392919081815260200183838082843760009201919091525050505060208083019190915261030c90860186611656565b8080601f01602080910402602001604051908101604052809392919081815260200183838082843760009201919091525050505060408083019190915261035990606087019087016116a4565b60ff1660608201525b600080610372602089018961157b565b600481111561038357610383611565565b036104375761039185610ccf565b6001600160a01b038516156103db576040518060400160405280600581526020017f66616c7365000000000000000000000000000000000000000000000000000000815250610412565b6040518060400160405280600481526020017f74727565000000000000000000000000000000000000000000000000000000008152505b6040516020016104239291906116c1565b60405160208183030381529060405261046c565b61044c601461015060408a0160208b0161159c565b60405160200161045c9190611742565b6040516020818303038152906040525b602083015160408401519192506105e991600361048c60208c018c61157b565b600481111561049d5761049d611565565b146104dd576040518060400160405280600c81526020017f2c22646563696d616c73223a00000000000000000000000000000000000000008152506104ee565b604051806020016040528060008152505b60036104fd60208d018d61157b565b600481111561050e5761050e611565565b14610525576105208660600151610ccf565b610536565b604051806020016040528060008152505b61054e60148d6040016020810190610150919061159c565b87518760038f6000016020810190610566919061157b565b600481111561057757610577611565565b1461059157604051806020016040528060008152506105be565b61059e8f60600135610ccf565b6040516020016105ae9190611792565b6040516020818303038152906040525b6040516020016105d59897969594939291906117d7565b604051602081830303815290604052610f7c565b6040516020016105f9919061195b565b60405160208183030381529060405292505050949350505050565b60006003610625602085018561157b565b600481111561063657610636611565565b0361064357506000610699565b6001610652602085018561157b565b600481111561066357610663611565565b0361069657600061067a604085016020860161159c565b905061068e816001600160a01b0316610eab565b915050610699565b50805b92915050565b606060006106b28583016040870161159c565b6001600160a01b0316036106ff5782828080601f01602080910402602001604051908101604052809392919081815260200183838082843760009201919091525092935061093092505050565b600161070e602086018661157b565b600481111561071f5761071f611565565b036107e7576000610736604086016020870161159c565b905061074a816001600160a01b0316610e4b565b61075a606087016040880161159c565b6001600160a01b03166306fdde036040518163ffffffff1660e01b8152600401600060405180830381865afa158015610797573d6000803e3d6000fd5b505050506040513d6000823e601f3d908101601f191682016040526107bf91908101906119b6565b6040516020016107d0929190611a63565b604051602081830303815290604052915050610930565b60036107f6602086018661157b565b600481111561080757610807611565565b036108a75761081c606085016040860161159c565b6001600160a01b03166306fdde036040518163ffffffff1660e01b8152600401600060405180830381865afa158015610859573d6000803e3d6000fd5b505050506040513d6000823e601f3d908101601f1916820160405261088191908101906119b6565b6040516020016108919190611aae565b6040516020818303038152906040529050610930565b82826108b9606087016040880161159c565b6001600160a01b03166306fdde036040518163ffffffff1660e01b8152600401600060405180830381865afa1580156108f6573d6000803e3d6000fd5b505050506040513d6000823e601f3d908101601f1916820160405261091e91908101906119b6565b60405160200161089193929190611af3565b9392505050565b6060600061094a8583016040870161159c565b6001600160a01b0316036109975782828080601f01602080910402602001604051908101604052809392919081815260200183838082843760009201919091525092935061093092505050565b60016109a6602086018661157b565b60048111156109b7576109b7611565565b036109e25760006109ce604086016020870161159c565b905061074a816001600160a01b0316610d6f565b60036109f1602086018661157b565b6004811115610a0257610a02611565565b036108a757610a1c6014610150604087016020880161159c565b610a298560600135610ccf565b604051602001610a3a9291906115d5565b60408051601f19818403018152918152610a5a906060870190870161159c565b6001600160a01b03166306fdde036040518163ffffffff1660e01b8152600401600060405180830381865afa158015610a97573d6000803e3d6000fd5b505050506040513d6000823e601f3d908101601f19168201604052610abf91908101906119b6565b604051602001610891929190611a63565b60606000610adf836002611b48565b610aea906002611b5f565b67ffffffffffffffff811115610b0257610b026119a0565b6040519080825280601f01601f191660200182016040528015610b2c576020820181803683370190505b5090507f300000000000000000000000000000000000000000000000000000000000000081600081518110610b6357610b63611b72565b60200101906001600160f81b031916908160001a9053507f780000000000000000000000000000000000000000000000000000000000000081600181518110610bae57610bae611b72565b60200101906001600160f81b031916908160001a9053506000610bd2846002611b48565b610bdd906001611b5f565b90505b6001811115610c62577f303132333435363738396162636465660000000000000000000000000000000085600f1660108110610c1e57610c1e611b72565b1a60f81b828281518110610c3457610c34611b72565b60200101906001600160f81b031916908160001a90535060049490941c93610c5b81611b88565b9050610be0565b508315610930576040517f08c379a000000000000000000000000000000000000000000000000000000000815260206004820181905260248201527f537472696e67733a20686578206c656e67746820696e73756666696369656e74604482015260640160405180910390fd5b60606000610cdc83611118565b600101905060008167ffffffffffffffff811115610cfc57610cfc6119a0565b6040519080825280601f01601f191660200182016040528015610d26576020820181803683370190505b5090508181016020015b600019017f3031323334353637383961626364656600000000000000000000000000000000600a86061a8153600a8504945084610d3057509392505050565b60408051600481526024810182526020810180516001600160e01b03167f06fdde0300000000000000000000000000000000000000000000000000000000179052905160609160009182916001600160a01b03861691610dcf9190611b9f565b600060405180830381855afa9150503d8060008114610e0a576040519150601f19603f3d011682016040523d82523d6000602084013e610e0f565b606091505b509150915081610e3a57604051806040016040528060038152602001623f3f3f60e81b815250610e43565b610e43816111fa565b949350505050565b60408051600481526024810182526020810180516001600160e01b03167f95d89b4100000000000000000000000000000000000000000000000000000000179052905160609160009182916001600160a01b03861691610dcf9190611b9f565b60408051600481526024810182526020810180516001600160e01b03167f313ce567000000000000000000000000000000000000000000000000000000001790529051600091829182916001600160a01b03861691610f0a9190611b9f565b600060405180830381855afa9150503d8060008114610f45576040519150601f19603f3d011682016040523d82523d6000602084013e610f4a565b606091505b5091509150818015610f5d575080516020145b610f68576012610e43565b80806020019051810190610e439190611bbb565b60608151600003610f9b57505060408051602081019091526000815290565b6000604051806060016040528060408152602001611c1a6040913990506000600384516002610fca9190611b5f565b610fd49190611bd8565b610fdf906004611b48565b90506000610fee826020611b5f565b67ffffffffffffffff811115611006576110066119a0565b6040519080825280601f01601f191660200182016040528015611030576020820181803683370190505b509050818152600183018586518101602084015b8183101561109c576003830192508251603f8160121c168501518253600182019150603f81600c1c168501518253600182019150603f8160061c168501518253600182019150603f8116850151825350600101611044565b6003895106600181146110b657600281146110e25761110a565b7f3d3d00000000000000000000000000000000000000000000000000000000000060011983015261110a565b7f3d000000000000000000000000000000000000000000000000000000000000006000198301525b509398975050505050505050565b6000807a184f03e93ff9f4daa797ed6e38ed64bf6a1f0100000000000000008310611161577a184f03e93ff9f4daa797ed6e38ed64bf6a1f010000000000000000830492506040015b6d04ee2d6d415b85acef8100000000831061118d576d04ee2d6d415b85acef8100000000830492506020015b662386f26fc1000083106111ab57662386f26fc10000830492506010015b6305f5e10083106111c3576305f5e100830492506008015b61271083106111d757612710830492506004015b606483106111e9576064830492506002015b600a83106106995760010192915050565b60606040825110611219578180602001905181019061069991906119b6565b81516020036113895760005b60208160ff161080156112725750828160ff168151811061124857611248611b72565b01602001517fff000000000000000000000000000000000000000000000000000000000000001615155b15611289578061128181611bfa565b915050611225565b60008160ff1667ffffffffffffffff8111156112a7576112a76119a0565b6040519080825280601f01601f1916602001820160405280156112d1576020820181803683370190505b509050600091505b60208260ff161080156113265750838260ff16815181106112fc576112fc611b72565b01602001517fff000000000000000000000000000000000000000000000000000000000000001615155b1561093057838260ff168151811061134057611340611b72565b602001015160f81c60f81b818360ff168151811061136057611360611b72565b60200101906001600160f81b031916908160001a9053508161138181611bfa565b9250506112d9565b50506040805180820190915260038152623f3f3f60e81b602082015290565b6000608082840312156113ba57600080fd5b50919050565b6001600160a01b03811681146113d557600080fd5b50565b60008060008060e085870312156113ee57600080fd5b6113f886866113a8565b9350608085013567ffffffffffffffff81111561141457600080fd5b611420878288016113a8565b93505060a0850135915060c0850135611438816113c0565b939692955090935050565b60005b8381101561145e578181015183820152602001611446565b50506000910152565b6020815260008251806020840152611486816040850160208701611443565b601f01601f19169190910160400192915050565b60ff811681146113d557600080fd5b60008060a083850312156114bc57600080fd5b6114c684846113a8565b915060808301356114d68161149a565b809150509250929050565b600080600060a084860312156114f657600080fd5b61150085856113a8565b9250608084013567ffffffffffffffff8082111561151d57600080fd5b818601915086601f83011261153157600080fd5b81358181111561154057600080fd5b87602082850101111561155257600080fd5b6020830194508093505050509250925092565b634e487b7160e01b600052602160045260246000fd5b60006020828403121561158d57600080fd5b81356005811061093057600080fd5b6000602082840312156115ae57600080fd5b8135610930816113c0565b600081516115cb818560208601611443565b9290920192915050565b7f455243313135353a00000000000000000000000000000000000000000000000081526000835161160d816008850160208801611443565b7f2f00000000000000000000000000000000000000000000000000000000000000600891840191820152835161164a816009840160208801611443565b01600901949350505050565b6000808335601e1984360301811261166d57600080fd5b83018035915067ffffffffffffffff82111561168857600080fd5b60200191503681900382131561169d57600080fd5b9250929050565b6000602082840312156116b657600080fd5b81356109308161149a565b7f2c22746f74616c537570706c79223a00000000000000000000000000000000008152600083516116f981600f850160208801611443565b7f2c226669786564537570706c79223a0000000000000000000000000000000000600f91840191820152835161173681601e840160208801611443565b01601e01949350505050565b7f2c22746f6b656e41646472657373223a2200000000000000000000000000000081526000825161177a816011850160208701611443565b601160f91b6011939091019283015250601201919050565b7f2c22746f6b656e4964223a0000000000000000000000000000000000000000008152600082516117ca81600b850160208701611443565b91909101600b0192915050565b7f7b226e616d65223a22000000000000000000000000000000000000000000000081526000895161180f816009850160208e01611443565b7f222c2273796d626f6c223a220000000000000000000000000000000000000000600991840191820152895161184c816015840160208e01611443565b601160f91b60159290910191820152885161186e816016840160208d01611443565b8851910190611884816016840160208c01611443565b7f2c2270726f70657274696573223a7b227374726174656779223a2200000000006016929091019182015286516118c2816031840160208b01611443565b61194b61192261191c6119166119096119036031878901017f222c22746f6b656e54797065223a2200000000000000000000000000000000008152600f0190565b8c6115b9565b601160f91b815260010190565b896115b9565b876115b9565b7f7d7d000000000000000000000000000000000000000000000000000000000000815260020190565b9c9b505050505050505050505050565b7f646174613a6170706c69636174696f6e2f6a736f6e3b6261736536342c00000081526000825161199381601d850160208701611443565b91909101601d0192915050565b634e487b7160e01b600052604160045260246000fd5b6000602082840312156119c857600080fd5b815167ffffffffffffffff808211156119e057600080fd5b818401915084601f8301126119f457600080fd5b815181811115611a0657611a066119a0565b604051601f8201601f19908116603f01168101908382118183101715611a2e57611a2e6119a0565b81604052828152876020848701011115611a4757600080fd5b611a58836020830160208801611443565b979650505050505050565b60008351611a75818460208801611443565b61040560f31b9083019081528351611a94816002840160208801611443565b602960f81b60029290910191820152600301949350505050565b664552433131353560c81b815261040560f31b600782015260008251611adb816009850160208701611443565b602960f81b6009939091019283015250600a01919050565b82848237600083820161040560f31b81528351611b17816002840160208801611443565b602960f81b6002929091019182015260030195945050505050565b634e487b7160e01b600052601160045260246000fd5b808202811582820484141761069957610699611b32565b8082018082111561069957610699611b32565b634e487b7160e01b600052603260045260246000fd5b600081611b9757611b97611b32565b506000190190565b60008251611bb1818460208701611443565b9190910192915050565b600060208284031215611bcd57600080fd5b81516109308161149a565b600082611bf557634e487b7160e01b600052601260045260246000fd5b500490565b600060ff821660ff8103611c1057611c10611b32565b6001019291505056fe4142434445464748494a4b4c4d4e4f505152535455565758595a6162636465666768696a6b6c6d6e6f707172737475767778797a303132333435363738392b2fa2646970667358221220fc20c27ccebca2d068264e1340b491b53965dc8af122ad3b6b3edc875a98c45564736f6c63430008160033","linkReferences":{}},"methodIdentifiers":{"decimals((uint8,address,address,uint256),uint8)":"6d7cd037","name((uint8,address,address,uint256),string)":"aa1163b9","symbol((uint8,address,address,uint256),string)":"84b1017d","uri((uint8,address,address,uint256),(string,string,uint8,string),uint256,address)":"5c6d8435"},"id":10}