{"abi":[{"type":"function","name":"data","inputs":[],"outputs":[{"name":"","type":"bytes","internalType":"bytes"}],"stateMutability":"view"},{"type":"function","name":"from","inputs":[],"outputs":[{"name":"","type":"address","internalType":"address"}],"stateMutability":"view"},{"type":"function","name":"fromBalance","inputs":[],"outputs":[{"name":"","type":"uint256","internalType":"uint256"}],"stateMutability":"view"},{"type":"function","name":"id","inputs":[],"outputs":[{"name":"","type":"uint256","internalType":"uint256"}],"stateMutability":"view"},{"type":"function","name":"ids","inputs":[{"name":"","type":"uint256","internalType":"uint256"}],"outputs":[{"name":"","type":"uint256","internalType":"uint256"}],"stateMutability":"view"},{"type":"function","name":"onERC1155BatchReceived","inputs":[{"name":"_operator","type":"address","internalType":"address"},{"name":"_from","type":"address","internalType":"address"},{"name":"_ids","type":"uint256[]","internalType":"uint256[]"},{"name":"_values","type":"uint256[]","internalType":"uint256[]"},{"name":"_data","type":"bytes","internalType":"bytes"}],"outputs":[{"name":"","type":"bytes4","internalType":"bytes4"}],"stateMutability":"nonpayable"},{"type":"function","name":"onERC1155Received","inputs":[{"name":"_operator","type":"address","internalType":"address"},{"name":"_from","type":"address","internalType":"address"},{"name":"_id","type":"uint256","internalType":"uint256"},{"name":"_value","type":"uint256","internalType":"uint256"},{"name":"_data","type":"bytes","internalType":"bytes"}],"outputs":[{"name":"","type":"bytes4","internalType":"bytes4"}],"stateMutability":"nonpayable"},{"type":"function","name":"operator","inputs":[],"outputs":[{"name":"","type":"address","internalType":"address"}],"stateMutability":"view"},{"type":"function","name":"returnToken","inputs":[],"outputs":[],"stateMutability":"nonpayable"},{"type":"function","name":"returnTokens","inputs":[],"outputs":[],"stateMutability":"nonpayable"},{"type":"function","name":"sender","inputs":[],"outputs":[{"name":"","type":"address","internalType":"address"}],"stateMutability":"view"},{"type":"function","name":"value","inputs":[],"outputs":[{"name":"","type":"uint256","internalType":"uint256"}],"stateMutability":"view"},{"type":"function","name":"values","inputs":[{"name":"","type":"uint256","internalType":"uint256"}],"outputs":[{"name":"","type":"uint256","internalType":"uint256"}],"stateMutability":"view"}],"bytecode":{"object":"0x608060405234801561001057600080fd5b50610b4d806100206000396000f3fe608060405234801561001057600080fd5b50600436106100df5760003560e01c806373d4a13a1161008c578063d5ce338911610066578063d5ce3389146101c6578063f23a6e61146101d9578063f9718fc8146101ec578063fac333ac146101f457600080fd5b806373d4a13a14610164578063af640d0f14610179578063bc197c811461018257600080fd5b8063570ca735116100bd578063570ca735146101135780635e383d211461013e57806367e404ce1461015157600080fd5b806326fea2a8146100e45780632e4a3657146101005780633fa4f2451461010a575b600080fd5b6100ed60085481565b6040519081526020015b60405180910390f35b610108610207565b005b6100ed60055481565b600154610126906001600160a01b031681565b6040516001600160a01b0390911681526020016100f7565b6100ed61014c3660046106a5565b6102ac565b600054610126906001600160a01b031681565b61016c6102cd565b6040516100f791906106be565b6100ed60035481565b6101956101903660046107b7565b61035b565b6040517fffffffff0000000000000000000000000000000000000000000000000000000090911681526020016100f7565b600254610126906001600160a01b031681565b6101956101e7366004610872565b6104c1565b6101086105e0565b6100ed6102023660046106a5565b610635565b600080546002546003546005546040517ff242432a0000000000000000000000000000000000000000000000000000000081523060048201526001600160a01b0393841660248201526044810192909252606482015260a0608482015260a4810193909352169063f242432a9060c4015b600060405180830381600087803b15801561029257600080fd5b505af11580156102a6573d6000803e3d6000fd5b50505050565b600681815481106102bc57600080fd5b600091825260209091200154905081565b600780546102da906108ea565b80601f0160208091040260200160405190810160405280929190818152602001828054610306906108ea565b80156103535780601f1061032857610100808354040283529160200191610353565b820191906000526020600020905b81548152906001019060200180831161033657829003601f168201915b505050505081565b600080543373ffffffffffffffffffffffffffffffffffffffff199182161782556001805482166001600160a01b038c81169190911790915560028054909216908a161790556103ad60048888610645565b506103ba60068686610645565b5060076103c883858361098b565b50600454156104935760008054600254600480546001600160a01b039384169462fdd58e9490931692906103fe576103fe610a4c565b6000918252602090912001546040517fffffffff0000000000000000000000000000000000000000000000000000000060e085901b1681526001600160a01b0390921660048301526024820152604401602060405180830381865afa15801561046b573d6000803e3d6000fd5b505050506040513d601f19601f8201168201806040525081019061048f9190610a62565b6008555b507fbc197c819b3e337a6f9652dd10becd7eef83032af3b9d958d3d42f669414662198975050505050505050565b600080543373ffffffffffffffffffffffffffffffffffffffff199182161782556001805482166001600160a01b038a8116919091179091556002805490921690881617905560038590556005849055600761051e83858361098b565b506000546002546003546040517efdd58e0000000000000000000000000000000000000000000000000000000081526001600160a01b039283166004820152602481019190915291169062fdd58e90604401602060405180830381865afa15801561058d573d6000803e3d6000fd5b505050506040513d601f19601f820116820180604052508101906105b19190610a62565b600855507ff23a6e612e1ff4830e658fe43f4e3cb4a5f8170bd5d9e69fb5d7a7fa9e4fdf979695505050505050565b6000546002546040517f2eb2c2d60000000000000000000000000000000000000000000000000000000081526001600160a01b0392831692632eb2c2d692610278923092909116906004906006908201610abc565b600481815481106102bc57600080fd5b828054828255906000526020600020908101928215610680579160200282015b82811115610680578235825591602001919060010190610665565b5061068c929150610690565b5090565b5b8082111561068c5760008155600101610691565b6000602082840312156106b757600080fd5b5035919050565b60006020808352835180602085015260005b818110156106ec578581018301518582016040015282016106d0565b506000604082860101526040601f19601f8301168501019250505092915050565b80356001600160a01b038116811461072457600080fd5b919050565b60008083601f84011261073b57600080fd5b50813567ffffffffffffffff81111561075357600080fd5b6020830191508360208260051b850101111561076e57600080fd5b9250929050565b60008083601f84011261078757600080fd5b50813567ffffffffffffffff81111561079f57600080fd5b60208301915083602082850101111561076e57600080fd5b60008060008060008060008060a0898b0312156107d357600080fd5b6107dc8961070d565b97506107ea60208a0161070d565b9650604089013567ffffffffffffffff8082111561080757600080fd5b6108138c838d01610729565b909850965060608b013591508082111561082c57600080fd5b6108388c838d01610729565b909650945060808b013591508082111561085157600080fd5b5061085e8b828c01610775565b999c989b5096995094979396929594505050565b60008060008060008060a0878903121561088b57600080fd5b6108948761070d565b95506108a26020880161070d565b94506040870135935060608701359250608087013567ffffffffffffffff8111156108cc57600080fd5b6108d889828a01610775565b979a9699509497509295939492505050565b600181811c908216806108fe57607f821691505b60208210810361091e57634e487b7160e01b600052602260045260246000fd5b50919050565b634e487b7160e01b600052604160045260246000fd5b601f821115610986576000816000526020600020601f850160051c810160208610156109635750805b601f850160051c820191505b818110156109825782815560010161096f565b5050505b505050565b67ffffffffffffffff8311156109a3576109a3610924565b6109b7836109b183546108ea565b8361093a565b6000601f8411600181146109eb57600085156109d35750838201355b600019600387901b1c1916600186901b178355610a45565b600083815260209020601f19861690835b82811015610a1c57868501358255602094850194600190920191016109fc565b5086821015610a395760001960f88860031b161c19848701351681555b505060018560011b0183555b5050505050565b634e487b7160e01b600052603260045260246000fd5b600060208284031215610a7457600080fd5b5051919050565b600081548084526020808501945083600052602060002060005b83811015610ab157815487529582019560019182019101610a95565b509495945050505050565b60006001600160a01b03808716835280861660208401525060a06040830152610ae860a0830185610a7b565b8281036060840152610afa8185610a7b565b83810360809094019390935250506000815260200194935050505056fea2646970667358221220a1ecea9de3628699e89089473913806fdc8613cfc0cc0597f3de00c26ea6d5ef64736f6c63430008160033","linkReferences":{}},"methodIdentifiers":{"data()":"73d4a13a","from()":"d5ce3389","fromBalance()":"26fea2a8","id()":"af640d0f","ids(uint256)":"fac333ac","onERC1155BatchReceived(address,address,uint256[],uint256[],bytes)":"bc197c81","onERC1155Received(address,address,uint256,uint256,bytes)":"f23a6e61","operator()":"570ca735","returnToken()":"2e4a3657","returnTokens()":"f9718fc8","sender()":"67e404ce","value()":"3fa4f245","values(uint256)":"5e383d21"},"id":16}