{"abi":[{"type":"constructor","inputs":[{"name":"_sushi","type":"address","internalType":"contract ERC20"}],"stateMutability":"nonpayable"},{"type":"function","name":"DOMAIN_SEPARATOR","inputs":[],"outputs":[{"name":"","type":"bytes32","internalType":"bytes32"}],"stateMutability":"view"},{"type":"function","name":"allowance","inputs":[{"name":"","type":"address","internalType":"address"},{"name":"","type":"address","internalType":"address"}],"outputs":[{"name":"","type":"uint256","internalType":"uint256"}],"stateMutability":"view"},{"type":"function","name":"approve","inputs":[{"name":"spender","type":"address","internalType":"address"},{"name":"amount","type":"uint256","internalType":"uint256"}],"outputs":[{"name":"","type":"bool","internalType":"bool"}],"stateMutability":"nonpayable"},{"type":"function","name":"balanceOf","inputs":[{"name":"","type":"address","internalType":"address"}],"outputs":[{"name":"","type":"uint256","internalType":"uint256"}],"stateMutability":"view"},{"type":"function","name":"enter","inputs":[{"name":"_amount","type":"uint256","internalType":"uint256"}],"outputs":[],"stateMutability":"nonpayable"},{"type":"function","name":"leave","inputs":[{"name":"_share","type":"uint256","internalType":"uint256"}],"outputs":[],"stateMutability":"nonpayable"},{"type":"function","name":"name","inputs":[],"outputs":[{"name":"","type":"string","internalType":"string"}],"stateMutability":"view"},{"type":"function","name":"nonces","inputs":[{"name":"","type":"address","internalType":"address"}],"outputs":[{"name":"","type":"uint256","internalType":"uint256"}],"stateMutability":"view"},{"type":"function","name":"permit","inputs":[{"name":"owner_","type":"address","internalType":"address"},{"name":"spender","type":"address","internalType":"address"},{"name":"value","type":"uint256","internalType":"uint256"},{"name":"deadline","type":"uint256","internalType":"uint256"},{"name":"v","type":"uint8","internalType":"uint8"},{"name":"r","type":"bytes32","internalType":"bytes32"},{"name":"s","type":"bytes32","internalType":"bytes32"}],"outputs":[],"stateMutability":"nonpayable"},{"type":"function","name":"sushi","inputs":[],"outputs":[{"name":"","type":"address","internalType":"contract ERC20"}],"stateMutability":"view"},{"type":"function","name":"symbol","inputs":[],"outputs":[{"name":"","type":"string","internalType":"string"}],"stateMutability":"view"},{"type":"function","name":"totalSupply","inputs":[],"outputs":[{"name":"","type":"uint256","internalType":"uint256"}],"stateMutability":"view"},{"type":"function","name":"transfer","inputs":[{"name":"to","type":"address","internalType":"address"},{"name":"amount","type":"uint256","internalType":"uint256"}],"outputs":[{"name":"","type":"bool","internalType":"bool"}],"stateMutability":"nonpayable"},{"type":"function","name":"transferFrom","inputs":[{"name":"from","type":"address","internalType":"address"},{"name":"to","type":"address","internalType":"address"},{"name":"amount","type":"uint256","internalType":"uint256"}],"outputs":[{"name":"","type":"bool","internalType":"bool"}],"stateMutability":"nonpayable"},{"type":"event","name":"Approval","inputs":[{"name":"owner","type":"address","indexed":true,"internalType":"address"},{"name":"spender","type":"address","indexed":true,"internalType":"address"},{"name":"value","type":"uint256","indexed":false,"internalType":"uint256"}],"anonymous":false},{"type":"event","name":"Transfer","inputs":[{"name":"from","type":"address","indexed":true,"internalType":"address"},{"name":"to","type":"address","indexed":true,"internalType":"address"},{"name":"value","type":"uint256","indexed":false,"internalType":"uint256"}],"anonymous":false}],"bytecode":{"object":"0x60c060405234801561001057600080fd5b5060405161117438038061117483398101604081905261002f916100bb565b4660a081905261009281604080517f47e79534a245952e8b16893a336b85a3d9ea9fa8c573f3d803afb92a794692186020820152908101829052306060820152600090608001604051602081830303815290604052805190602001209050919050565b60805250600380546001600160a01b0319166001600160a01b03929092169190911790556100eb565b6000602082840312156100cd57600080fd5b81516001600160a01b03811681146100e457600080fd5b9392505050565b60805160a0516110646101106000396000610b6a01526000610b9f01526110646000f3fe608060405234801561001057600080fd5b50600436106100ea5760003560e01c806370a082311161008c578063a59f3e0c11610066578063a59f3e0c14610252578063a9059cbb14610265578063d505accf14610278578063dd62ed3e1461028b57600080fd5b806370a08231146101d65780637ecebe00146101f657806395d89b411461021657600080fd5b806318160ddd116100c857806318160ddd1461018f57806323b872dd146101a65780633644e515146101b957806367dfd4c9146101c157600080fd5b806306fdde03146100ef578063095ea7b3146101415780630a08790314610164575b600080fd5b61012b6040518060400160405280600881526020017f537573686942617200000000000000000000000000000000000000000000000081525081565b6040516101389190610da8565b60405180910390f35b61015461014f366004610df7565b6102b6565b6040519015158152602001610138565b600354610177906001600160a01b031681565b6040516001600160a01b039091168152602001610138565b61019860045481565b604051908152602001610138565b6101546101b4366004610e21565b610323565b610198610554565b6101d46101cf366004610e5d565b610563565b005b6101986101e4366004610e76565b60006020819052908152604090205481565b610198610204366004610e76565b60026020526000908152604090205481565b61012b6040518060400160405280600681526020017f785375736869000000000000000000000000000000000000000000000000000081525081565b6101d4610260366004610e5d565b610691565b610154610273366004610df7565b61079e565b6101d4610286366004610e98565b610903565b610198610299366004610f0b565b600160209081526000928352604080842090915290825290205481565b3360008181526001602090815260408083206001600160a01b038716808552925280832085905551919290917f8c5be1e5ebec7d5bd14f71427d1e84f3dd0314c0f7b2291e5b200ac8c7c3b925906103119086815260200190565b60405180910390a35060015b92915050565b600081156104fd576001600160a01b038416600090815260208190526040902054828110156103995760405162461bcd60e51b815260206004820152601660248201527f45524332303a2062616c616e636520746f6f206c6f770000000000000000000060448201526064015b60405180910390fd5b836001600160a01b0316856001600160a01b0316146104fb576001600160a01b0385166000908152600160209081526040808320338452909152902054600019811461045e578381101561042f5760405162461bcd60e51b815260206004820152601860248201527f45524332303a20616c6c6f77616e636520746f6f206c6f7700000000000000006044820152606401610390565b6104398482610f54565b6001600160a01b03871660009081526001602090815260408083203384529091529020555b6001600160a01b0385166104b45760405162461bcd60e51b815260206004820152601660248201527f45524332303a206e6f207a65726f2061646472657373000000000000000000006044820152606401610390565b6104be8483610f54565b6001600160a01b0380881660009081526020819052604080822093909355908716815290812080548692906104f4908490610f67565b9091555050505b505b826001600160a01b0316846001600160a01b03167fddf252ad1be2c89b69c2b068fc378daa952ba7f163c4a11628f55a4df523b3ef8460405161054291815260200190565b60405180910390a35060019392505050565b600061055e610b65565b905090565b600480546003546040516370a0823160e01b81523093810193909352909160009183916001600160a01b03909116906370a0823190602401602060405180830381865afa1580156105b8573d6000803e3d6000fd5b505050506040513d601f19601f820116820180604052508101906105dc9190610f7a565b6105e69085610f93565b6105f09190610faa565b90506105fc3384610bc5565b6003546040517fa9059cbb000000000000000000000000000000000000000000000000000000008152336004820152602481018390526001600160a01b039091169063a9059cbb906044015b6020604051808303816000875af1158015610667573d6000803e3d6000fd5b505050506040513d601f19601f8201168201806040525081019061068b9190610fcc565b50505050565b6003546040516370a0823160e01b81523060048201526000916001600160a01b0316906370a0823190602401602060405180830381865afa1580156106da573d6000803e3d6000fd5b505050506040513d601f19601f820116820180604052508101906106fe9190610f7a565b60045490915080158061070f575081155b156107235761071e3384610c51565b610748565b6000826107308386610f93565b61073a9190610faa565b90506107463382610c51565b505b6003546040517f23b872dd000000000000000000000000000000000000000000000000000000008152336004820152306024820152604481018590526001600160a01b03909116906323b872dd90606401610648565b6000811515806107b65750336001600160a01b038416145b156108c657336000908152602081905260409020548281101561081b5760405162461bcd60e51b815260206004820152601660248201527f45524332303a2062616c616e636520746f6f206c6f77000000000000000000006044820152606401610390565b336001600160a01b038516146108c4576001600160a01b0384166108815760405162461bcd60e51b815260206004820152601660248201527f45524332303a206e6f207a65726f2061646472657373000000000000000000006044820152606401610390565b61088b8382610f54565b33600090815260208190526040808220929092556001600160a01b038616815290812080548592906108be908490610f67565b90915550505b505b6040518281526001600160a01b0384169033907fddf252ad1be2c89b69c2b068fc378daa952ba7f163c4a11628f55a4df523b3ef90602001610311565b6001600160a01b0387166109595760405162461bcd60e51b815260206004820152601860248201527f45524332303a204f776e65722063616e6e6f74206265203000000000000000006044820152606401610390565b8342106109a85760405162461bcd60e51b815260206004820152600e60248201527f45524332303a20457870697265640000000000000000000000000000000000006044820152606401610390565b6001600160a01b03871660008181526002602052604081208054600192610a52927f6e71edae12b1b97f4d1f60370fef10105fa2faae0126114a169c64845d6126c9928d928d928d92916109fb83610fee565b909155506040805160208101969096526001600160a01b0394851690860152929091166060840152608083015260a082015260c0810188905260e00160405160208183030381529060405280519060200120610cd3565b6040805160008152602081018083529290925260ff871690820152606081018590526080810184905260a0016020604051602081039080840390855afa158015610aa0573d6000803e3d6000fd5b505050602060405103516001600160a01b031614610b005760405162461bcd60e51b815260206004820152601860248201527f45524332303a20496e76616c6964205369676e617475726500000000000000006044820152606401610390565b6001600160a01b038781166000818152600160209081526040808320948b168084529482529182902089905590518881527f8c5be1e5ebec7d5bd14f71427d1e84f3dd0314c0f7b2291e5b200ac8c7c3b925910160405180910390a350505050505050565b6000467f00000000000000000000000000000000000000000000000000000000000000008114610b9d57610b9881610d43565b610bbf565b7f00000000000000000000000000000000000000000000000000000000000000005b91505090565b6001600160a01b03821660009081526020819052604081208054839290610bed908490610f54565b925050819055508060046000828254610c069190610f54565b90915550506040518181526000906001600160a01b038416907fddf252ad1be2c89b69c2b068fc378daa952ba7f163c4a11628f55a4df523b3ef906020015b60405180910390a35050565b8060046000828254610c639190610f67565b90915550506001600160a01b03821660009081526020819052604081208054839290610c90908490610f67565b90915550506040518181526001600160a01b038316906000907fddf252ad1be2c89b69c2b068fc378daa952ba7f163c4a11628f55a4df523b3ef90602001610c45565b60006040518060400160405280600281526020017f1901000000000000000000000000000000000000000000000000000000000000815250610d13610b65565b83604051602001610d2693929190611007565b604051602081830303815290604052805190602001209050919050565b604080517f47e79534a245952e8b16893a336b85a3d9ea9fa8c573f3d803afb92a794692186020820152908101829052306060820152600090608001610d26565b60005b83811015610d9f578181015183820152602001610d87565b50506000910152565b6020815260008251806020840152610dc7816040850160208701610d84565b601f01601f19169190910160400192915050565b80356001600160a01b0381168114610df257600080fd5b919050565b60008060408385031215610e0a57600080fd5b610e1383610ddb565b946020939093013593505050565b600080600060608486031215610e3657600080fd5b610e3f84610ddb565b9250610e4d60208501610ddb565b9150604084013590509250925092565b600060208284031215610e6f57600080fd5b5035919050565b600060208284031215610e8857600080fd5b610e9182610ddb565b9392505050565b600080600080600080600060e0888a031215610eb357600080fd5b610ebc88610ddb565b9650610eca60208901610ddb565b95506040880135945060608801359350608088013560ff81168114610eee57600080fd5b9699959850939692959460a0840135945060c09093013592915050565b60008060408385031215610f1e57600080fd5b610f2783610ddb565b9150610f3560208401610ddb565b90509250929050565b634e487b7160e01b600052601160045260246000fd5b8181038181111561031d5761031d610f3e565b8082018082111561031d5761031d610f3e565b600060208284031215610f8c57600080fd5b5051919050565b808202811582820484141761031d5761031d610f3e565b600082610fc757634e487b7160e01b600052601260045260246000fd5b500490565b600060208284031215610fde57600080fd5b81518015158114610e9157600080fd5b60006001820161100057611000610f3e565b5060010190565b60008451611019818460208901610d84565b9190910192835250602082015260400191905056fea264697066735822122065cb2eda8045af535b6f50f9024231602851834cec0daf638d938fdf410af99864736f6c63430008160033","linkReferences":{}},"methodIdentifiers":{"DOMAIN_SEPARATOR()":"3644e515","allowance(address,address)":"dd62ed3e","approve(address,uint256)":"095ea7b3","balanceOf(address)":"70a08231","enter(uint256)":"a59f3e0c","leave(uint256)":"67dfd4c9","name()":"06fdde03","nonces(address)":"7ecebe00","permit(address,address,uint256,uint256,uint8,bytes32,bytes32)":"d505accf","sushi()":"0a087903","symbol()":"95d89b41","totalSupply()":"18160ddd","transfer(address,uint256)":"a9059cbb","transferFrom(address,address,uint256)":"23b872dd"},"id":28}