{"abi":[{"type":"function","name":"deposit","inputs":[{"name":"share","type":"uint256","internalType":"uint256"},{"name":"amount","type":"uint256","internalType":"uint256"}],"outputs":[{"name":"shareOut","type":"uint256","internalType":"uint256"},{"name":"amountOut","type":"uint256","internalType":"uint256"}],"stateMutability":"nonpayable"},{"type":"function","name":"gain","inputs":[{"name":"amount","type":"uint256","internalType":"uint256"}],"outputs":[],"stateMutability":"nonpayable"},{"type":"function","name":"lose","inputs":[{"name":"amount","type":"uint256","internalType":"uint256"}],"outputs":[],"stateMutability":"nonpayable"},{"type":"function","name":"toAmount","inputs":[{"name":"share","type":"uint256","internalType":"uint256"},{"name":"roundUp","type":"bool","internalType":"bool"}],"outputs":[{"name":"amount","type":"uint256","internalType":"uint256"}],"stateMutability":"view"},{"type":"function","name":"toShare","inputs":[{"name":"amount","type":"uint256","internalType":"uint256"},{"name":"roundUp","type":"bool","internalType":"bool"}],"outputs":[{"name":"share","type":"uint256","internalType":"uint256"}],"stateMutability":"view"},{"type":"function","name":"totalAmount","inputs":[],"outputs":[{"name":"","type":"uint256","internalType":"uint256"}],"stateMutability":"view"},{"type":"function","name":"totalShares","inputs":[],"outputs":[{"name":"","type":"uint256","internalType":"uint256"}],"stateMutability":"view"},{"type":"function","name":"withdraw","inputs":[{"name":"share","type":"uint256","internalType":"uint256"},{"name":"amount","type":"uint256","internalType":"uint256"}],"outputs":[{"name":"shareOut","type":"uint256","internalType":"uint256"},{"name":"amountOut","type":"uint256","internalType":"uint256"}],"stateMutability":"nonpayable"}],"bytecode":{"object":"0x608060405234801561001057600080fd5b50610488806100206000396000f3fe608060405234801561001057600080fd5b50600436106100885760003560e01c80633a98ef391161005b5780633a98ef39146100e4578063441a3e70146100ed5780636832a26614610115578063e2bbb1581461012857600080fd5b8063022e6df61461008d5780630588ede4146100a25780631a39d8ef146100c85780631c711610146100d1575b600080fd5b6100a061009b36600461034e565b61013b565b005b6100b56100b0366004610367565b610154565b6040519081526020015b60405180910390f35b6100b560005481565b6100b56100df366004610367565b610178565b6100b560015481565b6101006100fb36600461039c565b610195565b604080519283526020830191909152016100bf565b6100a061012336600461034e565b610211565b61010061013636600461039c565b610222565b8060008082825461014c91906103d4565b909155505050565b60006101716001546000548486610291909392919063ffffffff16565b9392505050565b60006101716001546000548486610303909392919063ffffffff16565b600080836000036101bb57600180546000546101b49286929190610291565b93506101da565b6101d7600154600054600087610303909392919063ffffffff16565b92505b826000808282546101eb91906103ed565b92505081905550836001600082825461020491906103ed565b9091555093949293505050565b8060008082825461014c91906103ed565b6000808360000361025057610249600154600054600086610291909392919063ffffffff16565b9350610267565b600180546000546102649287929190610303565b92505b8260008082825461027891906103d4565b92505081905550836001600082825461020491906103d4565b60008261029d81610400565b93506102af90506305f5e100856103d4565b9350826102bc8587610419565b6102c69190610430565b90508180156102e8575084846102dc8584610419565b6102e69190610430565b105b156102fb57806102f781610400565b9150505b949350505050565b60008261030f81610400565b935061032190506305f5e100856103d4565b93508361032e8487610419565b6103389190610430565b90508180156102e8575084836102dc8684610419565b60006020828403121561036057600080fd5b5035919050565b6000806040838503121561037a57600080fd5b823591506020830135801515811461039157600080fd5b809150509250929050565b600080604083850312156103af57600080fd5b50508035926020909101359150565b634e487b7160e01b600052601160045260246000fd5b808201808211156103e7576103e76103be565b92915050565b818103818111156103e7576103e76103be565b600060018201610412576104126103be565b5060010190565b80820281158282048414176103e7576103e76103be565b60008261044d57634e487b7160e01b600052601260045260246000fd5b50049056fea26469706673582212200e661b3a854619b71d9ef87413f6cc625a30688baba26060cee9a738c78e550c64736f6c63430008160033","linkReferences":{}},"methodIdentifiers":{"deposit(uint256,uint256)":"e2bbb158","gain(uint256)":"022e6df6","lose(uint256)":"6832a266","toAmount(uint256,bool)":"1c711610","toShare(uint256,bool)":"0588ede4","totalAmount()":"1a39d8ef","totalShares()":"3a98ef39","withdraw(uint256,uint256)":"441a3e70"},"id":30}