{"abi":[{"type":"constructor","inputs":[{"name":"_yieldBox","type":"address","internalType":"contract YieldBox"}],"stateMutability":"nonpayable"},{"type":"function","name":"yieldBox","inputs":[],"outputs":[{"name":"","type":"address","internalType":"contract YieldBox"}],"stateMutability":"view"}],"bytecode":{"object":"0x608060405234801561001057600080fd5b5060405161013d38038061013d83398101604081905261002f91610054565b600080546001600160a01b0319166001600160a01b0392909216919091179055610084565b60006020828403121561006657600080fd5b81516001600160a01b038116811461007d57600080fd5b9392505050565b60ab806100926000396000f3fe6080604052348015600f57600080fd5b506004361060285760003560e01c8063de40657714602d575b600080fd5b600054604c9073ffffffffffffffffffffffffffffffffffffffff1681565b60405173ffffffffffffffffffffffffffffffffffffffff909116815260200160405180910390f3fea264697066735822122099649407dd4f5a714881244fc251b2034d4c30ef933f5aae123a8602710b99e564736f6c63430008160033","linkReferences":{}},"methodIdentifiers":{"yieldBox()":"de406577"},"id":34}