{"abi":[{"type":"constructor","inputs":[],"stateMutability":"nonpayable"},{"type":"function","name":"assetCount","inputs":[],"outputs":[{"name":"","type":"uint256","internalType":"uint256"}],"stateMutability":"view"},{"type":"function","name":"assets","inputs":[{"name":"","type":"uint256","internalType":"uint256"}],"outputs":[{"name":"tokenType","type":"uint8","internalType":"enum TokenType"},{"name":"contractAddress","type":"address","internalType":"address"},{"name":"strategy","type":"address","internalType":"contract IStrategy"},{"name":"tokenId","type":"uint256","internalType":"uint256"}],"stateMutability":"view"},{"type":"function","name":"balanceOf","inputs":[{"name":"","type":"address","internalType":"address"},{"name":"","type":"uint256","internalType":"uint256"}],"outputs":[{"name":"","type":"uint256","internalType":"uint256"}],"stateMutability":"view"},{"type":"function","name":"balanceOfBatch","inputs":[{"name":"owners","type":"address[]","internalType":"address[]"},{"name":"ids","type":"uint256[]","internalType":"uint256[]"}],"outputs":[{"name":"balances","type":"uint256[]","internalType":"uint256[]"}],"stateMutability":"view"},{"type":"function","name":"ids","inputs":[{"name":"tokenType","type":"uint8","internalType":"enum TokenType"},{"name":"contractAddress","type":"address","internalType":"address"},{"name":"strategy","type":"address","internalType":"contract IStrategy"},{"name":"tokenId","type":"uint256","internalType":"uint256"}],"outputs":[{"name":"assetId","type":"uint256","internalType":"uint256"}],"stateMutability":"view"},{"type":"function","name":"isApprovedForAll","inputs":[{"name":"","type":"address","internalType":"address"},{"name":"","type":"address","internalType":"address"}],"outputs":[{"name":"","type":"bool","internalType":"bool"}],"stateMutability":"view"},{"type":"function","name":"isApprovedForAsset","inputs":[{"name":"","type":"address","internalType":"address"},{"name":"","type":"address","internalType":"address"},{"name":"","type":"uint256","internalType":"uint256"}],"outputs":[{"name":"","type":"bool","internalType":"bool"}],"stateMutability":"view"},{"type":"function","name":"registerAsset","inputs":[{"name":"tokenType","type":"uint8","internalType":"enum TokenType"},{"name":"contractAddress","type":"address","internalType":"address"},{"name":"strategy","type":"address","internalType":"contract IStrategy"},{"name":"tokenId","type":"uint256","internalType":"uint256"}],"outputs":[{"name":"assetId","type":"uint256","internalType":"uint256"}],"stateMutability":"nonpayable"},{"type":"function","name":"safeBatchTransferFrom","inputs":[{"name":"from","type":"address","internalType":"address"},{"name":"to","type":"address","internalType":"address"},{"name":"ids","type":"uint256[]","internalType":"uint256[]"},{"name":"values","type":"uint256[]","internalType":"uint256[]"},{"name":"data","type":"bytes","internalType":"bytes"}],"outputs":[],"stateMutability":"nonpayable"},{"type":"function","name":"safeTransferFrom","inputs":[{"name":"from","type":"address","internalType":"address"},{"name":"to","type":"address","internalType":"address"},{"name":"id","type":"uint256","internalType":"uint256"},{"name":"value","type":"uint256","internalType":"uint256"},{"name":"data","type":"bytes","internalType":"bytes"}],"outputs":[],"stateMutability":"nonpayable"},{"type":"function","name":"setApprovalForAll","inputs":[{"name":"operator","type":"address","internalType":"address"},{"name":"approved","type":"bool","internalType":"bool"}],"outputs":[],"stateMutability":"nonpayable"},{"type":"function","name":"setApprovalForAsset","inputs":[{"name":"operator","type":"address","internalType":"address"},{"name":"assetId","type":"uint256","internalType":"uint256"},{"name":"approved","type":"bool","internalType":"bool"}],"outputs":[],"stateMutability":"nonpayable"},{"type":"function","name":"supportsInterface","inputs":[{"name":"interfaceID","type":"bytes4","internalType":"bytes4"}],"outputs":[{"name":"","type":"bool","internalType":"bool"}],"stateMutability":"pure"},{"type":"function","name":"totalSupply","inputs":[{"name":"","type":"uint256","internalType":"uint256"}],"outputs":[{"name":"","type":"uint256","internalType":"uint256"}],"stateMutability":"view"},{"type":"function","name":"uri","inputs":[{"name":"","type":"uint256","internalType":"uint256"}],"outputs":[{"name":"","type":"string","internalType":"string"}],"stateMutability":"view"},{"type":"event","name":"ApprovalForAll","inputs":[{"name":"_owner","type":"address","indexed":true,"internalType":"address"},{"name":"_operator","type":"address","indexed":true,"internalType":"address"},{"name":"_approved","type":"bool","indexed":false,"internalType":"bool"}],"anonymous":false},{"type":"event","name":"ApprovalForAsset","inputs":[{"name":"sender","type":"address","indexed":true,"internalType":"address"},{"name":"operator","type":"address","indexed":true,"internalType":"address"},{"name":"assetId","type":"uint256","indexed":false,"internalType":"uint256"},{"name":"approved","type":"bool","indexed":false,"internalType":"bool"}],"anonymous":false},{"type":"event","name":"AssetRegistered","inputs":[{"name":"tokenType","type":"uint8","indexed":true,"internalType":"enum TokenType"},{"name":"contractAddress","type":"address","indexed":true,"internalType":"address"},{"name":"strategy","type":"address","indexed":false,"internalType":"contract IStrategy"},{"name":"tokenId","type":"uint256","indexed":true,"internalType":"uint256"},{"name":"assetId","type":"uint256","indexed":false,"internalType":"uint256"}],"anonymous":false},{"type":"event","name":"TransferBatch","inputs":[{"name":"_operator","type":"address","indexed":true,"internalType":"address"},{"name":"_from","type":"address","indexed":true,"internalType":"address"},{"name":"_to","type":"address","indexed":true,"internalType":"address"},{"name":"_ids","type":"uint256[]","indexed":false,"internalType":"uint256[]"},{"name":"_values","type":"uint256[]","indexed":false,"internalType":"uint256[]"}],"anonymous":false},{"type":"event","name":"TransferSingle","inputs":[{"name":"_operator","type":"address","indexed":true,"internalType":"address"},{"name":"_from","type":"address","indexed":true,"internalType":"address"},{"name":"_to","type":"address","indexed":true,"internalType":"address"},{"name":"_id","type":"uint256","indexed":false,"internalType":"uint256"},{"name":"_value","type":"uint256","indexed":false,"internalType":"uint256"}],"anonymous":false},{"type":"event","name":"URI","inputs":[{"name":"_value","type":"string","indexed":false,"internalType":"string"},{"name":"_id","type":"uint256","indexed":true,"internalType":"uint256"}],"anonymous":false}],"bytecode":{"object":"0x608060405234801561001057600080fd5b5060408051608081018252600480825260006020830181905292820183905260608201839052600580546001808201835591909452825160039094027f036b6384b5eca791c62761152d0c79bb0604c104a5fb6f4eb0703f3154bb3db0018054939490939092849260ff1990921691908490811115610091576100916100e7565b021790555060208201518154610100600160a81b0319166101006001600160a01b039283160217825560408301516001830180546001600160a01b031916919092161790556060909101516002909101556100fd565b634e487b7160e01b600052602160045260246000fd5b6119988061010c6000396000f3fe608060405234801561001057600080fd5b50600436106100f45760003560e01c8063a75fcb1e11610097578063cf35bdd011610066578063cf35bdd014610283578063e985e9c5146102a6578063eafe7a74146102d4578063f242432a146102dc57600080fd5b8063a75fcb1e1461020a578063b061db941461023d578063b8489fb514610250578063bd85b0391461026357600080fd5b80632d4e1d52116100d35780632d4e1d52146101885780632eb2c2d6146101c25780634e1273f4146101d7578063a22cb465146101f757600080fd5b8062fdd58e146100f957806301ffc9a7146101375780630e89341c1461015a575b600080fd5b61012461010736600461121c565b600260209081526000928352604080842090915290825290205481565b6040519081526020015b60405180910390f35b61014a61014536600461125e565b6102ef565b604051901515815260200161012e565b61017b610168366004611282565b5060408051602081019091526000815290565b60405161012e919061129b565b6101246101963660046112f7565b600460209081526000948552604080862082529385528385208152918452828420909152825290205481565b6101d56101d03660046113d6565b61038c565b005b6101ea6101e5366004611495565b6104f7565b60405161012e9190611501565b6101d561020536600461155a565b61063d565b61014a61021836600461158f565b6000602081815293815260408082208552928152828120909352825290205460ff1681565b61012461024b3660046112f7565b6106a9565b6101d561025e3660046115d0565b610759565b610124610271366004611282565b60036020526000908152604090205481565b610296610291366004611282565b610821565b60405161012e9493929190611624565b61014a6102b4366004611669565b600160209081526000928352604080842090915290825290205460ff1681565b600554610124565b6101d56102ea3660046116a2565b61086b565b60006001600160e01b031982167f01ffc9a700000000000000000000000000000000000000000000000000000000148061035257507fd9b67a26000000000000000000000000000000000000000000000000000000006001600160e01b03198316145b8061038657507f0e89341c000000000000000000000000000000000000000000000000000000006001600160e01b03198316145b92915050565b8483146103e05760405162461bcd60e51b815260206004820152601860248201527f455243313135353a204c656e677468206d69736d61746368000000000000000060448201526064015b60405180910390fd5b6103ee8888888888886109b2565b6001600160a01b0387163b156104ed576040517fbc197c8100000000000000000000000000000000000000000000000000000000808252906001600160a01b0389169063bc197c81906104539033908d908c908c908c908c908c908c90600401611792565b6020604051808303816000875af1158015610472573d6000803e3d6000fd5b505050506040513d601f19601f8201168201806040525081019061049691906117f6565b6001600160e01b031916146104ed5760405162461bcd60e51b815260206004820152601260248201527f57726f6e672072657475726e2076616c7565000000000000000000000000000060448201526064016103d7565b5050505050505050565b6060838281146105495760405162461bcd60e51b815260206004820152601860248201527f455243313135353a204c656e677468206d69736d61746368000000000000000060448201526064016103d7565b8067ffffffffffffffff81111561056257610562611813565b60405190808252806020026020018201604052801561058b578160200160208202803683370190505b50915060005b8181101561063357600260008888848181106105af576105af611829565b90506020020160208101906105c4919061183f565b6001600160a01b03166001600160a01b0316815260200190815260200160002060008686848181106105f8576105f8611829565b9050602002013581526020019081526020016000205483828151811061062057610620611829565b6020908102919091010152600101610591565b5050949350505050565b3360008181526001602090815260408083206001600160a01b03871680855290835292819020805460ff191686151590811790915590519081529192917f17307eab39ab6107e8899845ad3d59bd9653f200f220920489ca2b5937696c31910160405180910390a35050565b600060018560048111156106bf576106bf61160e565b14806106dc575060028560048111156106da576106da61160e565b145b806106f8575060038560048111156106f6576106f661160e565b145b6107445760405162461bcd60e51b815260206004820152601f60248201527f41737365744d616e616765723a2063616e6e6f7420616464204e61746976650060448201526064016103d7565b61075085858585610b23565b95945050505050565b60055482106107aa5760405162461bcd60e51b815260206004820152601d60248201527f41737365744d616e616765723a206173736574206e6f742076616c696400000060448201526064016103d7565b336000818152602081815260408083206001600160a01b038816808552908352818420878552835292819020805460ff19168615159081179091558151878152928301529192917f6aceb1b079beeabdd8c2f30cd221ca27ec52e9d0aef6bb229cc175cf15dd778b910160405180910390a3505050565b6005818154811061083157600080fd5b600091825260209091206003909102018054600182015460029092015460ff821693506101009091046001600160a01b0390811692169084565b6001600160a01b03861660009081526020818152604080832033845282528083208784529091529020546108a390879060ff16611068565b6108af868686866110fe565b6001600160a01b0385163b156109aa576040517ff23a6e6100000000000000000000000000000000000000000000000000000000808252906001600160a01b0387169063f23a6e61906109109033908b908a908a908a908a9060040161185c565b6020604051808303816000875af115801561092f573d6000803e3d6000fd5b505050506040513d601f19601f8201168201806040525081019061095391906117f6565b6001600160e01b031916146109aa5760405162461bcd60e51b815260206004820152601260248201527f57726f6e672072657475726e2076616c7565000000000000000000000000000060448201526064016103d7565b505050505050565b6001600160a01b0385166109f75760405162461bcd60e51b815260206004820152600c60248201526b4e6f2030206164647265737360a01b60448201526064016103d7565b8260005b81811015610abe576000868683818110610a1757610a17611829565b9050602002013590506000858584818110610a3457610a34611829565b6001600160a01b038d16600090815260026020908152604080832088845282528220805493909102949094013594508493925090610a739084906118b7565b90915550506001600160a01b038916600090815260026020908152604080832085845290915281208054839290610aab9084906118ca565b9091555050600190920191506109fb9050565b50856001600160a01b0316876001600160a01b0316336001600160a01b03167f4a39dc06d4c0dbc64b70af90fd698a233a518aa5d07e595d983b8c0526c8f7fb88888888604051610b1294939291906118dd565b60405180910390a450505050505050565b600060046000866004811115610b3b57610b3b61160e565b6004811115610b4c57610b4c61160e565b8152602080820192909252604090810160009081206001600160a01b03808916835290845282822090871682528352818120858252909252812054915081900361106057811580610baf57506001856004811115610bac57610bac61160e565b14155b610bfb5760405162461bcd60e51b815260206004820152601e60248201527f5969656c64426f783a204e6f20746f6b656e496420666f72204552433230000060448201526064016103d7565b6000856004811115610c0f57610c0f61160e565b1480610d865750826001600160a01b03166330fa738c6040518163ffffffff1660e01b8152600401602060405180830381865afa158015610c54573d6000803e3d6000fd5b505050506040513d601f19601f82011682018060405250810190610c78919061190f565b6004811115610c8957610c8961160e565b856004811115610c9b57610c9b61160e565b148015610d1a5750826001600160a01b031663f6b4dfb46040518163ffffffff1660e01b8152600401602060405180830381865afa158015610ce1573d6000803e3d6000fd5b505050506040513d601f19601f82011682018060405250810190610d05919061192c565b6001600160a01b0316846001600160a01b0316145b8015610d865750826001600160a01b03166317d70f7c6040518163ffffffff1660e01b8152600401602060405180830381865afa158015610d5f573d6000803e3d6000fd5b505050506040513d601f19601f82011682018060405250810190610d839190611949565b82145b610dd25760405162461bcd60e51b815260206004820152601b60248201527f5969656c64426f783a205374726174656779206d69736d61746368000000000060448201526064016103d7565b6000856004811115610de657610de661160e565b148015610dfa57506001600160a01b038416155b80610e0e57506001600160a01b0384163b15155b610e5a5760405162461bcd60e51b815260206004820152601560248201527f5969656c64426f783a204e6f74206120746f6b656e000000000000000000000060448201526064016103d7565b600580549050905060056040518060800160405280876004811115610e8157610e8161160e565b81526001600160a01b038088166020808401919091529087166040830152606090910185905282546001818101855560009485529190932082516003909402018054929390929091839160ff191690836004811115610ee257610ee261160e565b0217905550602082015181547fffffffffffffffffffffff0000000000000000000000000000000000000000ff166101006001600160a01b039283160217825560408301516001830180547fffffffffffffffffffffffff0000000000000000000000000000000000000000169190921617905560609091015160029091015580600460008782811115610f7857610f7861160e565b6004811115610f8957610f8961160e565b8152602080820192909252604090810160009081206001600160a01b0389811683529084528282209088168252835281812086825283528181209390935580518281529182019290925282917f6bb7ff708619ba0610cba295a58592e0451dee2622938c8755667688daf3529b910160405180910390a281846001600160a01b031686600481111561101d5761101d61160e565b604080516001600160a01b0388168152602081018690527f30605d4cd099421ed12ca1ba642a1ea2659f679b5cdd0ccd032586640eeaff43910160405180910390a45b949350505050565b6001600160a01b03821633148061107c5750805b806110ae57506001600160a01b03821660009081526001602081815260408084203385529091529091205460ff161515145b6110fa5760405162461bcd60e51b815260206004820152601460248201527f5472616e73666572206e6f7420616c6c6f77656400000000000000000000000060448201526064016103d7565b5050565b6001600160a01b0383166111435760405162461bcd60e51b815260206004820152600c60248201526b4e6f2030206164647265737360a01b60448201526064016103d7565b6001600160a01b0384166000908152600260209081526040808320858452909152812080548392906111769084906118b7565b90915550506001600160a01b0383166000908152600260209081526040808320858452909152812080548392906111ae9084906118ca565b909155505060408051838152602081018390526001600160a01b03808616929087169133917fc3d58168c5ae7397731d063d5bbf3d657854427343f4c083240f7aacaa2d0f62910160405180910390a450505050565b6001600160a01b038116811461121957600080fd5b50565b6000806040838503121561122f57600080fd5b823561123a81611204565b946020939093013593505050565b6001600160e01b03198116811461121957600080fd5b60006020828403121561127057600080fd5b813561127b81611248565b9392505050565b60006020828403121561129457600080fd5b5035919050565b60006020808352835180602085015260005b818110156112c9578581018301518582016040015282016112ad565b506000604082860101526040601f19601f8301168501019250505092915050565b6005811061121957600080fd5b6000806000806080858703121561130d57600080fd5b8435611318816112ea565b9350602085013561132881611204565b9250604085013561133881611204565b9396929550929360600135925050565b60008083601f84011261135a57600080fd5b50813567ffffffffffffffff81111561137257600080fd5b6020830191508360208260051b850101111561138d57600080fd5b9250929050565b60008083601f8401126113a657600080fd5b50813567ffffffffffffffff8111156113be57600080fd5b60208301915083602082850101111561138d57600080fd5b60008060008060008060008060a0898b0312156113f257600080fd5b88356113fd81611204565b9750602089013561140d81611204565b9650604089013567ffffffffffffffff8082111561142a57600080fd5b6114368c838d01611348565b909850965060608b013591508082111561144f57600080fd5b61145b8c838d01611348565b909650945060808b013591508082111561147457600080fd5b506114818b828c01611394565b999c989b5096995094979396929594505050565b600080600080604085870312156114ab57600080fd5b843567ffffffffffffffff808211156114c357600080fd5b6114cf88838901611348565b909650945060208701359150808211156114e857600080fd5b506114f587828801611348565b95989497509550505050565b6020808252825182820181905260009190848201906040850190845b818110156115395783518352928401929184019160010161151d565b50909695505050505050565b8035801515811461155557600080fd5b919050565b6000806040838503121561156d57600080fd5b823561157881611204565b915061158660208401611545565b90509250929050565b6000806000606084860312156115a457600080fd5b83356115af81611204565b925060208401356115bf81611204565b929592945050506040919091013590565b6000806000606084860312156115e557600080fd5b83356115f081611204565b92506020840135915061160560408501611545565b90509250925092565b634e487b7160e01b600052602160045260246000fd5b608081016005861061164657634e487b7160e01b600052602160045260246000fd5b9481526001600160a01b0393841660208201529190921660408201526060015290565b6000806040838503121561167c57600080fd5b823561168781611204565b9150602083013561169781611204565b809150509250929050565b60008060008060008060a087890312156116bb57600080fd5b86356116c681611204565b955060208701356116d681611204565b94506040870135935060608701359250608087013567ffffffffffffffff81111561170057600080fd5b61170c89828a01611394565b979a9699509497509295939492505050565b81835260007f07ffffffffffffffffffffffffffffffffffffffffffffffffffffffffffffff83111561175057600080fd5b8260051b80836020870137939093016020019392505050565b81835281816020850137506000828201602090810191909152601f909101601f19169091010190565b60006001600160a01b03808b168352808a1660208401525060a060408301526117bf60a08301888a61171e565b82810360608401526117d281878961171e565b905082810360808401526117e7818587611769565b9b9a5050505050505050505050565b60006020828403121561180857600080fd5b815161127b81611248565b634e487b7160e01b600052604160045260246000fd5b634e487b7160e01b600052603260045260246000fd5b60006020828403121561185157600080fd5b813561127b81611204565b60006001600160a01b03808916835280881660208401525085604083015284606083015260a0608083015261189560a083018486611769565b98975050505050505050565b634e487b7160e01b600052601160045260246000fd5b81810381811115610386576103866118a1565b80820180821115610386576103866118a1565b6040815260006118f160408301868861171e565b828103602084015261190481858761171e565b979650505050505050565b60006020828403121561192157600080fd5b815161127b816112ea565b60006020828403121561193e57600080fd5b815161127b81611204565b60006020828403121561195b57600080fd5b505191905056fea2646970667358221220fd5408158fa5dd7f1365e8511a96968f8f41f94bb32388f95a4768dc650b104164736f6c63430008160033","linkReferences":{}},"methodIdentifiers":{"assetCount()":"eafe7a74","assets(uint256)":"cf35bdd0","balanceOf(address,uint256)":"00fdd58e","balanceOfBatch(address[],uint256[])":"4e1273f4","ids(uint8,address,address,uint256)":"2d4e1d52","isApprovedForAll(address,address)":"e985e9c5","isApprovedForAsset(address,address,uint256)":"a75fcb1e","registerAsset(uint8,address,address,uint256)":"b061db94","safeBatchTransferFrom(address,address,uint256[],uint256[],bytes)":"2eb2c2d6","safeTransferFrom(address,address,uint256,uint256,bytes)":"f242432a","setApprovalForAll(address,bool)":"a22cb465","setApprovalForAsset(address,uint256,bool)":"b8489fb5","supportsInterface(bytes4)":"01ffc9a7","totalSupply(uint256)":"bd85b039","uri(uint256)":"0e89341c"},"id":0}