{"abi":[{"type":"function","name":"balanceOf","inputs":[{"name":"","type":"address","internalType":"address"},{"name":"","type":"uint256","internalType":"uint256"}],"outputs":[{"name":"","type":"uint256","internalType":"uint256"}],"stateMutability":"view"},{"type":"function","name":"balanceOfBatch","inputs":[{"name":"owners","type":"address[]","internalType":"address[]"},{"name":"ids","type":"uint256[]","internalType":"uint256[]"}],"outputs":[{"name":"balances","type":"uint256[]","internalType":"uint256[]"}],"stateMutability":"view"},{"type":"function","name":"burn","inputs":[{"name":"from","type":"address","internalType":"address"},{"name":"id","type":"uint256","internalType":"uint256"},{"name":"amount","type":"uint256","internalType":"uint256"}],"outputs":[],"stateMutability":"nonpayable"},{"type":"function","name":"isApprovedForAll","inputs":[{"name":"","type":"address","internalType":"address"},{"name":"","type":"address","internalType":"address"}],"outputs":[{"name":"","type":"bool","internalType":"bool"}],"stateMutability":"view"},{"type":"function","name":"isApprovedForAsset","inputs":[{"name":"","type":"address","internalType":"address"},{"name":"","type":"address","internalType":"address"},{"name":"","type":"uint256","internalType":"uint256"}],"outputs":[{"name":"","type":"bool","internalType":"bool"}],"stateMutability":"view"},{"type":"function","name":"mint","inputs":[{"name":"to","type":"address","internalType":"address"},{"name":"id","type":"uint256","internalType":"uint256"},{"name":"amount","type":"uint256","internalType":"uint256"}],"outputs":[],"stateMutability":"nonpayable"},{"type":"function","name":"safeBatchTransferFrom","inputs":[{"name":"from","type":"address","internalType":"address"},{"name":"to","type":"address","internalType":"address"},{"name":"ids","type":"uint256[]","internalType":"uint256[]"},{"name":"values","type":"uint256[]","internalType":"uint256[]"},{"name":"data","type":"bytes","internalType":"bytes"}],"outputs":[],"stateMutability":"nonpayable"},{"type":"function","name":"safeTransferFrom","inputs":[{"name":"from","type":"address","internalType":"address"},{"name":"to","type":"address","internalType":"address"},{"name":"id","type":"uint256","internalType":"uint256"},{"name":"value","type":"uint256","internalType":"uint256"},{"name":"data","type":"bytes","internalType":"bytes"}],"outputs":[],"stateMutability":"nonpayable"},{"type":"function","name":"setApprovalForAll","inputs":[{"name":"operator","type":"address","internalType":"address"},{"name":"approved","type":"bool","internalType":"bool"}],"outputs":[],"stateMutability":"nonpayable"},{"type":"function","name":"supportsInterface","inputs":[{"name":"interfaceID","type":"bytes4","internalType":"bytes4"}],"outputs":[{"name":"","type":"bool","internalType":"bool"}],"stateMutability":"pure"},{"type":"function","name":"totalSupply","inputs":[{"name":"","type":"uint256","internalType":"uint256"}],"outputs":[{"name":"","type":"uint256","internalType":"uint256"}],"stateMutability":"view"},{"type":"function","name":"transferBatch","inputs":[{"name":"from","type":"address","internalType":"address"},{"name":"to","type":"address","internalType":"address"},{"name":"ids","type":"uint256[]","internalType":"uint256[]"},{"name":"values","type":"uint256[]","internalType":"uint256[]"}],"outputs":[],"stateMutability":"nonpayable"},{"type":"function","name":"transferSingle","inputs":[{"name":"from","type":"address","internalType":"address"},{"name":"to","type":"address","internalType":"address"},{"name":"id","type":"uint256","internalType":"uint256"},{"name":"value","type":"uint256","internalType":"uint256"}],"outputs":[],"stateMutability":"nonpayable"},{"type":"function","name":"uri","inputs":[{"name":"","type":"uint256","internalType":"uint256"}],"outputs":[{"name":"","type":"string","internalType":"string"}],"stateMutability":"view"},{"type":"event","name":"ApprovalForAll","inputs":[{"name":"_owner","type":"address","indexed":true,"internalType":"address"},{"name":"_operator","type":"address","indexed":true,"internalType":"address"},{"name":"_approved","type":"bool","indexed":false,"internalType":"bool"}],"anonymous":false},{"type":"event","name":"TransferBatch","inputs":[{"name":"_operator","type":"address","indexed":true,"internalType":"address"},{"name":"_from","type":"address","indexed":true,"internalType":"address"},{"name":"_to","type":"address","indexed":true,"internalType":"address"},{"name":"_ids","type":"uint256[]","indexed":false,"internalType":"uint256[]"},{"name":"_values","type":"uint256[]","indexed":false,"internalType":"uint256[]"}],"anonymous":false},{"type":"event","name":"TransferSingle","inputs":[{"name":"_operator","type":"address","indexed":true,"internalType":"address"},{"name":"_from","type":"address","indexed":true,"internalType":"address"},{"name":"_to","type":"address","indexed":true,"internalType":"address"},{"name":"_id","type":"uint256","indexed":false,"internalType":"uint256"},{"name":"_value","type":"uint256","indexed":false,"internalType":"uint256"}],"anonymous":false},{"type":"event","name":"URI","inputs":[{"name":"_value","type":"string","indexed":false,"internalType":"string"},{"name":"_id","type":"uint256","indexed":true,"internalType":"uint256"}],"anonymous":false}],"bytecode":{"object":"0x608060405234801561001057600080fd5b506113e3806100206000396000f3fe608060405234801561001057600080fd5b50600436106100e95760003560e01c80634e1273f41161008c578063bd85b03911610066578063bd85b03914610231578063e985e9c514610251578063f242432a1461027f578063f5298aca1461029257600080fd5b80634e1273f4146101cb578063a22cb465146101eb578063a75fcb1e146101fe57600080fd5b80630e89341c116100c85780630e89341c14610164578063156e29f6146101925780631aec811b146101a55780632eb2c2d6146101b857600080fd5b8062fdd58e146100ee57806301ffc9a71461012c5780630731a3691461014f575b600080fd5b6101196100fc366004610cdf565b600260209081526000928352604080842090915290825290205481565b6040519081526020015b60405180910390f35b61013f61013a366004610d22565b6102a5565b6040519015158152602001610123565b61016261015d366004610d92565b610342565b005b610185610172366004610e23565b5060408051602081019091526000815290565b6040516101239190610e3c565b6101626101a0366004610e8b565b610358565b6101626101b3366004610ebe565b610368565b6101626101c6366004610f42565b61037a565b6101de6101d9366004610ffd565b6104e5565b6040516101239190611069565b6101626101f93660046110ad565b61062b565b61013f61020c3660046110e9565b6000602081815293815260408082208552928152828120909352825290205460ff1681565b61011961023f366004610e23565b60036020526000908152604090205481565b61013f61025f366004611125565b600160209081526000928352604080842090915290825290205460ff1681565b61016261028d366004611158565b610697565b6101626102a0366004610e8b565b6107d6565b60006001600160e01b031982167f01ffc9a700000000000000000000000000000000000000000000000000000000148061030857507fd9b67a26000000000000000000000000000000000000000000000000000000006001600160e01b03198316145b8061033c57507f0e89341c000000000000000000000000000000000000000000000000000000006001600160e01b03198316145b92915050565b6103508686868686866107e1565b505050505050565b610363838383610952565b505050565b61037484848484610a41565b50505050565b8483146103ce5760405162461bcd60e51b815260206004820152601860248201527f455243313135353a204c656e677468206d69736d61746368000000000000000060448201526064015b60405180910390fd5b6103dc8888888888886107e1565b6001600160a01b0387163b156104db576040517fbc197c8100000000000000000000000000000000000000000000000000000000808252906001600160a01b0389169063bc197c81906104419033908d908c908c908c908c908c908c90600401611232565b6020604051808303816000875af1158015610460573d6000803e3d6000fd5b505050506040513d601f19601f820116820180604052508101906104849190611296565b6001600160e01b031916146104db5760405162461bcd60e51b815260206004820152601260248201527f57726f6e672072657475726e2076616c7565000000000000000000000000000060448201526064016103c5565b5050505050505050565b6060838281146105375760405162461bcd60e51b815260206004820152601860248201527f455243313135353a204c656e677468206d69736d61746368000000000000000060448201526064016103c5565b8067ffffffffffffffff811115610550576105506112b3565b604051908082528060200260200182016040528015610579578160200160208202803683370190505b50915060005b81811015610621576002600088888481811061059d5761059d6112c9565b90506020020160208101906105b291906112df565b6001600160a01b03166001600160a01b0316815260200190815260200160002060008686848181106105e6576105e66112c9565b9050602002013581526020019081526020016000205483828151811061060e5761060e6112c9565b602090810291909101015260010161057f565b5050949350505050565b3360008181526001602090815260408083206001600160a01b03871680855290835292819020805460ff191686151590811790915590519081529192917f17307eab39ab6107e8899845ad3d59bd9653f200f220920489ca2b5937696c31910160405180910390a35050565b6001600160a01b03861660009081526020818152604080832033845282528083208784529091529020546106cf90879060ff16610b47565b6106db86868686610a41565b6001600160a01b0385163b15610350576040517ff23a6e6100000000000000000000000000000000000000000000000000000000808252906001600160a01b0387169063f23a6e619061073c9033908b908a908a908a908a906004016112fa565b6020604051808303816000875af115801561075b573d6000803e3d6000fd5b505050506040513d601f19601f8201168201806040525081019061077f9190611296565b6001600160e01b031916146103505760405162461bcd60e51b815260206004820152601260248201527f57726f6e672072657475726e2076616c7565000000000000000000000000000060448201526064016103c5565b610363838383610bdd565b6001600160a01b0385166108265760405162461bcd60e51b815260206004820152600c60248201526b4e6f2030206164647265737360a01b60448201526064016103c5565b8260005b818110156108ed576000868683818110610846576108466112c9565b9050602002013590506000858584818110610863576108636112c9565b6001600160a01b038d166000908152600260209081526040808320888452825282208054939091029490940135945084939250906108a2908490611355565b90915550506001600160a01b0389166000908152600260209081526040808320858452909152812080548392906108da908490611368565b90915550506001909201915061082a9050565b50856001600160a01b0316876001600160a01b0316336001600160a01b03167f4a39dc06d4c0dbc64b70af90fd698a233a518aa5d07e595d983b8c0526c8f7fb88888888604051610941949392919061137b565b60405180910390a450505050505050565b6001600160a01b0383166109975760405162461bcd60e51b815260206004820152600c60248201526b4e6f2030206164647265737360a01b60448201526064016103c5565b6001600160a01b0383166000908152600260209081526040808320858452909152812080548392906109ca908490611368565b9091555050600082815260036020526040812080548392906109ed908490611368565b909155505060408051838152602081018390526001600160a01b0385169160009133917fc3d58168c5ae7397731d063d5bbf3d657854427343f4c083240f7aacaa2d0f6291015b60405180910390a4505050565b6001600160a01b038316610a865760405162461bcd60e51b815260206004820152600c60248201526b4e6f2030206164647265737360a01b60448201526064016103c5565b6001600160a01b038416600090815260026020908152604080832085845290915281208054839290610ab9908490611355565b90915550506001600160a01b038316600090815260026020908152604080832085845290915281208054839290610af1908490611368565b909155505060408051838152602081018390526001600160a01b03808616929087169133917fc3d58168c5ae7397731d063d5bbf3d657854427343f4c083240f7aacaa2d0f62910160405180910390a450505050565b6001600160a01b038216331480610b5b5750805b80610b8d57506001600160a01b03821660009081526001602081815260408084203385529091529091205460ff161515145b610bd95760405162461bcd60e51b815260206004820152601460248201527f5472616e73666572206e6f7420616c6c6f77656400000000000000000000000060448201526064016103c5565b5050565b6001600160a01b038316610c225760405162461bcd60e51b815260206004820152600c60248201526b4e6f2030206164647265737360a01b60448201526064016103c5565b6001600160a01b038316600090815260026020908152604080832085845290915281208054839290610c55908490611355565b909155505060008281526003602052604081208054839290610c78908490611355565b909155505060408051838152602081018390526000916001600160a01b0386169133917fc3d58168c5ae7397731d063d5bbf3d657854427343f4c083240f7aacaa2d0f629101610a34565b80356001600160a01b0381168114610cda57600080fd5b919050565b60008060408385031215610cf257600080fd5b610cfb83610cc3565b946020939093013593505050565b6001600160e01b031981168114610d1f57600080fd5b50565b600060208284031215610d3457600080fd5b8135610d3f81610d09565b9392505050565b60008083601f840112610d5857600080fd5b50813567ffffffffffffffff811115610d7057600080fd5b6020830191508360208260051b8501011115610d8b57600080fd5b9250929050565b60008060008060008060808789031215610dab57600080fd5b610db487610cc3565b9550610dc260208801610cc3565b9450604087013567ffffffffffffffff80821115610ddf57600080fd5b610deb8a838b01610d46565b90965094506060890135915080821115610e0457600080fd5b50610e1189828a01610d46565b979a9699509497509295939492505050565b600060208284031215610e3557600080fd5b5035919050565b60006020808352835180602085015260005b81811015610e6a57858101830151858201604001528201610e4e565b506000604082860101526040601f19601f8301168501019250505092915050565b600080600060608486031215610ea057600080fd5b610ea984610cc3565b95602085013595506040909401359392505050565b60008060008060808587031215610ed457600080fd5b610edd85610cc3565b9350610eeb60208601610cc3565b93969395505050506040820135916060013590565b60008083601f840112610f1257600080fd5b50813567ffffffffffffffff811115610f2a57600080fd5b602083019150836020828501011115610d8b57600080fd5b60008060008060008060008060a0898b031215610f5e57600080fd5b610f6789610cc3565b9750610f7560208a01610cc3565b9650604089013567ffffffffffffffff80821115610f9257600080fd5b610f9e8c838d01610d46565b909850965060608b0135915080821115610fb757600080fd5b610fc38c838d01610d46565b909650945060808b0135915080821115610fdc57600080fd5b50610fe98b828c01610f00565b999c989b5096995094979396929594505050565b6000806000806040858703121561101357600080fd5b843567ffffffffffffffff8082111561102b57600080fd5b61103788838901610d46565b9096509450602087013591508082111561105057600080fd5b5061105d87828801610d46565b95989497509550505050565b6020808252825182820181905260009190848201906040850190845b818110156110a157835183529284019291840191600101611085565b50909695505050505050565b600080604083850312156110c057600080fd5b6110c983610cc3565b9150602083013580151581146110de57600080fd5b809150509250929050565b6000806000606084860312156110fe57600080fd5b61110784610cc3565b925061111560208501610cc3565b9150604084013590509250925092565b6000806040838503121561113857600080fd5b61114183610cc3565b915061114f60208401610cc3565b90509250929050565b60008060008060008060a0878903121561117157600080fd5b61117a87610cc3565b955061118860208801610cc3565b94506040870135935060608701359250608087013567ffffffffffffffff8111156111b257600080fd5b610e1189828a01610f00565b81835260007f07ffffffffffffffffffffffffffffffffffffffffffffffffffffffffffffff8311156111f057600080fd5b8260051b80836020870137939093016020019392505050565b81835281816020850137506000828201602090810191909152601f909101601f19169091010190565b60006001600160a01b03808b168352808a1660208401525060a0604083015261125f60a08301888a6111be565b82810360608401526112728187896111be565b90508281036080840152611287818587611209565b9b9a5050505050505050505050565b6000602082840312156112a857600080fd5b8151610d3f81610d09565b634e487b7160e01b600052604160045260246000fd5b634e487b7160e01b600052603260045260246000fd5b6000602082840312156112f157600080fd5b610d3f82610cc3565b60006001600160a01b03808916835280881660208401525085604083015284606083015260a0608083015261133360a083018486611209565b98975050505050505050565b634e487b7160e01b600052601160045260246000fd5b8181038181111561033c5761033c61133f565b8082018082111561033c5761033c61133f565b60408152600061138f6040830186886111be565b82810360208401526113a28185876111be565b97965050505050505056fea2646970667358221220efccc094a90d868d3ff97264706237a561d807b2107b78e7da906009e18dd3d064736f6c63430008160033","linkReferences":{}},"methodIdentifiers":{"balanceOf(address,uint256)":"00fdd58e","balanceOfBatch(address[],uint256[])":"4e1273f4","burn(address,uint256,uint256)":"f5298aca","isApprovedForAll(address,address)":"e985e9c5","isApprovedForAsset(address,address,uint256)":"a75fcb1e","mint(address,uint256,uint256)":"156e29f6","safeBatchTransferFrom(address,address,uint256[],uint256[],bytes)":"2eb2c2d6","safeTransferFrom(address,address,uint256,uint256,bytes)":"f242432a","setApprovalForAll(address,bool)":"a22cb465","supportsInterface(bytes4)":"01ffc9a7","totalSupply(uint256)":"bd85b039","transferBatch(address,address,uint256[],uint256[])":"0731a369","transferSingle(address,address,uint256,uint256)":"1aec811b","uri(uint256)":"0e89341c"},"id":15}