{"abi":[{"type":"constructor","inputs":[{"name":"_yieldBox","type":"address","internalType":"contract YieldBox"}],"stateMutability":"nonpayable"},{"type":"function","name":"deposit","inputs":[{"name":"id","type":"uint256","internalType":"uint256"},{"name":"amount","type":"uint256","internalType":"uint256"}],"outputs":[],"stateMutability":"nonpayable"},{"type":"function","name":"init","inputs":[{"name":"","type":"bytes","internalType":"bytes"}],"outputs":[],"stateMutability":"payable"},{"type":"function","name":"setApproval","inputs":[],"outputs":[],"stateMutability":"nonpayable"},{"type":"function","name":"yieldBox","inputs":[],"outputs":[{"name":"","type":"address","internalType":"contract YieldBox"}],"stateMutability":"view"}],"bytecode":{"object":"0x60a060405234801561001057600080fd5b506040516103e23803806103e283398101604081905261002f91610040565b6001600160a01b0316608052610070565b60006020828403121561005257600080fd5b81516001600160a01b038116811461006957600080fd5b9392505050565b60805161034a61009860003960008181606a0152818161011f01526101db015261034a6000f3fe60806040526004361061003f5760003560e01c80634ddf47d414610044578063de40657714610058578063e18c6b19146100b5578063e2bbb158146100ca575b600080fd5b61005661005236600461025c565b5050565b005b34801561006457600080fd5b5061008c7f000000000000000000000000000000000000000000000000000000000000000081565b60405173ffffffffffffffffffffffffffffffffffffffff909116815260200160405180910390f35b3480156100c157600080fd5b506100566100ea565b3480156100d657600080fd5b506100566100e53660046102ce565b610192565b6040517fa22cb465000000000000000000000000000000000000000000000000000000008152336004820152600160248201527f000000000000000000000000000000000000000000000000000000000000000073ffffffffffffffffffffffffffffffffffffffff169063a22cb46590604401600060405180830381600087803b15801561017857600080fd5b505af115801561018c573d6000803e3d6000fd5b50505050565b6040517f9a9af97a0000000000000000000000000000000000000000000000000000000081526004810183905233602482015230604482015260006064820152608481018290527f000000000000000000000000000000000000000000000000000000000000000073ffffffffffffffffffffffffffffffffffffffff1690639a9af97a9060a40160408051808303816000875af1158015610238573d6000803e3d6000fd5b505050506040513d601f19601f8201168201806040525081019061018c91906102f0565b6000806020838503121561026f57600080fd5b823567ffffffffffffffff8082111561028757600080fd5b818501915085601f83011261029b57600080fd5b8135818111156102aa57600080fd5b8660208285010111156102bc57600080fd5b60209290920196919550909350505050565b600080604083850312156102e157600080fd5b50508035926020909101359150565b6000806040838503121561030357600080fd5b50508051602090910151909290915056fea26469706673582212208bbce7e489612931a352f9b89f660b1c5b31337993f1ff8c4692a61550748ade64736f6c63430008160033","linkReferences":{}},"methodIdentifiers":{"deposit(uint256,uint256)":"e2bbb158","init(bytes)":"4ddf47d4","setApproval()":"e18c6b19","yieldBox()":"de406577"},"id":25}