{"abi":[{"type":"function","name":"attack","inputs":[{"name":"yieldBox","type":"address","internalType":"contract YieldBox"}],"outputs":[],"stateMutability":"nonpayable"},{"type":"function","name":"init","inputs":[{"name":"","type":"bytes","internalType":"bytes"}],"outputs":[],"stateMutability":"payable"}],"bytecode":{"object":"0x608060405234801561001057600080fd5b506101cb806100206000396000f3fe6080604052600436106100295760003560e01c80634ddf47d41461002e578063d018db3e14610042575b600080fd5b61004061003c3660046100e6565b5050565b005b34801561004e57600080fd5b5061004061005d366004610158565b6040517fa22cb4650000000000000000000000000000000000000000000000000000000081523060048201526001602482015273ffffffffffffffffffffffffffffffffffffffff82169063a22cb46590604401600060405180830381600087803b1580156100cb57600080fd5b505af11580156100df573d6000803e3d6000fd5b5050505050565b600080602083850312156100f957600080fd5b823567ffffffffffffffff8082111561011157600080fd5b818501915085601f83011261012557600080fd5b81358181111561013457600080fd5b86602082850101111561014657600080fd5b60209290920196919550909350505050565b60006020828403121561016a57600080fd5b813573ffffffffffffffffffffffffffffffffffffffff8116811461018e57600080fd5b939250505056fea26469706673582212203a736aa0f6e00cbe0c96f59b4203b034f86ec37aeb380b9222cfb2bf7f1dbbe864736f6c63430008160033","linkReferences":{}},"methodIdentifiers":{"attack(address)":"d018db3e","init(bytes)":"4ddf47d4"},"id":23}