{"abi":[{"type":"constructor","inputs":[{"name":"_yieldBox","type":"address","internalType":"contract YieldBox"}],"stateMutability":"nonpayable"},{"type":"function","name":"available","inputs":[{"name":"salaryId","type":"uint256","internalType":"uint256"}],"outputs":[{"name":"share","type":"uint256","internalType":"uint256"}],"stateMutability":"view"},{"type":"function","name":"batch","inputs":[{"name":"calls","type":"bytes[]","internalType":"bytes[]"},{"name":"revertOnFail","type":"bool","internalType":"bool"}],"outputs":[],"stateMutability":"payable"},{"type":"function","name":"cancel","inputs":[{"name":"salaryId","type":"uint256","internalType":"uint256"},{"name":"to","type":"address","internalType":"address"}],"outputs":[],"stateMutability":"nonpayable"},{"type":"function","name":"create","inputs":[{"name":"recipient","type":"address","internalType":"address"},{"name":"assetId","type":"uint256","internalType":"uint256"},{"name":"cliffTimestamp","type":"uint32","internalType":"uint32"},{"name":"endTimestamp","type":"uint32","internalType":"uint32"},{"name":"cliffPercent","type":"uint32","internalType":"uint32"},{"name":"amount","type":"uint128","internalType":"uint128"}],"outputs":[{"name":"salaryId","type":"uint256","internalType":"uint256"},{"name":"share","type":"uint256","internalType":"uint256"}],"stateMutability":"nonpayable"},{"type":"function","name":"info","inputs":[{"name":"salaryId","type":"uint256","internalType":"uint256"}],"outputs":[{"name":"funder","type":"address","internalType":"address"},{"name":"recipient","type":"address","internalType":"address"},{"name":"assetId","type":"uint256","internalType":"uint256"},{"name":"withdrawnAmount","type":"uint256","internalType":"uint256"},{"name":"cliffTimestamp","type":"uint32","internalType":"uint32"},{"name":"endTimestamp","type":"uint32","internalType":"uint32"},{"name":"cliffPercent","type":"uint64","internalType":"uint64"},{"name":"amount","type":"uint256","internalType":"uint256"},{"name":"availableAmount","type":"uint256","internalType":"uint256"}],"stateMutability":"view"},{"type":"function","name":"permitToken","inputs":[{"name":"token","type":"address","internalType":"contract IERC20"},{"name":"from","type":"address","internalType":"address"},{"name":"to","type":"address","internalType":"address"},{"name":"amount","type":"uint256","internalType":"uint256"},{"name":"deadline","type":"uint256","internalType":"uint256"},{"name":"v","type":"uint8","internalType":"uint8"},{"name":"r","type":"bytes32","internalType":"bytes32"},{"name":"s","type":"bytes32","internalType":"bytes32"}],"outputs":[],"stateMutability":"nonpayable"},{"type":"function","name":"salaries","inputs":[{"name":"","type":"uint256","internalType":"uint256"}],"outputs":[{"name":"funder","type":"address","internalType":"address"},{"name":"recipient","type":"address","internalType":"address"},{"name":"assetId","type":"uint256","internalType":"uint256"},{"name":"withdrawnShare","type":"uint256","internalType":"uint256"},{"name":"cliffTimestamp","type":"uint32","internalType":"uint32"},{"name":"endTimestamp","type":"uint32","internalType":"uint32"},{"name":"cliffPercent","type":"uint64","internalType":"uint64"},{"name":"share","type":"uint256","internalType":"uint256"}],"stateMutability":"view"},{"type":"function","name":"salaryCount","inputs":[],"outputs":[{"name":"","type":"uint256","internalType":"uint256"}],"stateMutability":"view"},{"type":"function","name":"withdraw","inputs":[{"name":"salaryId","type":"uint256","internalType":"uint256"},{"name":"to","type":"address","internalType":"address"}],"outputs":[],"stateMutability":"nonpayable"},{"type":"function","name":"yieldBox","inputs":[],"outputs":[{"name":"","type":"address","internalType":"contract YieldBox"}],"stateMutability":"view"},{"type":"event","name":"LogCancel","inputs":[{"name":"salaryId","type":"uint256","indexed":true,"internalType":"uint256"},{"name":"to","type":"address","indexed":true,"internalType":"address"},{"name":"share","type":"uint256","indexed":false,"internalType":"uint256"}],"anonymous":false},{"type":"event","name":"LogCreate","inputs":[{"name":"funder","type":"address","indexed":true,"internalType":"address"},{"name":"recipient","type":"address","indexed":true,"internalType":"address"},{"name":"assetId","type":"uint256","indexed":true,"internalType":"uint256"},{"name":"cliffTimestamp","type":"uint32","indexed":false,"internalType":"uint32"},{"name":"endTimestamp","type":"uint32","indexed":false,"internalType":"uint32"},{"name":"cliffPercent","type":"uint32","indexed":false,"internalType":"uint32"},{"name":"totalShare","type":"uint256","indexed":false,"internalType":"uint256"},{"name":"salaryId","type":"uint256","indexed":false,"internalType":"uint256"}],"anonymous":false},{"type":"event","name":"LogWithdraw","inputs":[{"name":"salaryId","type":"uint256","indexed":true,"internalType":"uint256"},{"name":"to","type":"address","indexed":true,"internalType":"address"},{"name":"share","type":"uint256","indexed":false,"internalType":"uint256"}],"anonymous":false}],"bytecode":{"object":"0x608060405234801561001057600080fd5b5060405161186538038061186583398101604081905261002f91610054565b600080546001600160a01b0319166001600160a01b0392909216919091179055610084565b60006020828403121561006657600080fd5b81516001600160a01b038116811461007d57600080fd5b9392505050565b6117d2806100936000396000f3fe6080604052600436106100b05760003560e01c80639215589811610069578063b10ba65e1161004e578063b10ba65e14610253578063d2423b5114610288578063de4065771461029b57600080fd5b8063921558981461021457806396e494e81461023357600080fd5b806357d682c41161009a57806357d682c41461015b578063610addba1461017b5780637c516e94146101f457600080fd5b8062f714ce146100b55780632e340599146100d7575b600080fd5b3480156100c157600080fd5b506100d56100d036600461133d565b6102d3565b005b3480156100e357600080fd5b506100f76100f236600461136d565b61036d565b604080516001600160a01b039a8b1681529990981660208a015296880195909552606087019390935263ffffffff91821660808701521660a085015267ffffffffffffffff1660c084015260e0830152610100820152610120015b60405180910390f35b34801561016757600080fd5b506100d561017636600461133d565b6107c1565b34801561018757600080fd5b5061019b61019636600461136d565b6109da565b604080516001600160a01b03998a16815298909716602089015295870194909452606086019290925263ffffffff90811660808601521660a084015267ffffffffffffffff1660c083015260e082015261010001610152565b34801561020057600080fd5b506100d561020f366004611386565b610a5a565b34801561022057600080fd5b506001545b604051908152602001610152565b34801561023f57600080fd5b5061022561024e36600461136d565b610b05565b34801561025f57600080fd5b5061027361026e366004611428565b610b23565b60408051928352602083019190915201610152565b6100d56102963660046114b0565b610fb7565b3480156102a757600080fd5b506000546102bb906001600160a01b031681565b6040516001600160a01b039091168152602001610152565b336001600160a01b0316600183815481106102f0576102f061153b565b60009182526020909120600160069092020101546001600160a01b03161461035f5760405162461bcd60e51b815260206004820152601560248201527f53616c6172793a206e6f7420726563697069656e74000000000000000000000060448201526064015b60405180910390fd5b610369828261107f565b5050565b600080600080600080600080600060018a8154811061038e5761038e61153b565b6000918252602090912060069091020154600180546001600160a01b039092169a50908b9081106103c1576103c161153b565b60009182526020909120600160069092020181015481546001600160a01b0390911699508b9081106103f5576103f561153b565b906000526020600020906006020160020154965060018a8154811061041c5761041c61153b565b906000526020600020906006020160040160009054906101000a900463ffffffff16945060018a815481106104535761045361153b565b906000526020600020906006020160040160049054906101000a900463ffffffff16935060018a8154811061048a5761048a61153b565b906000526020600020906006020160040160089054906101000a900467ffffffffffffffff16925060008054906101000a90046001600160a01b03166001600160a01b031663442c159960018c815481106104e7576104e761153b565b90600052602060002090600602016002015460018d8154811061050c5761050c61153b565b600091825260208220600560069092020101546040516001600160e01b031960e086901b168152600481019390935260248301526044820152606401602060405180830381865afa158015610565573d6000803e3d6000fd5b505050506040513d601f19601f820116820180604052508101906105899190611551565b600054600180549294506001600160a01b039091169163442c159991908d9081106105b6576105b661153b565b90600052602060002090600602016002015460018d815481106105db576105db61153b565b600091825260208220600360069092020101546040516001600160e01b031960e086901b168152600481019390935260248301526044820152606401602060405180830381865afa158015610634573d6000803e3d6000fd5b505050506040513d601f19601f820116820180604052508101906106589190611551565b600054600180549298506001600160a01b039091169163442c159991908d9081106106855761068561153b565b90600052602060002090600602016002015461074660018e815481106106ad576106ad61153b565b60009182526020918290206040805161010081018252600690930290910180546001600160a01b0390811684526001820154169383019390935260028301549082015260038201546060820152600482015463ffffffff808216608084015264010000000082041660a083015267ffffffffffffffff680100000000000000009091041660c082015260059091015460e08201526111cb565b6040516001600160e01b031960e085901b1681526004810192909252602482015260006044820152606401602060405180830381865afa15801561078e573d6000803e3d6000fd5b505050506040513d601f19601f820116820180604052508101906107b29190611551565b90509193959799909294969850565b81336001600160a01b0316600182815481106107df576107df61153b565b60009182526020909120600690910201546001600160a01b0316146108465760405162461bcd60e51b815260206004820152601260248201527f53616c6172793a206e6f742066756e64657200000000000000000000000000006044820152606401610356565b61087f836001858154811061085d5761085d61153b565b60009182526020909120600160069092020101546001600160a01b031661107f565b6000600184815481106108945761089461153b565b906000526020600020906006020160030154600185815481106108b9576108b961153b565b9060005260206000209060060201600501546108d59190611580565b905060008054906101000a90046001600160a01b03166001600160a01b0316630411b25230856001888154811061090e5761090e61153b565b60009182526020909120600260069092020101546040516001600160e01b031960e086901b1681526001600160a01b039384166004820152929091166024830152604482015260648101849052608401600060405180830381600087803b15801561097857600080fd5b505af115801561098c573d6000803e3d6000fd5b50505050826001600160a01b0316847fcabe9e1784950547285194bcd0e3c0fc267db2c6c6b7e6a913ab88754f9fb3a5836040516109cc91815260200190565b60405180910390a350505050565b600181815481106109ea57600080fd5b60009182526020909120600690910201805460018201546002830154600384015460048501546005909501546001600160a01b0394851696509390921693909263ffffffff808316926401000000008104909116916801000000000000000090910467ffffffffffffffff169088565b6040517fd505accf0000000000000000000000000000000000000000000000000000000081526001600160a01b0388811660048301528781166024830152604482018790526064820186905260ff8516608483015260a4820184905260c4820183905289169063d505accf9060e401600060405180830381600087803b158015610ae357600080fd5b505af1158015610af7573d6000803e3d6000fd5b505050505050505050505050565b6000610b1d600183815481106106ad576106ad61153b565b92915050565b6000808463ffffffff168663ffffffff161115610b825760405162461bcd60e51b815260206004820152601360248201527f53616c6172793a20636c696666203e20656e64000000000000000000000000006044820152606401610356565b670de0b6b3a76400008463ffffffff161115610be05760405162461bcd60e51b815260206004820152601760248201527f53616c6172793a20636c69666620746f6f206c617267650000000000000000006044820152606401610356565b600080546040517f8eb22cdd000000000000000000000000000000000000000000000000000000008152600481018a90526fffffffffffffffffffffffffffffffff8616602482015260448101929092526001600160a01b031690638eb22cdd90606401602060405180830381865afa158015610c61573d6000803e3d6000fd5b505050506040513d601f19601f82011682018060405250810190610c859190611551565b6000546040517f0411b252000000000000000000000000000000000000000000000000000000008152336004820152306024820152604481018a9052606481018390529192506001600160a01b031690630411b25290608401600060405180830381600087803b158015610cf857600080fd5b505af1158015610d0c573d6000803e3d6000fd5b50506001546040805161010081018252600080825260208201819052918101829052606081018290526080810182905260a0810182905260c0810182905260e08101919091529094509150610d5e9050565b338082526001600160a01b038a81166020840181815260408086018d815263ffffffff808e16608089019081528d821660a08a019081528d831660c08b0190815260e08b018c81526001805480820182556000919091528c5160069091027fb10e2d527612073b26eecdfd717e6a320cf44b4afac2b0732d9fcbe2b7fa0cf681018054928d167fffffffffffffffffffffffff000000000000000000000000000000000000000093841617905598517fb10e2d527612073b26eecdfd717e6a320cf44b4afac2b0732d9fcbe2b7fa0cf78a01805491909c1691161790995593517fb10e2d527612073b26eecdfd717e6a320cf44b4afac2b0732d9fcbe2b7fa0cf887015560608a01517fb10e2d527612073b26eecdfd717e6a320cf44b4afac2b0732d9fcbe2b7fa0cf987015590517fb10e2d527612073b26eecdfd717e6a320cf44b4afac2b0732d9fcbe2b7fa0cfa860180549251945167ffffffffffffffff1668010000000000000000027fffffffffffffffffffffffffffffffff0000000000000000ffffffffffffffff9585166401000000000267ffffffffffffffff199094169290941691909117919091179290921617905592517fb10e2d527612073b26eecdfd717e6a320cf44b4afac2b0732d9fcbe2b7fa0cfb9091015590518a92907f566fadf304d912585711774a94350d1323ff36f50cf3ed054a60f76d1695473590610fa3908c908c908c908a908c9063ffffffff958616815293851660208501529190931660408301526060820192909252608081019190915260a00190565b60405180910390a450965096945050505050565b60005b828110156110795760008030868685818110610fd857610fd861153b565b9050602002810190610fea9190611593565b604051610ff89291906115e1565b600060405180830381855af49150503d8060008114611033576040519150601f19603f3d011682016040523d82523d6000602084013e611038565b606091505b5091509150811580156110485750835b1561106f57611056816112c6565b60405162461bcd60e51b81526004016103569190611615565b5050600101610fba565b50505050565b6000611097600184815481106106ad576106ad61153b565b905080600184815481106110ad576110ad61153b565b906000526020600020906006020160030160008282546110cd9190611648565b9091555050600054600180546001600160a01b0390921691630411b252913091869190889081106111005761110061153b565b60009182526020909120600260069092020101546040516001600160e01b031960e086901b1681526001600160a01b039384166004820152929091166024830152604482015260648101849052608401600060405180830381600087803b15801561116a57600080fd5b505af115801561117e573d6000803e3d6000fd5b50505050816001600160a01b0316837f125e889e0ad284210ec4c8448f648c2a782a6d7f2f9d607aefd518485a78c7f4836040516111be91815260200190565b60405180910390a3505050565b6000816080015163ffffffff164210156111e7575060006112b7565b8160a0015163ffffffff164210611203575060e08101516112b7565b6000826080015163ffffffff164261121b9190611580565b9050600083608001518460a00151611233919061165b565b60c085015163ffffffff91909116915067ffffffffffffffff1682156112955760008560c001516064611266919061167f565b67ffffffffffffffff1690508261127d85836116a0565b61128791906116b7565b6112919083611648565b9150505b6064818660e001516112a791906116a0565b6112b191906116b7565b93505050505b6060820151610b1d9082611580565b606060448251101561130b57505060408051808201909152601d81527f5472616e73616374696f6e2072657665727465642073696c656e746c79000000602082015290565b60048201915081806020019051810190610b1d91906116ef565b6001600160a01b038116811461133a57600080fd5b50565b6000806040838503121561135057600080fd5b82359150602083013561136281611325565b809150509250929050565b60006020828403121561137f57600080fd5b5035919050565b600080600080600080600080610100898b0312156113a357600080fd5b88356113ae81611325565b975060208901356113be81611325565b965060408901356113ce81611325565b9550606089013594506080890135935060a089013560ff811681146113f257600080fd5b979a969950949793969295929450505060c08201359160e0013590565b803563ffffffff8116811461142357600080fd5b919050565b60008060008060008060c0878903121561144157600080fd5b863561144c81611325565b9550602087013594506114616040880161140f565b935061146f6060880161140f565b925061147d6080880161140f565b915060a08701356fffffffffffffffffffffffffffffffff811681146114a257600080fd5b809150509295509295509295565b6000806000604084860312156114c557600080fd5b833567ffffffffffffffff808211156114dd57600080fd5b818601915086601f8301126114f157600080fd5b81358181111561150057600080fd5b8760208260051b850101111561151557600080fd5b60209283019550935050840135801515811461153057600080fd5b809150509250925092565b634e487b7160e01b600052603260045260246000fd5b60006020828403121561156357600080fd5b5051919050565b634e487b7160e01b600052601160045260246000fd5b81810381811115610b1d57610b1d61156a565b6000808335601e198436030181126115aa57600080fd5b83018035915067ffffffffffffffff8211156115c557600080fd5b6020019150368190038213156115da57600080fd5b9250929050565b8183823760009101908152919050565b60005b8381101561160c5781810151838201526020016115f4565b50506000910152565b60208152600082518060208401526116348160408501602087016115f1565b601f01601f19169190910160400192915050565b80820180821115610b1d57610b1d61156a565b63ffffffff8281168282160390808211156116785761167861156a565b5092915050565b67ffffffffffffffff8281168282160390808211156116785761167861156a565b8082028115828204841417610b1d57610b1d61156a565b6000826116d457634e487b7160e01b600052601260045260246000fd5b500490565b634e487b7160e01b600052604160045260246000fd5b60006020828403121561170157600080fd5b815167ffffffffffffffff8082111561171957600080fd5b818401915084601f83011261172d57600080fd5b81518181111561173f5761173f6116d9565b604051601f8201601f19908116603f01168101908382118183101715611767576117676116d9565b8160405282815287602084870101111561178057600080fd5b6117918360208301602088016115f1565b97965050505050505056fea2646970667358221220093b0f4758b5b085ee261f83d1a4c7be03d3d9fff58f31c97c68dd99db22641664736f6c63430008160033","linkReferences":{}},"methodIdentifiers":{"available(uint256)":"96e494e8","batch(bytes[],bool)":"d2423b51","cancel(uint256,address)":"57d682c4","create(address,uint256,uint32,uint32,uint32,uint128)":"b10ba65e","info(uint256)":"2e340599","permitToken(address,address,address,uint256,uint256,uint8,bytes32,bytes32)":"7c516e94","salaries(uint256)":"610addba","salaryCount()":"92155898","withdraw(uint256,address)":"00f714ce","yieldBox()":"de406577"},"id":40}