{"abi":[{"type":"constructor","inputs":[{"name":"yieldBox_","type":"address","internalType":"contract YieldBox"}],"stateMutability":"nonpayable"},{"type":"function","name":"accrue","inputs":[{"name":"marketId","type":"uint256","internalType":"uint256"}],"outputs":[],"stateMutability":"nonpayable"},{"type":"function","name":"addAsset","inputs":[{"name":"marketId","type":"uint256","internalType":"uint256"},{"name":"to","type":"address","internalType":"address"},{"name":"share","type":"uint256","internalType":"uint256"}],"outputs":[{"name":"fraction","type":"uint256","internalType":"uint256"}],"stateMutability":"nonpayable"},{"type":"function","name":"addCollateral","inputs":[{"name":"marketId","type":"uint256","internalType":"uint256"},{"name":"to","type":"address","internalType":"address"},{"name":"share","type":"uint256","internalType":"uint256"}],"outputs":[],"stateMutability":"nonpayable"},{"type":"function","name":"borrow","inputs":[{"name":"marketId","type":"uint256","internalType":"uint256"},{"name":"to","type":"address","internalType":"address"},{"name":"amount","type":"uint256","internalType":"uint256"}],"outputs":[{"name":"part","type":"uint256","internalType":"uint256"},{"name":"share","type":"uint256","internalType":"uint256"}],"stateMutability":"nonpayable"},{"type":"function","name":"createMarket","inputs":[{"name":"collateral_","type":"uint32","internalType":"uint32"},{"name":"asset_","type":"uint32","internalType":"uint32"},{"name":"oracle_","type":"address","internalType":"contract IOracle"},{"name":"oracleData_","type":"bytes","internalType":"bytes"}],"outputs":[],"stateMutability":"nonpayable"},{"type":"function","name":"init","inputs":[{"name":"","type":"bytes","internalType":"bytes"}],"outputs":[],"stateMutability":"payable"},{"type":"function","name":"liquidate","inputs":[{"name":"marketId","type":"uint256","internalType":"uint256"},{"name":"user","type":"address","internalType":"address"},{"name":"maxBorrowPart","type":"uint256","internalType":"uint256"},{"name":"to","type":"address","internalType":"address"},{"name":"swapper","type":"address","internalType":"contract ISwapper"}],"outputs":[],"stateMutability":"nonpayable"},{"type":"function","name":"marketList","inputs":[{"name":"","type":"uint256","internalType":"uint256"}],"outputs":[{"name":"","type":"uint256","internalType":"uint256"}],"stateMutability":"view"},{"type":"function","name":"markets","inputs":[{"name":"","type":"uint256","internalType":"uint256"}],"outputs":[{"name":"collateral","type":"uint32","internalType":"uint32"},{"name":"asset","type":"uint32","internalType":"uint32"},{"name":"oracle","type":"address","internalType":"contract IOracle"},{"name":"oracleData","type":"bytes","internalType":"bytes"},{"name":"totalCollateralShare","type":"uint256","internalType":"uint256"},{"name":"totalAssetShares","type":"uint256","internalType":"uint256"},{"name":"totalBorrow","type":"tuple","internalType":"struct Rebase","components":[{"name":"elastic","type":"uint128","internalType":"uint128"},{"name":"base","type":"uint128","internalType":"uint128"}]},{"name":"exchangeRate","type":"uint256","internalType":"uint256"},{"name":"interestPerSecond","type":"uint64","internalType":"uint64"},{"name":"lastAccrued","type":"uint64","internalType":"uint64"},{"name":"assetId","type":"uint32","internalType":"uint32"}],"stateMutability":"view"},{"type":"function","name":"masterContract","inputs":[],"outputs":[{"name":"","type":"address","internalType":"contract LendingPair"}],"stateMutability":"view"},{"type":"function","name":"removeAsset","inputs":[{"name":"marketId","type":"uint256","internalType":"uint256"},{"name":"to","type":"address","internalType":"address"},{"name":"fraction","type":"uint256","internalType":"uint256"}],"outputs":[{"name":"share","type":"uint256","internalType":"uint256"}],"stateMutability":"nonpayable"},{"type":"function","name":"removeCollateral","inputs":[{"name":"marketId","type":"uint256","internalType":"uint256"},{"name":"to","type":"address","internalType":"address"},{"name":"share","type":"uint256","internalType":"uint256"}],"outputs":[],"stateMutability":"nonpayable"},{"type":"function","name":"repay","inputs":[{"name":"marketId","type":"uint256","internalType":"uint256"},{"name":"to","type":"address","internalType":"address"},{"name":"part","type":"uint256","internalType":"uint256"}],"outputs":[{"name":"amount","type":"uint256","internalType":"uint256"}],"stateMutability":"nonpayable"},{"type":"function","name":"updateExchangeRate","inputs":[{"name":"marketId","type":"uint256","internalType":"uint256"}],"outputs":[{"name":"updated","type":"bool","internalType":"bool"},{"name":"rate","type":"uint256","internalType":"uint256"}],"stateMutability":"nonpayable"},{"type":"function","name":"yieldBox","inputs":[],"outputs":[{"name":"","type":"address","internalType":"contract YieldBox"}],"stateMutability":"view"},{"type":"event","name":"LogAccrue","inputs":[{"name":"accruedAmount","type":"uint256","indexed":false,"internalType":"uint256"},{"name":"rate","type":"uint64","indexed":false,"internalType":"uint64"},{"name":"utilization","type":"uint256","indexed":false,"internalType":"uint256"}],"anonymous":false},{"type":"event","name":"LogAddAsset","inputs":[{"name":"from","type":"address","indexed":true,"internalType":"address"},{"name":"to","type":"address","indexed":true,"internalType":"address"},{"name":"share","type":"uint256","indexed":false,"internalType":"uint256"},{"name":"fraction","type":"uint256","indexed":false,"internalType":"uint256"}],"anonymous":false},{"type":"event","name":"LogAddCollateral","inputs":[{"name":"from","type":"address","indexed":true,"internalType":"address"},{"name":"to","type":"address","indexed":true,"internalType":"address"},{"name":"share","type":"uint256","indexed":false,"internalType":"uint256"}],"anonymous":false},{"type":"event","name":"LogBorrow","inputs":[{"name":"from","type":"address","indexed":true,"internalType":"address"},{"name":"to","type":"address","indexed":true,"internalType":"address"},{"name":"amount","type":"uint256","indexed":false,"internalType":"uint256"},{"name":"part","type":"uint256","indexed":false,"internalType":"uint256"}],"anonymous":false},{"type":"event","name":"LogExchangeRate","inputs":[{"name":"rate","type":"uint256","indexed":false,"internalType":"uint256"}],"anonymous":false},{"type":"event","name":"LogLiquidate","inputs":[{"name":"marketId","type":"uint256","indexed":true,"internalType":"uint256"},{"name":"user","type":"address","indexed":true,"internalType":"address"},{"name":"borrowPart","type":"uint256","indexed":false,"internalType":"uint256"},{"name":"to","type":"address","indexed":false,"internalType":"address"},{"name":"swapper","type":"address","indexed":false,"internalType":"contract ISwapper"}],"anonymous":false},{"type":"event","name":"LogRemoveAsset","inputs":[{"name":"from","type":"address","indexed":true,"internalType":"address"},{"name":"to","type":"address","indexed":true,"internalType":"address"},{"name":"share","type":"uint256","indexed":false,"internalType":"uint256"},{"name":"fraction","type":"uint256","indexed":false,"internalType":"uint256"}],"anonymous":false},{"type":"event","name":"LogRemoveCollateral","inputs":[{"name":"from","type":"address","indexed":true,"internalType":"address"},{"name":"to","type":"address","indexed":true,"internalType":"address"},{"name":"share","type":"uint256","indexed":false,"internalType":"uint256"}],"anonymous":false},{"type":"event","name":"LogRepay","inputs":[{"name":"from","type":"address","indexed":true,"internalType":"address"},{"name":"to","type":"address","indexed":true,"internalType":"address"},{"name":"amount","type":"uint256","indexed":false,"internalType":"uint256"},{"name":"part","type":"uint256","indexed":false,"internalType":"uint256"}],"anonymous":false}],"bytecode":{"object":"0x60c06040523480156200001157600080fd5b50604051620036423803806200364283398101604081905262000034916200004a565b6001600160a01b03166080523060a0526200007c565b6000602082840312156200005d57600080fd5b81516001600160a01b03811681146200007557600080fd5b9392505050565b60805160a0516134d56200016d600039600061028a0152600081816102f60152818161062501528181610aec01528181610dab01528181610e2201528181610fe20152818161132a015281816113c20152818161150001528181611592015281816118a7015281816119ef01528181611b9601528181611c2e01528181611d4201528181611e7801528181611f26015281816121540152818161231e015281816123a701528181612444015281816124da015281816125c80152818161265501528181612748015281816127d1015281816128670152818161292d015281816129aa0152612ae501526134d56000f3fe6080604052600436106100e85760003560e01c8063a2052b131161008a578063ddfdfef311610059578063ddfdfef3146102c4578063de406577146102e4578063ebbc70d214610318578063f51187fc1461033857600080fd5b8063a2052b13146101ea578063b1283e771461020a578063b9e205ae14610241578063cd446e221461027857600080fd5b8063232b956c116100c6578063232b956c146101775780634ddf47d414610197578063744f4cf6146101aa5780637fe112c4146101ca57600080fd5b8063043ab622146100ed5780630c28d13e1461010f5780631f3a127214610149575b600080fd5b3480156100f957600080fd5b5061010d610108366004612c95565b610358565b005b34801561011b57600080fd5b5061012f61012a366004612c95565b610373565b604080519283526020830191909152015b60405180910390f35b34801561015557600080fd5b50610169610164366004612c95565b6103a3565b604051908152602001610140565b34801561018357600080fd5b50610169610192366004612ccd565b6103c1565b61010d6101a5366004612d2f565b6103e2565b3480156101b657600080fd5b5061010d6101c5366004612ccd565b61042f565b3480156101d657600080fd5b5061010d6101e5366004612d71565b6109d3565b3480156101f657600080fd5b50610169610205366004612c95565b6110be565b34801561021657600080fd5b5061022a610225366004612ccd565b6110d4565b6040516101409b9a99989796959493929190612e20565b34801561024d57600080fd5b5061026161025c366004612ccd565b61120e565b604080519215158352602083019190915201610140565b34801561028457600080fd5b506102ac7f000000000000000000000000000000000000000000000000000000000000000081565b6040516001600160a01b039091168152602001610140565b3480156102d057600080fd5b5061010d6102df366004612ee4565b61130d565b3480156102f057600080fd5b506102ac7f000000000000000000000000000000000000000000000000000000000000000081565b34801561032457600080fd5b5061010d610333366004612c95565b611821565b34801561034457600080fd5b50610169610353366004612c95565b611952565b826103628461042f565b61036d848484611968565b50505050565b600080846103808661120e565b505061038b8661042f565b610396868686611a8a565b9097909650945050505050565b60006103ae8461042f565b6103b9848484611da9565b949350505050565b600181815481106103d157600080fd5b600091825260209091200154905081565b60405162461bcd60e51b815260206004820152600960248201527f4e6f20636c6f6e6573000000000000000000000000000000000000000000000060448201526064015b60405180910390fd5b600081815260208190526040812060088101549091906104659068010000000000000000900467ffffffffffffffff1642612f76565b90508060000361047457505050565b61047d42611ff3565b60088301805467ffffffffffffffff9290921668010000000000000000027fffffffffffffffffffffffffffffffff0000000000000000ffffffffffffffff90921691909117905560058201546001600160801b03600160801b9091041660000361056257600882015467ffffffffffffffff166312e687c01461055d5760088201805467ffffffffffffffff19166312e687c09081179091556040805160008082526020820193909352908101919091527f13d5d2ea0fae03f94c9dac6d7343dc3df40edd5824ed525c5f13ed17e2a493ab9060600160405180910390a15b505050565b60088201546005830154600091670de0b6b3a764000091849161059a9167ffffffffffffffff909116906001600160801b0316612f8f565b6001600160801b03166105ad9190612fba565b6105b79190612fd1565b90506105c281612051565b6005840180546000906105df9084906001600160801b0316612ff3565b82546101009290920a6001600160801b038181021990931691831602179091556005850154855460405163bd85b03960e01b8152600481018990526000945091909216917f00000000000000000000000000000000000000000000000000000000000000006001600160a01b03169163442c159991640100000000900463ffffffff1690839063bd85b03990602401602060405180830381865afa15801561068b573d6000803e3d6000fd5b505050506040513d601f19601f820116820180604052508101906106af919061301a565b6040516001600160e01b031960e085901b16815263ffffffff929092166004830152602482015260006044820152606401602060405180830381865afa1580156106fd573d6000803e3d6000fd5b505050506040513d601f19601f82011682018060405250810190610721919061301a565b61072b9190613033565b6005850154909150600090829061075490670de0b6b3a7640000906001600160801b0316612fba565b61075e9190612fd1565b90506709b6e64a8ec600008110156108685760006709b6e64a8ec60000670de0b6b3a764000061078e8483612f76565b6107989190612fba565b6107a29190612fd1565b90506000856107b18380612fba565b6107bb9190612fba565b6107d6907054a2b63d65d79d094abb66880000000000613033565b600888015490915061081990829061080a907054a2b63d65d79d094abb668800000000009067ffffffffffffffff16612fba565b6108149190612fd1565b611ff3565b60088801805467ffffffffffffffff191667ffffffffffffffff9290921691821790556304b9a1f011156108615760088701805467ffffffffffffffff19166304b9a1f01790555b505061097c565b670b1a2bc2ec50000081111561097c576000610894670b1a2bc2ec500000670de0b6b3a7640000612f76565b670de0b6b3a76400006108af670b1a2bc2ec50000085612f76565b6108b99190612fba565b6108c39190612fd1565b90506000856108d28380612fba565b6108dc9190612fba565b6108f7907054a2b63d65d79d094abb66880000000000613033565b60088801549091506000907054a2b63d65d79d094abb668800000000009061092a90849067ffffffffffffffff16612fba565b6109349190612fd1565b90506449d482460081111561094b57506449d48246005b61095481611ff3565b60088901805467ffffffffffffffff191667ffffffffffffffff929092169190911790555050505b60088501546040805185815267ffffffffffffffff909216602083015281018290527f13d5d2ea0fae03f94c9dac6d7343dc3df40edd5824ed525c5f13ed17e2a493ab9060600160405180910390a1505050505050565b6000858152602081905260408120906109eb8761120e565b9150506109f78761042f565b610a028787836120aa565b15610a4f5760405162461bcd60e51b815260206004820152601560248201527f4c656e64696e673a207573657220736f6c76656e7400000000000000000000006044820152606401610426565b6001600160a01b038616600090815260068301602052604081205490818711610a785786610a7a565b815b9050610a868183612f76565b6001600160a01b0389166000908152600686016020908152604080832093909355825180840190935260058701546001600160801b038082168552600160801b909104169083015290610ada908383612230565b85549091506000906001600160a01b037f00000000000000000000000000000000000000000000000000000000000000001690638eb22cdd9063ffffffff16670de0b6b3a7640000620186a089610b346201b58089612fba565b610b3e9190612fba565b610b489190612fd1565b610b529190612fba565b6040516001600160e01b031960e085901b16815263ffffffff929092166004830152602482015260006044820152606401602060405180830381865afa158015610ba0573d6000803e3d6000fd5b505050506040513d601f19601f82011682018060405250810190610bc4919061301a565b6001600160a01b038b166000908152600388016020526040812080549293508392909190610bf3908490612f76565b90915550506001600160a01b03871615610c0d5786610c0f565b875b6001600160a01b03168a6001600160a01b03167f8ad4d3ff00da092c7ad9a573ea4f5f6a3dffc6712dc06d3f78f49b862297c40283604051610c5391815260200190565b60405180910390a36001600160a01b03808b1690881615610c745787610c76565b335b6001600160a01b03167fc8e512d8f188ca059984b5853d2bf653da902696b8512785b182b2c813789a6e8486604051610cb9929190918252602082015260400190565b60405180910390a3610cca82612051565b600587018054600090610ce79084906001600160801b0316613046565b92506101000a8154816001600160801b0302191690836001600160801b03160217905550610d1483612051565b600587018054601090610d38908490600160801b90046001600160801b0316613046565b92506101000a8154816001600160801b0302191690836001600160801b0316021790555080866002016000828254610d709190612f76565b90915550508554604051638eb22cdd60e01b815264010000000090910463ffffffff16600482015260248101839052600160448201526000907f00000000000000000000000000000000000000000000000000000000000000006001600160a01b031690638eb22cdd90606401602060405180830381865afa158015610dfa573d6000803e3d6000fd5b505050506040513d601f19601f82011682018060405250810190610e1e919061301a565b90507f00000000000000000000000000000000000000000000000000000000000000006001600160a01b0316630411b2523060006001600160a01b03168b6001600160a01b031614610e70578a610e72565b8b5b8a5460405160e085901b6001600160e01b03191681526001600160a01b03938416600482015292909116602483015263ffffffff16604482015260648101859052608401600060405180830381600087803b158015610ed057600080fd5b505af1158015610ee4573d6000803e3d6000fd5b505050506001600160a01b03881615610faa5786546040517f89d79c4c00000000000000000000000000000000000000000000000000000000815263ffffffff8083166004830152640100000000909204909116602482015233604482015260648101829052608481018390526001600160a01b038916906389d79c4c9060a40160408051808303816000875af1158015610f83573d6000803e3d6000fd5b505050506040513d601f19601f82011682018060405250810190610fa79190613066565b50505b8654604051630208d92960e11b815233600482015230602482015264010000000090910463ffffffff166044820152606481018290527f00000000000000000000000000000000000000000000000000000000000000006001600160a01b031690630411b25290608401600060405180830381600087803b15801561102e57600080fd5b505af1158015611042573d6000803e3d6000fd5b505050508087600401600082825461105a9190613033565b9091555050604080518581526001600160a01b038b811660208301528a8116828401529151918d16918e917fc85b8f6636c215b0af18f611542209f152b2f6cdb635e71ce63d252929886099919081900360600190a3505050505050505050505050565b60006110c98461042f565b6103b98484846122cc565b6000602081905290815260409020805460018201805463ffffffff808416946401000000008504909116936801000000000000000090046001600160a01b03169290916111209061308a565b80601f016020809104026020016040519081016040528092919081815260200182805461114c9061308a565b80156111995780601f1061116e57610100808354040283529160200191611199565b820191906000526020600020905b81548152906001019060200180831161117c57829003601f168201915b505050600284015460048501546040805180820190915260058701546001600160801b038082168352600160801b9182900416602083015260078801546008909801549697939692955090935067ffffffffffffffff808316926801000000000000000081049091169163ffffffff9104168b565b600081815260208190526040808220805491517fd6d7d52500000000000000000000000000000000000000000000000000000000815283926801000000000000000090046001600160a01b03169063d6d7d525906112739060018501906004016130c4565b60408051808303816000875af1158015611291573d6000803e3d6000fd5b505050506040513d601f19601f820116820180604052508101906112b59190613154565b909350915082156112ff57600781018290556040518281527f9f9192b5edb17356c524e08d9e025c8e2f6307e6ea52fb7968faa3081f51c3c89060200160405180910390a1611307565b806007015491505b50915091565b604051622b600360e21b815263ffffffff861660048201526000907f00000000000000000000000000000000000000000000000000000000000000006001600160a01b031690632482ee2790829062ad800c90602401600060405180830381865afa158015611380573d6000803e3d6000fd5b505050506040513d6000823e601f3d908101601f191682016040526113a8919081019061319d565b604051622b600360e21b815263ffffffff891660048201527f00000000000000000000000000000000000000000000000000000000000000006001600160a01b03169062ad800c90602401600060405180830381865afa158015611410573d6000803e3d6000fd5b505050506040513d6000823e601f3d908101601f19168201604052611438919081019061319d565b6040517fd568866c0000000000000000000000000000000000000000000000000000000081526001600160a01b0389169063d568866c9061147f908a908a9060040161324a565b600060405180830381865afa15801561149c573d6000803e3d6000fd5b505050506040513d6000823e601f3d908101601f191682016040526114c4919081019061319d565b6040516020016114d693929190613279565b60408051808303601f1901815290829052634e41a1fb60e01b825263ffffffff8a166004830152907f00000000000000000000000000000000000000000000000000000000000000006001600160a01b031690634e41a1fb90602401600060405180830381865afa15801561154f573d6000803e3d6000fd5b505050506040513d6000823e601f3d908101601f19168201604052611577919081019061319d565b604051634e41a1fb60e01b815263ffffffff8a1660048201527f00000000000000000000000000000000000000000000000000000000000000006001600160a01b031690634e41a1fb90602401600060405180830381865afa1580156115e1573d6000803e3d6000fd5b505050506040513d6000823e601f3d908101601f19168201604052611609919081019061319d565b6040517fc699c4d60000000000000000000000000000000000000000000000000000000081526001600160a01b038a169063c699c4d690611650908b908b9060040161324a565b600060405180830381865afa15801561166d573d6000803e3d6000fd5b505050506040513d6000823e601f3d908101601f19168201604052611695919081019061319d565b6040516020016116a793929190613279565b60405160208183030381529060405260126040518463ffffffff1660e01b81526004016116d693929190613310565b6020604051808303816000875af11580156116f5573d6000803e3d6000fd5b505050506040513d601f19601f820116820180604052508101906117199190613358565b63ffffffff8116600090815260208190526040812091925087908790879087908790869081600481600860018201611752888a836133c5565b5081546001600160a01b03998a1661010092830a9081029a021916989098179055815463ffffffff98891691880a91820291890219161790558154968616940a9384029385021990951692909217909355506008909201805493909216600160801b81027fffffffffffffffffffffffff00000000ffffffffffffffff0000000000000000909416939093176312e687c017909155506001805480820182556000919091527fb10e2d527612073b26eecdfd717e6a320cf44b4afac2b0732d9fcbe2b7fa0cf601555050505050565b6000838152602081815260408083206001600160a01b0386168452600381019092528220805491928492611856908490613033565b92505081905550818160020160008282546118719190613033565b90915550508054604051630208d92960e11b815233600482015230602482015263ffffffff9091166044820152606481018390527f00000000000000000000000000000000000000000000000000000000000000006001600160a01b031690630411b25290608401600060405180830381600087803b1580156118f357600080fd5b505af1158015611907573d6000803e3d6000fd5b50506040518481526001600160a01b03861692503391507f9ed03113de523cebfe5e49d5f8e12894b1c0d42ce805990461726444c90eab87906020015b60405180910390a350505050565b600061195d8461042f565b6103b98484846126f6565b600083815260208181526040808320338452600381019092528220805491928492611994908490612f76565b92505081905550818160020160008282546119af9190612f76565b90915550508054604051630208d92960e11b81523060048201526001600160a01b03858116602483015263ffffffff9092166044820152606481018490527f000000000000000000000000000000000000000000000000000000000000000090911690630411b25290608401600060405180830381600087803b158015611a3557600080fd5b505af1158015611a49573d6000803e3d6000fd5b50506040518481526001600160a01b03861692503391507f8ad4d3ff00da092c7ad9a573ea4f5f6a3dffc6712dc06d3f78f49b862297c40290602001611944565b600083815260208181526040808320815180830190925260058101546001600160801b038082168452600160801b9091041692820192909252829190611ad290856001612b4a565b81516020928301516001600160801b03908116600160801b0291161760058401553360009081526006840190925260408220805491955085929091611b18908490613033565b909155505060408051858152602081018590526001600160a01b0387169133917fb92cb6bca8e3270b9170930f03b17571e55791acdb1a0e9f339eec88bdb35e24910160405180910390a38054604051638eb22cdd60e01b815264010000000090910463ffffffff16600482015260248101859052600060448201527f00000000000000000000000000000000000000000000000000000000000000006001600160a01b031690638eb22cdd90606401602060405180830381865afa158015611be5573d6000803e3d6000fd5b505050506040513d601f19601f82011682018060405250810190611c09919061301a565b60405163bd85b03960e01b8152600481018890529092506103e8906001600160a01b037f0000000000000000000000000000000000000000000000000000000000000000169063bd85b03990602401602060405180830381865afa158015611c75573d6000803e3d6000fd5b505050506040513d601f19601f82011682018060405250810190611c99919061301a565b1015611ce75760405162461bcd60e51b815260206004820152601460248201527f4b617368693a2062656c6f77206d696e696d756d0000000000000000000000006044820152606401610426565b81816004016000828254611cfb9190612f76565b90915550508054604051630208d92960e11b81523060048201526001600160a01b03878116602483015264010000000090920463ffffffff166044820152606481018490527f000000000000000000000000000000000000000000000000000000000000000090911690630411b25290608401600060405180830381600087803b158015611d8857600080fd5b505af1158015611d9c573d6000803e3d6000fd5b5050505050935093915050565b600083815260208181526040808320815180830190925260058101546001600160801b038082168452600160801b9091041692820192909252611dee90846001612bb3565b81516020928301516001600160801b03908116600160801b0291161760058401556001600160a01b03861660009081526006840190925260408220805491945085929091611e3d908490612f76565b90915550508054604051638eb22cdd60e01b815264010000000090910463ffffffff16600482015260248101839052600160448201526000907f00000000000000000000000000000000000000000000000000000000000000006001600160a01b031690638eb22cdd90606401602060405180830381865afa158015611ec7573d6000803e3d6000fd5b505050506040513d601f19601f82011682018060405250810190611eeb919061301a565b8254604051630208d92960e11b815233600482015230602482015264010000000090910463ffffffff166044820152606481018290529091507f00000000000000000000000000000000000000000000000000000000000000006001600160a01b031690630411b25290608401600060405180830381600087803b158015611f7257600080fd5b505af1158015611f86573d6000803e3d6000fd5b5050505080826004016000828254611f9e9190613033565b909155505060408051848152602081018690526001600160a01b0387169133917fc8e512d8f188ca059984b5853d2bf653da902696b8512785b182b2c813789a6e91015b60405180910390a350509392505050565b600067ffffffffffffffff82111561204d5760405162461bcd60e51b815260206004820152601b60248201527f426f72696e674d6174683a2075696e743634204f766572666c6f7700000000006044820152606401610426565b5090565b60006001600160801b0382111561204d5760405162461bcd60e51b815260206004820152601c60248201527f426f72696e674d6174683a2075696e74313238204f766572666c6f77000000006044820152606401610426565b6000838152602081815260408083206001600160a01b0386168452600681019092528220548083036120e157600192505050612229565b6001600160a01b0385166000908152600383016020526040812054908190036121105760009350505050612229565b60058301546001600160801b03600160801b82048116918791612134911685612fba565b61213e9190612fba565b6121489190612fd1565b83546001600160a01b037f0000000000000000000000000000000000000000000000000000000000000000169063442c15999063ffffffff16620124f8620186a061219b670de0b6b3a764000088612fba565b6121a59190612fd1565b6121af9190612fba565b6040516001600160e01b031960e085901b16815263ffffffff929092166004830152602482015260006044820152606401602060405180830381865afa1580156121fd573d6000803e3d6000fd5b505050506040513d601f19601f82011682018060405250810190612221919061301a565b101593505050505b9392505050565b600083602001516001600160801b031660000361224e575081612229565b602084015184516001600160801b039182169161226c911685612fba565b6122769190612fd1565b90508180156122b457508284600001516001600160801b031685602001516001600160801b0316836122a89190612fba565b6122b29190612fd1565b105b1561222957806122c381613486565b95945050505050565b600083815260208190526040808220805460058201549251638eb22cdd60e01b815264010000000090910463ffffffff1660048201526001600160801b039092166024830152600160448301529082907f00000000000000000000000000000000000000000000000000000000000000006001600160a01b031690638eb22cdd90606401602060405180830381865afa15801561236d573d6000803e3d6000fd5b505050506040513d601f19601f82011682018060405250810190612391919061301a565b60405163bd85b03960e01b8152600481018890527f00000000000000000000000000000000000000000000000000000000000000006001600160a01b03169063bd85b03990602401602060405180830381865afa1580156123f6573d6000803e3d6000fd5b505050506040513d601f19601f8201168201806040525081019061241a919061301a565b6124249190613033565b905080156124d05760405163bd85b03960e01b81526004810187905281907f00000000000000000000000000000000000000000000000000000000000000006001600160a01b03169063bd85b03990602401602060405180830381865afa158015612493573d6000803e3d6000fd5b505050506040513d601f19601f820116820180604052508101906124b7919061301a565b6124c19086612fba565b6124cb9190612fd1565b6124d2565b835b92506103e8837f00000000000000000000000000000000000000000000000000000000000000006001600160a01b031663bd85b039896040518263ffffffff1660e01b815260040161252691815260200190565b602060405180830381865afa158015612543573d6000803e3d6000fd5b505050506040513d601f19601f82011682018060405250810190612567919061301a565b6125719190613033565b101561258257600092505050612229565b6040517f836a1040000000000000000000000000000000000000000000000000000000008152600481018790526001600160a01b038681166024830152604482018690527f0000000000000000000000000000000000000000000000000000000000000000169063836a104090606401600060405180830381600087803b15801561260c57600080fd5b505af1158015612620573d6000803e3d6000fd5b5050604051630208d92960e11b81523360048201526001600160a01b038881166024830152604482018a9052606482018890527f0000000000000000000000000000000000000000000000000000000000000000169250630411b2529150608401600060405180830381600087803b15801561269b57600080fd5b505af11580156126af573d6000803e3d6000fd5b505060408051878152602081018790526001600160a01b03891693503392507f30a8c4f9ab5af7e1309ca87c32377d1a83366c5990472dbf9d262450eae14e389101611fe2565b600083815260208190526040808220805460058201549251638eb22cdd60e01b815264010000000090910463ffffffff1660048201526001600160801b039092166024830152600160448301529082907f00000000000000000000000000000000000000000000000000000000000000006001600160a01b031690638eb22cdd90606401602060405180830381865afa158015612797573d6000803e3d6000fd5b505050506040513d601f19601f820116820180604052508101906127bb919061301a565b60405163bd85b03960e01b8152600481018890527f00000000000000000000000000000000000000000000000000000000000000006001600160a01b03169063bd85b03990602401602060405180830381865afa158015612820573d6000803e3d6000fd5b505050506040513d601f19601f82011682018060405250810190612844919061301a565b61284e9190613033565b60405163bd85b03960e01b8152600481018890529091507f00000000000000000000000000000000000000000000000000000000000000006001600160a01b03169063bd85b03990602401602060405180830381865afa1580156128b6573d6000803e3d6000fd5b505050506040513d601f19601f820116820180604052508101906128da919061301a565b6128e48286612fba565b6128ee9190612fd1565b6040517f9eea5f6600000000000000000000000000000000000000000000000000000000815260048101889052336024820152604481018690529093507f00000000000000000000000000000000000000000000000000000000000000006001600160a01b031690639eea5f6690606401600060405180830381600087803b15801561297957600080fd5b505af115801561298d573d6000803e3d6000fd5b505060405163bd85b03960e01b8152600481018990526103e892507f00000000000000000000000000000000000000000000000000000000000000006001600160a01b0316915063bd85b03990602401602060405180830381865afa1580156129fa573d6000803e3d6000fd5b505050506040513d601f19601f82011682018060405250810190612a1e919061301a565b1015612a6c5760405162461bcd60e51b815260206004820152601460248201527f4b617368693a2062656c6f77206d696e696d756d0000000000000000000000006044820152606401610426565b60408051848152602081018690526001600160a01b0387169133917f6e853a5fd6b51d773691f542ebac8513c9992a51380d4c342031056a64114228910160405180910390a3604051630208d92960e11b81523060048201526001600160a01b03868116602483015260448201889052606482018590527f00000000000000000000000000000000000000000000000000000000000000001690630411b25290608401600060405180830381600087803b158015612b2957600080fd5b505af1158015612b3d573d6000803e3d6000fd5b5050505050509392505050565b60408051808201909152600080825260208201526000612b6b858585612c08565b90508385600001818151612b7f9190612ff3565b6001600160801b0316905250602085018051829190612b9f908390612ff3565b6001600160801b0316905250939492505050565b60408051808201909152600080825260208201526000612bd4858585612230565b90508085600001818151612be89190613046565b6001600160801b0316905250602085018051859190612b9f908390613046565b82516000906001600160801b03168103612c23575081612229565b835160208501516001600160801b0391821691612c41911685612fba565b612c4b9190612fd1565b90508180156122b457508284602001516001600160801b031685600001516001600160801b0316836122a89190612fba565b6001600160a01b0381168114612c9257600080fd5b50565b600080600060608486031215612caa57600080fd5b833592506020840135612cbc81612c7d565b929592945050506040919091013590565b600060208284031215612cdf57600080fd5b5035919050565b60008083601f840112612cf857600080fd5b50813567ffffffffffffffff811115612d1057600080fd5b602083019150836020828501011115612d2857600080fd5b9250929050565b60008060208385031215612d4257600080fd5b823567ffffffffffffffff811115612d5957600080fd5b612d6585828601612ce6565b90969095509350505050565b600080600080600060a08688031215612d8957600080fd5b853594506020860135612d9b81612c7d565b9350604086013592506060860135612db281612c7d565b91506080860135612dc281612c7d565b809150509295509295909350565b60005b83811015612deb578181015183820152602001612dd3565b50506000910152565b60008151808452612e0c816020860160208601612dd0565b601f01601f19169290920160200192915050565b600061018063ffffffff808f168452808e166020850152506001600160a01b038c166040840152806060840152612e598184018c612df4565b9150508860808301528760a08301526001600160801b038088511660c08401528060208901511660e08401525085610100830152612ea461012083018667ffffffffffffffff169052565b67ffffffffffffffff841661014083015263ffffffff83166101608301529c9b505050505050505050505050565b63ffffffff81168114612c9257600080fd5b600080600080600060808688031215612efc57600080fd5b8535612f0781612ed2565b94506020860135612f1781612ed2565b93506040860135612f2781612c7d565b9250606086013567ffffffffffffffff811115612f4357600080fd5b612f4f88828901612ce6565b969995985093965092949392505050565b634e487b7160e01b600052601160045260246000fd5b81810381811115612f8957612f89612f60565b92915050565b6001600160801b03818116838216028082169190828114612fb257612fb2612f60565b505092915050565b8082028115828204841417612f8957612f89612f60565b600082612fee57634e487b7160e01b600052601260045260246000fd5b500490565b6001600160801b0381811683821601908082111561301357613013612f60565b5092915050565b60006020828403121561302c57600080fd5b5051919050565b80820180821115612f8957612f89612f60565b6001600160801b0382811682821603908082111561301357613013612f60565b6000806040838503121561307957600080fd5b505080516020909101519092909150565b600181811c9082168061309e57607f821691505b6020821081036130be57634e487b7160e01b600052602260045260246000fd5b50919050565b60006020808352600084546130d88161308a565b80602087015260406001808416600081146130fa576001811461311657613146565b60ff19851660408a0152604084151560051b8a01019550613146565b89600052602060002060005b8581101561313d5781548b8201860152908301908801613122565b8a016040019650505b509398975050505050505050565b6000806040838503121561316757600080fd5b8251801515811461317757600080fd5b6020939093015192949293505050565b634e487b7160e01b600052604160045260246000fd5b6000602082840312156131af57600080fd5b815167ffffffffffffffff808211156131c757600080fd5b818401915084601f8301126131db57600080fd5b8151818111156131ed576131ed613187565b604051601f8201601f19908116603f0116810190838211818310171561321557613215613187565b8160405282815287602084870101111561322e57600080fd5b61323f836020830160208801612dd0565b979650505050505050565b60208152816020820152818360408301376000818301604090810191909152601f909201601f19160101919050565b6000845161328b818460208901612dd0565b7f2f0000000000000000000000000000000000000000000000000000000000000090830190815284516132c5816001840160208901612dd0565b7f2d00000000000000000000000000000000000000000000000000000000000000600192909101918201528351613303816002840160208801612dd0565b0160020195945050505050565b6080815260006133236080830186612df4565b82810360208401526133358186612df4565b60ff94909416604084015250508082036060909101526000815260200192915050565b60006020828403121561336a57600080fd5b815161222981612ed2565b601f82111561055d576000816000526020600020601f850160051c8101602086101561339e5750805b601f850160051c820191505b818110156133bd578281556001016133aa565b505050505050565b67ffffffffffffffff8311156133dd576133dd613187565b6133f1836133eb835461308a565b83613375565b6000601f841160018114613425576000851561340d5750838201355b600019600387901b1c1916600186901b17835561347f565b600083815260209020601f19861690835b828110156134565786850135825560209485019460019092019101613436565b50868210156134735760001960f88860031b161c19848701351681555b505060018560011b0183555b5050505050565b60006001820161349857613498612f60565b506001019056fea26469706673582212201a3c6c9afaef78eb03a84a71d2a41741160c77c40a7b53fa235b008cbeae35fe64736f6c63430008160033","linkReferences":{}},"methodIdentifiers":{"accrue(uint256)":"744f4cf6","addAsset(uint256,address,uint256)":"a2052b13","addCollateral(uint256,address,uint256)":"ebbc70d2","borrow(uint256,address,uint256)":"0c28d13e","createMarket(uint32,uint32,address,bytes)":"ddfdfef3","init(bytes)":"4ddf47d4","liquidate(uint256,address,uint256,address,address)":"7fe112c4","marketList(uint256)":"232b956c","markets(uint256)":"b1283e77","masterContract()":"cd446e22","removeAsset(uint256,address,uint256)":"f51187fc","removeCollateral(uint256,address,uint256)":"043ab622","repay(uint256,address,uint256)":"1f3a1272","updateExchangeRate(uint256)":"b9e205ae","yieldBox()":"de406577"},"id":39}