{"abi":[{"type":"function","name":"sum","inputs":[{"name":"a","type":"uint256","internalType":"uint256"},{"name":"b","type":"uint256","internalType":"uint256"}],"outputs":[{"name":"c","type":"uint256","internalType":"uint256"}],"stateMutability":"nonpayable"},{"type":"event","name":"Result","inputs":[{"name":"output","type":"uint256","indexed":false,"internalType":"uint256"}],"anonymous":false}],"bytecode":{"object":"0x608060405234801561001057600080fd5b5061012e806100206000396000f3fe6080604052348015600f57600080fd5b506004361060285760003560e01c8063cad0899b14602d575b600080fd5b603c60383660046098565b604e565b60405190815260200160405180910390f35b60006058828460b9565b90507fa9bb0fa194e939eadb11be8d62dd4a16e0f5e89f37fb73fa7f0f8446f1abba6181604051608a91815260200190565b60405180910390a192915050565b6000806040838503121560aa57600080fd5b50508035926020909101359150565b8082018082111560f2577f4e487b7100000000000000000000000000000000000000000000000000000000600052601160045260246000fd5b9291505056fea26469706673582212202eff206db68a213e26d74ac6df68ac26a71b624934f1f44f6ed392883179cb6c64736f6c63430008160033","linkReferences":{}},"methodIdentifiers":{"sum(uint256,uint256)":"cad0899b"},"id":22}