{"abi":[{"type":"function","name":"assetCount","inputs":[],"outputs":[{"name":"","type":"uint256","internalType":"uint256"}],"stateMutability":"view"},{"type":"function","name":"assets","inputs":[{"name":"","type":"uint256","internalType":"uint256"}],"outputs":[{"name":"tokenType","type":"uint8","internalType":"enum TokenType"},{"name":"contractAddress","type":"address","internalType":"address"},{"name":"strategy","type":"address","internalType":"contract IStrategy"},{"name":"tokenId","type":"uint256","internalType":"uint256"}],"stateMutability":"view"},{"type":"function","name":"balanceOf","inputs":[{"name":"","type":"address","internalType":"address"},{"name":"","type":"uint256","internalType":"uint256"}],"outputs":[{"name":"","type":"uint256","internalType":"uint256"}],"stateMutability":"view"},{"type":"function","name":"balanceOfBatch","inputs":[{"name":"owners","type":"address[]","internalType":"address[]"},{"name":"ids","type":"uint256[]","internalType":"uint256[]"}],"outputs":[{"name":"balances","type":"uint256[]","internalType":"uint256[]"}],"stateMutability":"view"},{"type":"function","name":"batchBurn","inputs":[{"name":"tokenId","type":"uint256","internalType":"uint256"},{"name":"froms","type":"address[]","internalType":"address[]"},{"name":"amounts","type":"uint256[]","internalType":"uint256[]"}],"outputs":[],"stateMutability":"nonpayable"},{"type":"function","name":"batchMint","inputs":[{"name":"tokenId","type":"uint256","internalType":"uint256"},{"name":"tos","type":"address[]","internalType":"address[]"},{"name":"amounts","type":"uint256[]","internalType":"uint256[]"}],"outputs":[],"stateMutability":"nonpayable"},{"type":"function","name":"burn","inputs":[{"name":"tokenId","type":"uint256","internalType":"uint256"},{"name":"from","type":"address","internalType":"address"},{"name":"amount","type":"uint256","internalType":"uint256"}],"outputs":[],"stateMutability":"nonpayable"},{"type":"function","name":"claimOwnership","inputs":[{"name":"tokenId","type":"uint256","internalType":"uint256"}],"outputs":[],"stateMutability":"nonpayable"},{"type":"function","name":"createToken","inputs":[{"name":"name","type":"string","internalType":"string"},{"name":"symbol","type":"string","internalType":"string"},{"name":"decimals","type":"uint8","internalType":"uint8"},{"name":"uri","type":"string","internalType":"string"}],"outputs":[{"name":"tokenId","type":"uint32","internalType":"uint32"}],"stateMutability":"nonpayable"},{"type":"function","name":"ids","inputs":[{"name":"tokenType","type":"uint8","internalType":"enum TokenType"},{"name":"contractAddress","type":"address","internalType":"address"},{"name":"strategy","type":"address","internalType":"contract IStrategy"},{"name":"tokenId","type":"uint256","internalType":"uint256"}],"outputs":[{"name":"assetId","type":"uint256","internalType":"uint256"}],"stateMutability":"view"},{"type":"function","name":"isApprovedForAll","inputs":[{"name":"","type":"address","internalType":"address"},{"name":"","type":"address","internalType":"address"}],"outputs":[{"name":"","type":"bool","internalType":"bool"}],"stateMutability":"view"},{"type":"function","name":"isApprovedForAsset","inputs":[{"name":"","type":"address","internalType":"address"},{"name":"","type":"address","internalType":"address"},{"name":"","type":"uint256","internalType":"uint256"}],"outputs":[{"name":"","type":"bool","internalType":"bool"}],"stateMutability":"view"},{"type":"function","name":"mint","inputs":[{"name":"tokenId","type":"uint256","internalType":"uint256"},{"name":"to","type":"address","internalType":"address"},{"name":"amount","type":"uint256","internalType":"uint256"}],"outputs":[],"stateMutability":"nonpayable"},{"type":"function","name":"nativeTokens","inputs":[{"name":"","type":"uint256","internalType":"uint256"}],"outputs":[{"name":"name","type":"string","internalType":"string"},{"name":"symbol","type":"string","internalType":"string"},{"name":"decimals","type":"uint8","internalType":"uint8"},{"name":"uri","type":"string","internalType":"string"}],"stateMutability":"view"},{"type":"function","name":"owner","inputs":[{"name":"","type":"uint256","internalType":"uint256"}],"outputs":[{"name":"","type":"address","internalType":"address"}],"stateMutability":"view"},{"type":"function","name":"pendingOwner","inputs":[{"name":"","type":"uint256","internalType":"uint256"}],"outputs":[{"name":"","type":"address","internalType":"address"}],"stateMutability":"view"},{"type":"function","name":"registerAsset","inputs":[{"name":"tokenType","type":"uint8","internalType":"enum TokenType"},{"name":"contractAddress","type":"address","internalType":"address"},{"name":"strategy","type":"address","internalType":"contract IStrategy"},{"name":"tokenId","type":"uint256","internalType":"uint256"}],"outputs":[{"name":"assetId","type":"uint256","internalType":"uint256"}],"stateMutability":"nonpayable"},{"type":"function","name":"safeBatchTransferFrom","inputs":[{"name":"from","type":"address","internalType":"address"},{"name":"to","type":"address","internalType":"address"},{"name":"ids","type":"uint256[]","internalType":"uint256[]"},{"name":"values","type":"uint256[]","internalType":"uint256[]"},{"name":"data","type":"bytes","internalType":"bytes"}],"outputs":[],"stateMutability":"nonpayable"},{"type":"function","name":"safeTransferFrom","inputs":[{"name":"from","type":"address","internalType":"address"},{"name":"to","type":"address","internalType":"address"},{"name":"id","type":"uint256","internalType":"uint256"},{"name":"value","type":"uint256","internalType":"uint256"},{"name":"data","type":"bytes","internalType":"bytes"}],"outputs":[],"stateMutability":"nonpayable"},{"type":"function","name":"setApprovalForAll","inputs":[{"name":"operator","type":"address","internalType":"address"},{"name":"approved","type":"bool","internalType":"bool"}],"outputs":[],"stateMutability":"nonpayable"},{"type":"function","name":"setApprovalForAsset","inputs":[{"name":"operator","type":"address","internalType":"address"},{"name":"assetId","type":"uint256","internalType":"uint256"},{"name":"approved","type":"bool","internalType":"bool"}],"outputs":[],"stateMutability":"nonpayable"},{"type":"function","name":"supportsInterface","inputs":[{"name":"interfaceID","type":"bytes4","internalType":"bytes4"}],"outputs":[{"name":"","type":"bool","internalType":"bool"}],"stateMutability":"pure"},{"type":"function","name":"totalSupply","inputs":[{"name":"","type":"uint256","internalType":"uint256"}],"outputs":[{"name":"","type":"uint256","internalType":"uint256"}],"stateMutability":"view"},{"type":"function","name":"transferOwnership","inputs":[{"name":"tokenId","type":"uint256","internalType":"uint256"},{"name":"newOwner","type":"address","internalType":"address"},{"name":"direct","type":"bool","internalType":"bool"},{"name":"renounce","type":"bool","internalType":"bool"}],"outputs":[],"stateMutability":"nonpayable"},{"type":"function","name":"uri","inputs":[{"name":"","type":"uint256","internalType":"uint256"}],"outputs":[{"name":"","type":"string","internalType":"string"}],"stateMutability":"view"},{"type":"event","name":"ApprovalForAll","inputs":[{"name":"_owner","type":"address","indexed":true,"internalType":"address"},{"name":"_operator","type":"address","indexed":true,"internalType":"address"},{"name":"_approved","type":"bool","indexed":false,"internalType":"bool"}],"anonymous":false},{"type":"event","name":"ApprovalForAsset","inputs":[{"name":"sender","type":"address","indexed":true,"internalType":"address"},{"name":"operator","type":"address","indexed":true,"internalType":"address"},{"name":"assetId","type":"uint256","indexed":false,"internalType":"uint256"},{"name":"approved","type":"bool","indexed":false,"internalType":"bool"}],"anonymous":false},{"type":"event","name":"AssetRegistered","inputs":[{"name":"tokenType","type":"uint8","indexed":true,"internalType":"enum TokenType"},{"name":"contractAddress","type":"address","indexed":true,"internalType":"address"},{"name":"strategy","type":"address","indexed":false,"internalType":"contract IStrategy"},{"name":"tokenId","type":"uint256","indexed":true,"internalType":"uint256"},{"name":"assetId","type":"uint256","indexed":false,"internalType":"uint256"}],"anonymous":false},{"type":"event","name":"OwnershipTransferred","inputs":[{"name":"tokenId","type":"uint256","indexed":true,"internalType":"uint256"},{"name":"previousOwner","type":"address","indexed":true,"internalType":"address"},{"name":"newOwner","type":"address","indexed":true,"internalType":"address"}],"anonymous":false},{"type":"event","name":"TokenCreated","inputs":[{"name":"creator","type":"address","indexed":true,"internalType":"address"},{"name":"name","type":"string","indexed":false,"internalType":"string"},{"name":"symbol","type":"string","indexed":false,"internalType":"string"},{"name":"decimals","type":"uint8","indexed":false,"internalType":"uint8"},{"name":"tokenId","type":"uint256","indexed":false,"internalType":"uint256"}],"anonymous":false},{"type":"event","name":"TransferBatch","inputs":[{"name":"_operator","type":"address","indexed":true,"internalType":"address"},{"name":"_from","type":"address","indexed":true,"internalType":"address"},{"name":"_to","type":"address","indexed":true,"internalType":"address"},{"name":"_ids","type":"uint256[]","indexed":false,"internalType":"uint256[]"},{"name":"_values","type":"uint256[]","indexed":false,"internalType":"uint256[]"}],"anonymous":false},{"type":"event","name":"TransferSingle","inputs":[{"name":"_operator","type":"address","indexed":true,"internalType":"address"},{"name":"_from","type":"address","indexed":true,"internalType":"address"},{"name":"_to","type":"address","indexed":true,"internalType":"address"},{"name":"_id","type":"uint256","indexed":false,"internalType":"uint256"},{"name":"_value","type":"uint256","indexed":false,"internalType":"uint256"}],"anonymous":false},{"type":"event","name":"URI","inputs":[{"name":"_value","type":"string","indexed":false,"internalType":"string"},{"name":"_id","type":"uint256","indexed":true,"internalType":"uint256"}],"anonymous":false}],"bytecode":{"object":"0x60806040523480156200001157600080fd5b5060408051608081018252600480825260006020830181905292820183905260608201839052600580546001808201835591909452825160039094027f036b6384b5eca791c62761152d0c79bb0604c104a5fb6f4eb0703f3154bb3db0018054939490939092849260ff1990921691908490811115620000955762000095620000ec565b021790555060208201518154610100600160a81b0319166101006001600160a01b039283160217825560408301516001830180546001600160a01b0319169190921617905560609091015160029091015562000102565b634e487b7160e01b600052602160045260246000fd5b612b0780620001126000396000f3fe608060405234801561001057600080fd5b50600436106101a25760003560e01c8063836a1040116100ee578063b8489fb511610097578063cf35bdd011610071578063cf35bdd014610458578063e985e9c51461047b578063eafe7a74146104a9578063f242432a146104b157600080fd5b8063b8489fb514610412578063bd85b03914610425578063ce7f27141461044557600080fd5b8063a22cb465116100c8578063a22cb465146103b9578063a75fcb1e146103cc578063b061db94146103ff57600080fd5b8063836a10401461036a5780639eea5f661461037d578063a123c33e1461039057600080fd5b80632482ee27116101505780632eb2c2d61161012a5780632eb2c2d6146103245780634e1273f4146103375780635ba4d64e1461035757600080fd5b80632482ee27146102815780632b800e3b146102a95780632d4e1d52146102ea57600080fd5b80630e89341c116101815780630e89341c1461021d5780631dbeeb4e1461024b5780631f0ee4c31461025e57600080fd5b8062fdd58e146101a757806301e1e3b1146101e557806301ffc9a7146101fa575b600080fd5b6101d26101b5366004612009565b600260209081526000928352604080842090915290825290205481565b6040519081526020015b60405180910390f35b6101f86101f3366004612081565b6104c4565b005b61020d610208366004612111565b610641565b60405190151581526020016101dc565b61023e61022b366004612135565b5060408051602081019091526000815290565b6040516101dc9190612194565b6101f8610259366004612081565b6106de565b61027161026c366004612135565b6107ad565b6040516101dc94939291906121a7565b61029461028f366004612236565b610976565b60405163ffffffff90911681526020016101dc565b6102d26102b7366004612135565b6008602052600090815260409020546001600160a01b031681565b6040516001600160a01b0390911681526020016101dc565b6101d26102f83660046122f8565b600460209081526000948552604080862082529385528385208152918452828420909152825290205481565b6101f8610332366004612349565b610bb9565b61034a610345366004612408565b610d15565b6040516101dc9190612474565b6101f86103653660046124cd565b610e5b565b6101f861037836600461251c565b610fe0565b6101f861038b36600461251c565b611059565b6102d261039e366004612135565b6007602052600090815260409020546001600160a01b031681565b6101f86103c7366004612554565b611127565b61020d6103da366004612589565b6000602081815293815260408082208552928152828120909352825290205460ff1681565b6101d261040d3660046122f8565b611193565b6101f86104203660046125b9565b611243565b6101d2610433366004612135565b60036020526000908152604090205481565b6101f8610453366004612135565b61130b565b61046b610466366004612135565b6113f7565b6040516101dc949392919061260d565b61020d610489366004612652565b600160209081526000928352604080842090915290825290205460ff1681565b6005546101d2565b6101f86104bf36600461268b565b611441565b6000600586815481106104d9576104d9612707565b600091825260209091206003909102015460ff1660048111156104fe576104fe6125f7565b146105505760405162461bcd60e51b815260206004820152600f60248201527f4e54463a204e6f74206e6174697665000000000000000000000000000000000060448201526064015b60405180910390fd5b8260005b81811015610638576105e786868381811061057157610571612707565b9050602002016020810190610586919061271d565b60008089898681811061059b5761059b612707565b90506020020160208101906105b0919061271d565b6001600160a01b031681526020808201929092526040908101600090812033825283528181208c825290925290205460ff16611588565b6106308686838181106105fc576105fc612707565b9050602002016020810190610611919061271d565b8886868581811061062457610624612707565b9050602002013561161e565b600101610554565b50505050505050565b60006001600160e01b031982167f01ffc9a70000000000000000000000000000000000000000000000000000000014806106a457507fd9b67a26000000000000000000000000000000000000000000000000000000006001600160e01b03198316145b806106d857507f0e89341c000000000000000000000000000000000000000000000000000000006001600160e01b03198316145b92915050565b60008581526007602052604090205485906001600160a01b031633146107465760405162461bcd60e51b815260206004820152601c60248201527f4e54463a2063616c6c6572206973206e6f7420746865206f776e6572000000006044820152606401610547565b8360005b818110156107a35761079b87878381811061076757610767612707565b905060200201602081019061077c919061271d565b8987878581811061078f5761078f612707565b9050602002013561170d565b60010161074a565b5050505050505050565b6006602052600090815260409020805481906107c89061273a565b80601f01602080910402602001604051908101604052809291908181526020018280546107f49061273a565b80156108415780601f1061081657610100808354040283529160200191610841565b820191906000526020600020905b81548152906001019060200180831161082457829003601f168201915b5050505050908060010180546108569061273a565b80601f01602080910402602001604051908101604052809291908181526020018280546108829061273a565b80156108cf5780601f106108a4576101008083540402835291602001916108cf565b820191906000526020600020905b8154815290600101906020018083116108b257829003601f168201915b5050506002840154600385018054949560ff9092169491935091506108f39061273a565b80601f016020809104026020016040519081016040528092919081815260200182805461091f9061273a565b801561096c5780601f106109415761010080835404028352916020019161096c565b820191906000526020600020905b81548152906001019060200180831161094f57829003601f168201915b5050505050905084565b600554600090610985906117f3565b905061099b60008060008463ffffffff1661184d565b50604051806080016040528089898080601f016020809104026020016040519081016040528093929190818152602001838380828437600092019190915250505090825250604080516020601f8a018190048102820181019092528881529181019190899089908190840183828082843760009201919091525050509082525060ff861660208083019190915260408051601f87018390048302810183018252868152920191908690869081908401838280828437600092018290525093909452505063ffffffff8416815260066020526040902082519091508190610a8190826127d7565b5060208201516001820190610a9690826127d7565b50604082015160028201805460ff191660ff90921691909117905560608201516003820190610ac590826127d7565b50505063ffffffff81166000908152600760205260409081902080546001600160a01b0319163390811790915590517f0b0bcdebd2813328a89a9ed5971e5863201ed78fc4e0e2b271cceddb9ce9051090610b2b908b908b908b908b908b9089906128c0565b60405180910390a26040805163ffffffff8316815260006020820181905291829133917fc3d58168c5ae7397731d063d5bbf3d657854427343f4c083240f7aacaa2d0f62910160405180910390a4604051339060009063ffffffff8416907f16b85f49bf01212961345d3016c9a531894accf62eb7680f2045d79185cc0ec0908390a4979650505050505050565b848314610c085760405162461bcd60e51b815260206004820152601860248201527f455243313135353a204c656e677468206d69736d6174636800000000000000006044820152606401610547565b610c16888888888888611d7a565b6001600160a01b0387163b156107a3576040517fbc197c8100000000000000000000000000000000000000000000000000000000808252906001600160a01b0389169063bc197c8190610c7b9033908d908c908c908c908c908c908c90600401612955565b6020604051808303816000875af1158015610c9a573d6000803e3d6000fd5b505050506040513d601f19601f82011682018060405250810190610cbe91906129b9565b6001600160e01b031916146107a35760405162461bcd60e51b815260206004820152601260248201527f57726f6e672072657475726e2076616c756500000000000000000000000000006044820152606401610547565b606083828114610d675760405162461bcd60e51b815260206004820152601860248201527f455243313135353a204c656e677468206d69736d6174636800000000000000006044820152606401610547565b8067ffffffffffffffff811115610d8057610d80612774565b604051908082528060200260200182016040528015610da9578160200160208202803683370190505b50915060005b81811015610e515760026000888884818110610dcd57610dcd612707565b9050602002016020810190610de2919061271d565b6001600160a01b03166001600160a01b031681526020019081526020016000206000868684818110610e1657610e16612707565b90506020020135815260200190815260200160002054838281518110610e3e57610e3e612707565b6020908102919091010152600101610daf565b5050949350505050565b60008481526007602052604090205484906001600160a01b03163314610ec35760405162461bcd60e51b815260206004820152601c60248201527f4e54463a2063616c6c6572206973206e6f7420746865206f776e6572000000006044820152606401610547565b8215610fb1576001600160a01b038416151580610edd5750815b610f295760405162461bcd60e51b815260206004820152601160248201527f4e54463a207a65726f20616464726573730000000000000000000000000000006044820152606401610547565b6000858152600760205260408082205490516001600160a01b038088169392169188917f16b85f49bf01212961345d3016c9a531894accf62eb7680f2045d79185cc0ec09190a4600085815260076020908152604080832080546001600160a01b0389166001600160a01b031991821617909155600890925290912080549091169055610fd9565b600085815260086020526040902080546001600160a01b0319166001600160a01b0386161790555b5050505050565b60008381526007602052604090205483906001600160a01b031633146110485760405162461bcd60e51b815260206004820152601c60248201527f4e54463a2063616c6c6572206973206e6f7420746865206f776e6572000000006044820152606401610547565b61105383858461170d565b50505050565b6001600160a01b03821660009081526020818152604080832033845282528083208684529091529020548290849061109590839060ff16611588565b6000600586815481106110aa576110aa612707565b600091825260209091206003909102015460ff1660048111156110cf576110cf6125f7565b1461111c5760405162461bcd60e51b815260206004820152600f60248201527f4e54463a204e6f74206e617469766500000000000000000000000000000000006044820152606401610547565b610fd984868561161e565b3360008181526001602090815260408083206001600160a01b03871680855290835292819020805460ff191686151590811790915590519081529192917f17307eab39ab6107e8899845ad3d59bd9653f200f220920489ca2b5937696c31910160405180910390a35050565b600060018560048111156111a9576111a96125f7565b14806111c6575060028560048111156111c4576111c46125f7565b145b806111e2575060038560048111156111e0576111e06125f7565b145b61122e5760405162461bcd60e51b815260206004820152601f60248201527f41737365744d616e616765723a2063616e6e6f7420616464204e6174697665006044820152606401610547565b61123a8585858561184d565b95945050505050565b60055482106112945760405162461bcd60e51b815260206004820152601d60248201527f41737365744d616e616765723a206173736574206e6f742076616c69640000006044820152606401610547565b336000818152602081815260408083206001600160a01b038816808552908352818420878552835292819020805460ff19168615159081179091558151878152928301529192917f6aceb1b079beeabdd8c2f30cd221ca27ec52e9d0aef6bb229cc175cf15dd778b910160405180910390a3505050565b6000818152600860205260409020546001600160a01b03163381146113725760405162461bcd60e51b815260206004820152601c60248201527f4e54463a2063616c6c657220213d2070656e64696e67206f776e6572000000006044820152606401610547565b6000828152600760205260408082205490516001600160a01b038085169392169185917f16b85f49bf01212961345d3016c9a531894accf62eb7680f2045d79185cc0ec09190a4600091825260076020908152604080842080546001600160a01b039094166001600160a01b0319948516179055600890915290912080549091169055565b6005818154811061140757600080fd5b600091825260209091206003909102018054600182015460029092015460ff821693506101009091046001600160a01b0390811692169084565b6001600160a01b038616600090815260208181526040808320338452825280832087845290915290205461147990879060ff16611588565b61148586868686611eeb565b6001600160a01b0385163b15611580576040517ff23a6e6100000000000000000000000000000000000000000000000000000000808252906001600160a01b0387169063f23a6e61906114e69033908b908a908a908a908a906004016129d6565b6020604051808303816000875af1158015611505573d6000803e3d6000fd5b505050506040513d601f19601f8201168201806040525081019061152991906129b9565b6001600160e01b031916146115805760405162461bcd60e51b815260206004820152601260248201527f57726f6e672072657475726e2076616c756500000000000000000000000000006044820152606401610547565b505050505050565b6001600160a01b03821633148061159c5750805b806115ce57506001600160a01b03821660009081526001602081815260408084203385529091529091205460ff161515145b61161a5760405162461bcd60e51b815260206004820152601460248201527f5472616e73666572206e6f7420616c6c6f7765640000000000000000000000006044820152606401610547565b5050565b6001600160a01b0383166116635760405162461bcd60e51b815260206004820152600c60248201526b4e6f2030206164647265737360a01b6044820152606401610547565b6001600160a01b038316600090815260026020908152604080832085845290915281208054839290611696908490612a31565b9091555050600082815260036020526040812080548392906116b9908490612a31565b909155505060408051838152602081018390526000916001600160a01b0386169133917fc3d58168c5ae7397731d063d5bbf3d657854427343f4c083240f7aacaa2d0f6291015b60405180910390a4505050565b6001600160a01b0383166117525760405162461bcd60e51b815260206004820152600c60248201526b4e6f2030206164647265737360a01b6044820152606401610547565b6001600160a01b038316600090815260026020908152604080832085845290915281208054839290611785908490612a44565b9091555050600082815260036020526040812080548392906117a8908490612a44565b909155505060408051838152602081018390526001600160a01b0385169160009133917fc3d58168c5ae7397731d063d5bbf3d657854427343f4c083240f7aacaa2d0f629101611700565b600063ffffffff8211156118495760405162461bcd60e51b815260206004820152601b60248201527f426f72696e674d6174683a2075696e743332204f766572666c6f7700000000006044820152606401610547565b5090565b600060046000866004811115611865576118656125f7565b6004811115611876576118766125f7565b8152602080820192909252604090810160009081206001600160a01b038089168352908452828220908716825283528181208582529092528120549150819003611d72578115806118d9575060018560048111156118d6576118d66125f7565b14155b6119255760405162461bcd60e51b815260206004820152601e60248201527f5969656c64426f783a204e6f20746f6b656e496420666f7220455243323000006044820152606401610547565b6000856004811115611939576119396125f7565b1480611ab05750826001600160a01b03166330fa738c6040518163ffffffff1660e01b8152600401602060405180830381865afa15801561197e573d6000803e3d6000fd5b505050506040513d601f19601f820116820180604052508101906119a29190612a57565b60048111156119b3576119b36125f7565b8560048111156119c5576119c56125f7565b148015611a445750826001600160a01b031663f6b4dfb46040518163ffffffff1660e01b8152600401602060405180830381865afa158015611a0b573d6000803e3d6000fd5b505050506040513d601f19601f82011682018060405250810190611a2f9190612a74565b6001600160a01b0316846001600160a01b0316145b8015611ab05750826001600160a01b03166317d70f7c6040518163ffffffff1660e01b8152600401602060405180830381865afa158015611a89573d6000803e3d6000fd5b505050506040513d601f19601f82011682018060405250810190611aad9190612a91565b82145b611afc5760405162461bcd60e51b815260206004820152601b60248201527f5969656c64426f783a205374726174656779206d69736d6174636800000000006044820152606401610547565b6000856004811115611b1057611b106125f7565b148015611b2457506001600160a01b038416155b80611b3857506001600160a01b0384163b15155b611b845760405162461bcd60e51b815260206004820152601560248201527f5969656c64426f783a204e6f74206120746f6b656e00000000000000000000006044820152606401610547565b600580549050905060056040518060800160405280876004811115611bab57611bab6125f7565b81526001600160a01b038088166020808401919091529087166040830152606090910185905282546001818101855560009485529190932082516003909402018054929390929091839160ff191690836004811115611c0c57611c0c6125f7565b0217905550602082015181547fffffffffffffffffffffff0000000000000000000000000000000000000000ff166101006001600160a01b039283160217825560408301516001830180546001600160a01b0319169190921617905560609091015160029091015580600460008782811115611c8a57611c8a6125f7565b6004811115611c9b57611c9b6125f7565b8152602080820192909252604090810160009081206001600160a01b0389811683529084528282209088168252835281812086825283528181209390935580518281529182019290925282917f6bb7ff708619ba0610cba295a58592e0451dee2622938c8755667688daf3529b910160405180910390a281846001600160a01b0316866004811115611d2f57611d2f6125f7565b604080516001600160a01b0388168152602081018690527f30605d4cd099421ed12ca1ba642a1ea2659f679b5cdd0ccd032586640eeaff43910160405180910390a45b949350505050565b6001600160a01b038516611dbf5760405162461bcd60e51b815260206004820152600c60248201526b4e6f2030206164647265737360a01b6044820152606401610547565b8260005b81811015611e86576000868683818110611ddf57611ddf612707565b9050602002013590506000858584818110611dfc57611dfc612707565b6001600160a01b038d16600090815260026020908152604080832088845282528220805493909102949094013594508493925090611e3b908490612a31565b90915550506001600160a01b038916600090815260026020908152604080832085845290915281208054839290611e73908490612a44565b909155505060019092019150611dc39050565b50856001600160a01b0316876001600160a01b0316336001600160a01b03167f4a39dc06d4c0dbc64b70af90fd698a233a518aa5d07e595d983b8c0526c8f7fb88888888604051611eda9493929190612aaa565b60405180910390a450505050505050565b6001600160a01b038316611f305760405162461bcd60e51b815260206004820152600c60248201526b4e6f2030206164647265737360a01b6044820152606401610547565b6001600160a01b038416600090815260026020908152604080832085845290915281208054839290611f63908490612a31565b90915550506001600160a01b038316600090815260026020908152604080832085845290915281208054839290611f9b908490612a44565b909155505060408051838152602081018390526001600160a01b03808616929087169133917fc3d58168c5ae7397731d063d5bbf3d657854427343f4c083240f7aacaa2d0f62910160405180910390a450505050565b6001600160a01b038116811461200657600080fd5b50565b6000806040838503121561201c57600080fd5b823561202781611ff1565b946020939093013593505050565b60008083601f84011261204757600080fd5b50813567ffffffffffffffff81111561205f57600080fd5b6020830191508360208260051b850101111561207a57600080fd5b9250929050565b60008060008060006060868803121561209957600080fd5b85359450602086013567ffffffffffffffff808211156120b857600080fd5b6120c489838a01612035565b909650945060408801359150808211156120dd57600080fd5b506120ea88828901612035565b969995985093965092949392505050565b6001600160e01b03198116811461200657600080fd5b60006020828403121561212357600080fd5b813561212e816120fb565b9392505050565b60006020828403121561214757600080fd5b5035919050565b6000815180845260005b8181101561217457602081850181015186830182015201612158565b506000602082860101526020601f19601f83011685010191505092915050565b60208152600061212e602083018461214e565b6080815260006121ba608083018761214e565b82810360208401526121cc818761214e565b905060ff8516604084015282810360608401526121e9818561214e565b979650505050505050565b60008083601f84011261220657600080fd5b50813567ffffffffffffffff81111561221e57600080fd5b60208301915083602082850101111561207a57600080fd5b60008060008060008060006080888a03121561225157600080fd5b873567ffffffffffffffff8082111561226957600080fd5b6122758b838c016121f4565b909950975060208a013591508082111561228e57600080fd5b61229a8b838c016121f4565b909750955060408a0135915060ff821682146122b557600080fd5b909350606089013590808211156122cb57600080fd5b506122d88a828b016121f4565b989b979a50959850939692959293505050565b6005811061200657600080fd5b6000806000806080858703121561230e57600080fd5b8435612319816122eb565b9350602085013561232981611ff1565b9250604085013561233981611ff1565b9396929550929360600135925050565b60008060008060008060008060a0898b03121561236557600080fd5b883561237081611ff1565b9750602089013561238081611ff1565b9650604089013567ffffffffffffffff8082111561239d57600080fd5b6123a98c838d01612035565b909850965060608b01359150808211156123c257600080fd5b6123ce8c838d01612035565b909650945060808b01359150808211156123e757600080fd5b506123f48b828c016121f4565b999c989b5096995094979396929594505050565b6000806000806040858703121561241e57600080fd5b843567ffffffffffffffff8082111561243657600080fd5b61244288838901612035565b9096509450602087013591508082111561245b57600080fd5b5061246887828801612035565b95989497509550505050565b6020808252825182820181905260009190848201906040850190845b818110156124ac57835183529284019291840191600101612490565b50909695505050505050565b803580151581146124c857600080fd5b919050565b600080600080608085870312156124e357600080fd5b8435935060208501356124f581611ff1565b9250612503604086016124b8565b9150612511606086016124b8565b905092959194509250565b60008060006060848603121561253157600080fd5b83359250602084013561254381611ff1565b929592945050506040919091013590565b6000806040838503121561256757600080fd5b823561257281611ff1565b9150612580602084016124b8565b90509250929050565b60008060006060848603121561259e57600080fd5b83356125a981611ff1565b9250602084013561254381611ff1565b6000806000606084860312156125ce57600080fd5b83356125d981611ff1565b9250602084013591506125ee604085016124b8565b90509250925092565b634e487b7160e01b600052602160045260246000fd5b608081016005861061262f57634e487b7160e01b600052602160045260246000fd5b9481526001600160a01b0393841660208201529190921660408201526060015290565b6000806040838503121561266557600080fd5b823561267081611ff1565b9150602083013561268081611ff1565b809150509250929050565b60008060008060008060a087890312156126a457600080fd5b86356126af81611ff1565b955060208701356126bf81611ff1565b94506040870135935060608701359250608087013567ffffffffffffffff8111156126e957600080fd5b6126f589828a016121f4565b979a9699509497509295939492505050565b634e487b7160e01b600052603260045260246000fd5b60006020828403121561272f57600080fd5b813561212e81611ff1565b600181811c9082168061274e57607f821691505b60208210810361276e57634e487b7160e01b600052602260045260246000fd5b50919050565b634e487b7160e01b600052604160045260246000fd5b601f8211156127d2576000816000526020600020601f850160051c810160208610156127b35750805b601f850160051c820191505b81811015611580578281556001016127bf565b505050565b815167ffffffffffffffff8111156127f1576127f1612774565b612805816127ff845461273a565b8461278a565b602080601f83116001811461283a57600084156128225750858301515b600019600386901b1c1916600185901b178555611580565b600085815260208120601f198616915b828110156128695788860151825594840194600190910190840161284a565b50858210156128875787850151600019600388901b60f8161c191681555b5050505050600190811b01905550565b81835281816020850137506000828201602090810191909152601f909101601f19169091010190565b6080815260006128d460808301888a612897565b82810360208401526128e7818789612897565b91505060ff8416604083015263ffffffff83166060830152979650505050505050565b81835260007f07ffffffffffffffffffffffffffffffffffffffffffffffffffffffffffffff83111561293c57600080fd5b8260051b80836020870137939093016020019392505050565b60006001600160a01b03808b168352808a1660208401525060a0604083015261298260a08301888a61290a565b828103606084015261299581878961290a565b905082810360808401526129aa818587612897565b9b9a5050505050505050505050565b6000602082840312156129cb57600080fd5b815161212e816120fb565b60006001600160a01b03808916835280881660208401525085604083015284606083015260a06080830152612a0f60a083018486612897565b98975050505050505050565b634e487b7160e01b600052601160045260246000fd5b818103818111156106d8576106d8612a1b565b808201808211156106d8576106d8612a1b565b600060208284031215612a6957600080fd5b815161212e816122eb565b600060208284031215612a8657600080fd5b815161212e81611ff1565b600060208284031215612aa357600080fd5b5051919050565b604081526000612abe60408301868861290a565b82810360208401526121e981858761290a56fea2646970667358221220bd33aeb23d028a6e16ba8ed4fc13e69947e23e41dd4eea755917f3efd799620c64736f6c63430008160033","linkReferences":{}},"methodIdentifiers":{"assetCount()":"eafe7a74","assets(uint256)":"cf35bdd0","balanceOf(address,uint256)":"00fdd58e","balanceOfBatch(address[],uint256[])":"4e1273f4","batchBurn(uint256,address[],uint256[])":"01e1e3b1","batchMint(uint256,address[],uint256[])":"1dbeeb4e","burn(uint256,address,uint256)":"9eea5f66","claimOwnership(uint256)":"ce7f2714","createToken(string,string,uint8,string)":"2482ee27","ids(uint8,address,address,uint256)":"2d4e1d52","isApprovedForAll(address,address)":"e985e9c5","isApprovedForAsset(address,address,uint256)":"a75fcb1e","mint(uint256,address,uint256)":"836a1040","nativeTokens(uint256)":"1f0ee4c3","owner(uint256)":"a123c33e","pendingOwner(uint256)":"2b800e3b","registerAsset(uint8,address,address,uint256)":"b061db94","safeBatchTransferFrom(address,address,uint256[],uint256[],bytes)":"2eb2c2d6","safeTransferFrom(address,address,uint256,uint256,bytes)":"f242432a","setApprovalForAll(address,bool)":"a22cb465","setApprovalForAsset(address,uint256,bool)":"b8489fb5","supportsInterface(bytes4)":"01ffc9a7","totalSupply(uint256)":"bd85b039","transferOwnership(uint256,address,bool,bool)":"5ba4d64e","uri(uint256)":"0e89341c"},"id":6}