{"abi":[{"type":"function","name":"owner","inputs":[],"outputs":[{"name":"","type":"address","internalType":"address"}],"stateMutability":"view"},{"type":"function","name":"pendingOwner","inputs":[],"outputs":[{"name":"","type":"address","internalType":"address"}],"stateMutability":"view"}],"bytecode":{"object":"0x608060405234801561001057600080fd5b5060d48061001f6000396000f3fe6080604052348015600f57600080fd5b506004361060325760003560e01c80638da5cb5b146037578063e30c397814607f575b600080fd5b60005460569073ffffffffffffffffffffffffffffffffffffffff1681565b60405173ffffffffffffffffffffffffffffffffffffffff909116815260200160405180910390f35b60015460569073ffffffffffffffffffffffffffffffffffffffff168156fea264697066735822122045b001261d302ffd620a0bc0b0797e25ab7c47d4fb3a22a056bd789398612dc864736f6c63430008160033","linkReferences":{}},"methodIdentifiers":{"owner()":"8da5cb5b","pendingOwner()":"e30c3978"},"id":46}