{"abi":[{"type":"constructor","inputs":[],"stateMutability":"nonpayable"},{"type":"function","name":"claimOwnership","inputs":[],"outputs":[],"stateMutability":"nonpayable"},{"type":"function","name":"owner","inputs":[],"outputs":[{"name":"","type":"address","internalType":"address"}],"stateMutability":"view"},{"type":"function","name":"pendingOwner","inputs":[],"outputs":[{"name":"","type":"address","internalType":"address"}],"stateMutability":"view"},{"type":"function","name":"transferOwnership","inputs":[{"name":"newOwner","type":"address","internalType":"address"},{"name":"direct","type":"bool","internalType":"bool"},{"name":"renounce","type":"bool","internalType":"bool"}],"outputs":[],"stateMutability":"nonpayable"},{"type":"event","name":"OwnershipTransferred","inputs":[{"name":"previousOwner","type":"address","indexed":true,"internalType":"address"},{"name":"newOwner","type":"address","indexed":true,"internalType":"address"}],"anonymous":false}],"bytecode":{"object":"0x608060405234801561001057600080fd5b50600080546001600160a01b0319163390811782556040519091907f8be0079c531659141344cd1fd0a4f28419497f9722a3daafe3b4186f6b6457e0908290a361037c8061005f6000396000f3fe608060405234801561001057600080fd5b506004361061004c5760003560e01c8063078dfbe7146100515780634e71e0c8146100665780638da5cb5b1461006e578063e30c39781461009d575b600080fd5b61006461005f3660046102f5565b6100b0565b005b610064610216565b600054610081906001600160a01b031681565b6040516001600160a01b03909116815260200160405180910390f35b600154610081906001600160a01b031681565b6000546001600160a01b0316331461010f5760405162461bcd60e51b815260206004820181905260248201527f4f776e61626c653a2063616c6c6572206973206e6f7420746865206f776e657260448201526064015b60405180910390fd5b81156101e7576001600160a01b0383161515806101295750805b6101755760405162461bcd60e51b815260206004820152601560248201527f4f776e61626c653a207a65726f206164647265737300000000000000000000006044820152606401610106565b600080546040516001600160a01b03808716939216917f8be0079c531659141344cd1fd0a4f28419497f9722a3daafe3b4186f6b6457e091a3600080546001600160a01b03851673ffffffffffffffffffffffffffffffffffffffff1991821617909155600180549091169055505050565b600180546001600160a01b03851673ffffffffffffffffffffffffffffffffffffffff19909116179055505050565b6001546001600160a01b03163381146102715760405162461bcd60e51b815260206004820181905260248201527f4f776e61626c653a2063616c6c657220213d2070656e64696e67206f776e65726044820152606401610106565b600080546040516001600160a01b03808516939216917f8be0079c531659141344cd1fd0a4f28419497f9722a3daafe3b4186f6b6457e091a3600080546001600160a01b0390921673ffffffffffffffffffffffffffffffffffffffff19928316179055600180549091169055565b803580151581146102f057600080fd5b919050565b60008060006060848603121561030a57600080fd5b83356001600160a01b038116811461032157600080fd5b925061032f602085016102e0565b915061033d604085016102e0565b9050925092509256fea26469706673582212206ad284ed0e51b8d489b30f8e85c11fb44dabf3a84fae2b2bf734423ab188706e64736f6c63430008160033","linkReferences":{}},"methodIdentifiers":{"claimOwnership()":"4e71e0c8","owner()":"8da5cb5b","pendingOwner()":"e30c3978","transferOwnership(address,bool,bool)":"078dfbe7"},"id":46}