{"abi":[{"type":"constructor","inputs":[{"name":"_yieldBox","type":"address","internalType":"contract YieldBox"}],"stateMutability":"nonpayable"},{"type":"function","name":"deployer","inputs":[],"outputs":[{"name":"","type":"address","internalType":"address"}],"stateMutability":"view"},{"type":"function","name":"erc1155","inputs":[],"outputs":[{"name":"","type":"address","internalType":"address"}],"stateMutability":"view"},{"type":"function","name":"erc1155Strategy","inputs":[],"outputs":[{"name":"","type":"address","internalType":"contract IStrategy"}],"stateMutability":"view"},{"type":"function","name":"ethStrategy","inputs":[],"outputs":[{"name":"","type":"address","internalType":"contract IStrategy"}],"stateMutability":"view"},{"type":"function","name":"init","inputs":[{"name":"data","type":"bytes","internalType":"bytes"}],"outputs":[],"stateMutability":"payable"},{"type":"function","name":"run","inputs":[],"outputs":[],"stateMutability":"payable"},{"type":"function","name":"token","inputs":[],"outputs":[{"name":"","type":"address","internalType":"address"}],"stateMutability":"view"},{"type":"function","name":"tokenStrategy","inputs":[],"outputs":[{"name":"","type":"address","internalType":"contract IStrategy"}],"stateMutability":"view"},{"type":"function","name":"yieldBox","inputs":[],"outputs":[{"name":"","type":"address","internalType":"contract YieldBox"}],"stateMutability":"view"}],"bytecode":{"object":"0x60a060405234801561001057600080fd5b50604051610e03380380610e0383398101604081905261002f91610040565b6001600160a01b0316608052610070565b60006020828403121561005257600080fd5b81516001600160a01b038116811461006957600080fd5b9392505050565b608051610d246100df600039600081816101860152818161028201528181610335015281816103ea015281816104ab0152818161055f015281816105ef015281816106a00152818161075201528181610815015281816108c9015281816109870152610a010152610d246000f3fe6080604052600436106100965760003560e01c8063c040622611610069578063d5f394881161004e578063d5f3948814610154578063de40657714610174578063fc0c546a146101a857600080fd5b8063c04062261461012c578063d56022d71461013457600080fd5b80634ddf47d41461009b57806359a81aef146100b0578063a59a9db8146100ec578063ab49ba2b1461010c575b600080fd5b6100ae6100a9366004610ad5565b6101c8565b005b3480156100bc57600080fd5b506005546100d0906001600160a01b031681565b6040516001600160a01b03909116815260200160405180910390f35b3480156100f857600080fd5b506003546100d0906001600160a01b031681565b34801561011857600080fd5b506004546100d0906001600160a01b031681565b6100ae610260565b34801561014057600080fd5b506002546100d0906001600160a01b031681565b34801561016057600080fd5b506000546100d0906001600160a01b031681565b34801561018057600080fd5b506100d07f000000000000000000000000000000000000000000000000000000000000000081565b3480156101b457600080fd5b506001546100d0906001600160a01b031681565b6101d481830183610b5f565b600580547fffffffffffffffffffffffff00000000000000000000000000000000000000009081166001600160a01b03938416179091556004805482169383169390931790925560038054831693821693909317909255600280548216938316939093179092556001805483169382169390931790925560008054909116929091169190911790555050565b6001805460035460008054604051636cd5703160e01b81526001600160a01b037f0000000000000000000000000000000000000000000000000000000000000000811696636cd57031966102cf96919590831694918316939092919091169081906103e8908490600401610c03565b60408051808303816000875af11580156102ed573d6000803e3d6000fd5b505050506040513d601f19601f820116820180604052508101906103119190610c55565b50506001805460035460008054604051636cd5703160e01b81526001600160a01b037f0000000000000000000000000000000000000000000000000000000000000000811696636cd57031966103859691959083169491831693909291909116908190839064174876e80090600401610c03565b60408051808303816000875af11580156103a3573d6000803e3d6000fd5b505050506040513d601f19601f820116820180604052508101906103c79190610c55565b5050600180546003546040516316a70ea960e11b81526000936001600160a01b037f0000000000000000000000000000000000000000000000000000000000000000811694632d4e1d5294610426949183169216908790600401610c79565b602060405180830381865afa158015610443573d6000803e3d6000fd5b505050506040513d601f19601f820116820180604052508101906104679190610cae565b600080546040516311a5cc7760e31b8152600481018490526001600160a01b039182166024820181905260448201526103e8606482015260848101929092529192507f000000000000000000000000000000000000000000000000000000000000000090911690638d2e63b89060a40160408051808303816000875af11580156104f5573d6000803e3d6000fd5b505050506040513d601f19601f820116820180604052508101906105199190610c55565b5050600080546040516311a5cc7760e31b8152600481018490526001600160a01b03918216602482018190526044820152606481019290925264174876e80060848301527f00000000000000000000000000000000000000000000000000000000000000001690638d2e63b89060a40160408051808303816000875af11580156105a7573d6000803e3d6000fd5b505050506040513d601f19601f820116820180604052508101906105cb9190610c55565b50506002546004805460008054604051636cd5703160e01b81526001600160a01b037f0000000000000000000000000000000000000000000000000000000000000000811696636cd570319661063a966003969284169590841694602a94919091169283926103e89201610c03565b60408051808303816000875af1158015610658573d6000803e3d6000fd5b505050506040513d601f19601f8201168201806040525081019061067c9190610c55565b50506002546004805460008054604051636cd5703160e01b81526001600160a01b037f0000000000000000000000000000000000000000000000000000000000000000811696636cd57031966106f0966003969284169590841694602a9491909116928392909164174876e8009101610c03565b60408051808303816000875af115801561070e573d6000803e3d6000fd5b505050506040513d601f19601f820116820180604052508101906107329190610c55565b5050600254600480546040516316a70ea960e11b81526001600160a01b037f0000000000000000000000000000000000000000000000000000000000000000811694632d4e1d529461079094600394928416931691602a9101610c79565b602060405180830381865afa1580156107ad573d6000803e3d6000fd5b505050506040513d601f19601f820116820180604052508101906107d19190610cae565b600080546040516311a5cc7760e31b8152600481018490526001600160a01b039182166024820181905260448201526103e8606482015260848101929092529192507f000000000000000000000000000000000000000000000000000000000000000090911690638d2e63b89060a40160408051808303816000875af115801561085f573d6000803e3d6000fd5b505050506040513d601f19601f820116820180604052508101906108839190610c55565b5050600080546040516311a5cc7760e31b8152600481018490526001600160a01b03918216602482018190526044820152606481019290925264174876e80060848301527f00000000000000000000000000000000000000000000000000000000000000001690638d2e63b89060a40160408051808303816000875af1158015610911573d6000803e3d6000fd5b505050506040513d601f19601f820116820180604052508101906109359190610c55565b50506005546000546040517fa3823ac00000000000000000000000000000000000000000000000000000000081526001600160a01b03928316600482015290821660248201526103e8604482018190527f00000000000000000000000000000000000000000000000000000000000000009092169163a3823ac091606401604080518083038185885af11580156109d0573d6000803e3d6000fd5b50505050506040513d601f19601f820116820180604052508101906109f59190610c55565b50506001600160a01b037f000000000000000000000000000000000000000000000000000000000000000016638d2e63b8610a31836001610cc7565b6000805460405160e085901b7fffffffff0000000000000000000000000000000000000000000000000000000016815260048101939093526001600160a01b03166024830181905260448301526103e86064830152608482015260a40160408051808303816000875af1158015610aac573d6000803e3d6000fd5b505050506040513d601f19601f82011682018060405250810190610ad09190610c55565b505050565b60008060208385031215610ae857600080fd5b823567ffffffffffffffff80821115610b0057600080fd5b818501915085601f830112610b1457600080fd5b813581811115610b2357600080fd5b866020828501011115610b3557600080fd5b60209290920196919550909350505050565b6001600160a01b0381168114610b5c57600080fd5b50565b60008060008060008060c08789031215610b7857600080fd5b8635610b8381610b47565b95506020870135610b9381610b47565b94506040870135610ba381610b47565b93506060870135610bb381610b47565b92506080870135610bc381610b47565b915060a0870135610bd381610b47565b809150509295509295509295565b60058110610bff57634e487b7160e01b600052602160045260246000fd5b9052565b6101008101610c12828b610be1565b6001600160a01b039889166020830152968816604082015260608101959095529286166080850152941660a083015260c082019390935260e00191909152919050565b60008060408385031215610c6857600080fd5b505080516020909101519092909150565b60808101610c878287610be1565b6001600160a01b039485166020830152929093166040840152606090920191909152919050565b600060208284031215610cc057600080fd5b5051919050565b80820180821115610ce857634e487b7160e01b600052601160045260246000fd5b9291505056fea2646970667358221220591abdf43b1df547d1bd9cb6edc21534168565508a33115589caea793eccb3cb64736f6c63430008160033","linkReferences":{}},"methodIdentifiers":{"deployer()":"d5f39488","erc1155()":"d56022d7","erc1155Strategy()":"ab49ba2b","ethStrategy()":"59a81aef","init(bytes)":"4ddf47d4","run()":"c0406226","token()":"fc0c546a","tokenStrategy()":"a59a9db8","yieldBox()":"de406577"},"id":24}