{"abi":[{"type":"function","name":"batch","inputs":[{"name":"calls","type":"bytes[]","internalType":"bytes[]"},{"name":"revertOnFail","type":"bool","internalType":"bool"}],"outputs":[],"stateMutability":"payable"}],"bytecode":{"object":"0x608060405234801561001057600080fd5b506103d7806100206000396000f3fe60806040526004361061001e5760003560e01c8063d2423b5114610023575b600080fd5b610036610031366004610188565b610038565b005b60005b8281101561011d576000803086868581811061005957610059610213565b905060200281019061006b9190610229565b604051610079929190610277565b600060405180830381855af49150503d80600081146100b4576040519150601f19603f3d011682016040523d82523d6000602084013e6100b9565b606091505b5091509150811580156100c95750835b15610113576100d781610123565b6040517f08c379a000000000000000000000000000000000000000000000000000000000815260040161010a91906102ab565b60405180910390fd5b505060010161003b565b50505050565b606060448251101561016857505060408051808201909152601d81527f5472616e73616374696f6e2072657665727465642073696c656e746c79000000602082015290565b6004820191508180602001905181019061018291906102f4565b92915050565b60008060006040848603121561019d57600080fd5b833567ffffffffffffffff808211156101b557600080fd5b818601915086601f8301126101c957600080fd5b8135818111156101d857600080fd5b8760208260051b85010111156101ed57600080fd5b60209283019550935050840135801515811461020857600080fd5b809150509250925092565b634e487b7160e01b600052603260045260246000fd5b6000808335601e1984360301811261024057600080fd5b83018035915067ffffffffffffffff82111561025b57600080fd5b60200191503681900382131561027057600080fd5b9250929050565b8183823760009101908152919050565b60005b838110156102a257818101518382015260200161028a565b50506000910152565b60208152600082518060208401526102ca816040850160208701610287565b601f01601f19169190910160400192915050565b634e487b7160e01b600052604160045260246000fd5b60006020828403121561030657600080fd5b815167ffffffffffffffff8082111561031e57600080fd5b818401915084601f83011261033257600080fd5b815181811115610344576103446102de565b604051601f8201601f19908116603f0116810190838211818310171561036c5761036c6102de565b8160405282815287602084870101111561038557600080fd5b610396836020830160208801610287565b97965050505050505056fea26469706673582212202fdd69f3c91f041151c7ccb0a3038f3b293601065b2c7288e93a20bd5b0ff3cf64736f6c63430008160033","linkReferences":{}},"methodIdentifiers":{"batch(bytes[],bool)":"d2423b51"},"id":44}