{"abi":[{"type":"function","name":"batch","inputs":[{"name":"calls","type":"bytes[]","internalType":"bytes[]"},{"name":"revertOnFail","type":"bool","internalType":"bool"}],"outputs":[],"stateMutability":"payable"},{"type":"function","name":"permitToken","inputs":[{"name":"token","type":"address","internalType":"contract IERC20"},{"name":"from","type":"address","internalType":"address"},{"name":"to","type":"address","internalType":"address"},{"name":"amount","type":"uint256","internalType":"uint256"},{"name":"deadline","type":"uint256","internalType":"uint256"},{"name":"v","type":"uint8","internalType":"uint8"},{"name":"r","type":"bytes32","internalType":"bytes32"},{"name":"s","type":"bytes32","internalType":"bytes32"}],"outputs":[],"stateMutability":"nonpayable"}],"bytecode":{"object":"0x608060405234801561001057600080fd5b50610568806100206000396000f3fe6080604052600436106100295760003560e01c80637c516e941461002e578063d2423b5114610050575b600080fd5b34801561003a57600080fd5b5061004e610049366004610290565b610063565b005b61004e61005e366004610319565b61011b565b6040517fd505accf00000000000000000000000000000000000000000000000000000000815273ffffffffffffffffffffffffffffffffffffffff88811660048301528781166024830152604482018790526064820186905260ff8516608483015260a4820184905260c4820183905289169063d505accf9060e401600060405180830381600087803b1580156100f957600080fd5b505af115801561010d573d6000803e3d6000fd5b505050505050505050505050565b60005b82811015610200576000803086868581811061013c5761013c6103a4565b905060200281019061014e91906103ba565b60405161015c929190610408565b600060405180830381855af49150503d8060008114610197576040519150601f19603f3d011682016040523d82523d6000602084013e61019c565b606091505b5091509150811580156101ac5750835b156101f6576101ba81610206565b6040517f08c379a00000000000000000000000000000000000000000000000000000000081526004016101ed919061043c565b60405180910390fd5b505060010161011e565b50505050565b606060448251101561024b57505060408051808201909152601d81527f5472616e73616374696f6e2072657665727465642073696c656e746c79000000602082015290565b600482019150818060200190518101906102659190610485565b92915050565b73ffffffffffffffffffffffffffffffffffffffff8116811461028d57600080fd5b50565b600080600080600080600080610100898b0312156102ad57600080fd5b88356102b88161026b565b975060208901356102c88161026b565b965060408901356102d88161026b565b9550606089013594506080890135935060a089013560ff811681146102fc57600080fd5b979a969950949793969295929450505060c08201359160e0013590565b60008060006040848603121561032e57600080fd5b833567ffffffffffffffff8082111561034657600080fd5b818601915086601f83011261035a57600080fd5b81358181111561036957600080fd5b8760208260051b850101111561037e57600080fd5b60209283019550935050840135801515811461039957600080fd5b809150509250925092565b634e487b7160e01b600052603260045260246000fd5b6000808335601e198436030181126103d157600080fd5b83018035915067ffffffffffffffff8211156103ec57600080fd5b60200191503681900382131561040157600080fd5b9250929050565b8183823760009101908152919050565b60005b8381101561043357818101518382015260200161041b565b50506000910152565b602081526000825180602084015261045b816040850160208701610418565b601f01601f19169190910160400192915050565b634e487b7160e01b600052604160045260246000fd5b60006020828403121561049757600080fd5b815167ffffffffffffffff808211156104af57600080fd5b818401915084601f8301126104c357600080fd5b8151818111156104d5576104d561046f565b604051601f8201601f19908116603f011681019083821181831017156104fd576104fd61046f565b8160405282815287602084870101111561051657600080fd5b610527836020830160208801610418565b97965050505050505056fea26469706673582212206ae56667c5905a501fb83b2dc7028601f1e00fde835f301899c011e8ad4e2da064736f6c63430008160033","linkReferences":{}},"methodIdentifiers":{"batch(bytes[],bool)":"d2423b51","permitToken(address,address,address,uint256,uint256,uint8,bytes32,bytes32)":"7c516e94"},"id":44}