{"abi":[{"type":"constructor","inputs":[{"name":"_yieldBox","type":"address","internalType":"contract YieldBox"}],"stateMutability":"nonpayable"},{"type":"function","name":"cancel","inputs":[{"name":"offerId","type":"uint256","internalType":"uint256"}],"outputs":[],"stateMutability":"nonpayable"},{"type":"function","name":"make","inputs":[{"name":"assetFrom","type":"uint256","internalType":"uint256"},{"name":"assetTo","type":"uint256","internalType":"uint256"},{"name":"shareFrom","type":"uint256","internalType":"uint256"},{"name":"shareTo","type":"uint256","internalType":"uint256"}],"outputs":[],"stateMutability":"nonpayable"},{"type":"function","name":"offers","inputs":[{"name":"","type":"uint256","internalType":"uint256"}],"outputs":[{"name":"owner","type":"address","internalType":"address"},{"name":"assetFrom","type":"uint256","internalType":"uint256"},{"name":"assetTo","type":"uint256","internalType":"uint256"},{"name":"shareFrom","type":"uint256","internalType":"uint256"},{"name":"shareTo","type":"uint256","internalType":"uint256"},{"name":"closed","type":"bool","internalType":"bool"}],"stateMutability":"view"},{"type":"function","name":"take","inputs":[{"name":"offerId","type":"uint256","internalType":"uint256"}],"outputs":[],"stateMutability":"nonpayable"},{"type":"function","name":"yieldBox","inputs":[],"outputs":[{"name":"","type":"address","internalType":"contract YieldBox"}],"stateMutability":"view"}],"bytecode":{"object":"0x608060405234801561001057600080fd5b5060405161063938038061063983398101604081905261002f91610054565b600080546001600160a01b0319166001600160a01b0392909216919091179055610084565b60006020828403121561006657600080fd5b81516001600160a01b038116811461007d57600080fd5b9392505050565b6105a6806100936000396000f3fe608060405234801561001057600080fd5b50600436106100675760003560e01c80638582b972116100505780638582b972146100945780638a72ea6a1461020b578063de4065771461025c57600080fd5b806340e58ee51461006c5780634fd9efc414610081575b600080fd5b61007f61007a3660046104f6565b610287565b005b61007f61008f3660046104f6565b610301565b61007f6100a236600461050f565b6040805160c081018252338152602081019586529081019384526060810192835260808101918252600060a08201818152600180548082018255925291517fb10e2d527612073b26eecdfd717e6a320cf44b4afac2b0732d9fcbe2b7fa0cf6600690920291820180547fffffffffffffffffffffffff0000000000000000000000000000000000000000166001600160a01b0390921691909117905594517fb10e2d527612073b26eecdfd717e6a320cf44b4afac2b0732d9fcbe2b7fa0cf786015592517fb10e2d527612073b26eecdfd717e6a320cf44b4afac2b0732d9fcbe2b7fa0cf885015590517fb10e2d527612073b26eecdfd717e6a320cf44b4afac2b0732d9fcbe2b7fa0cf9840155517fb10e2d527612073b26eecdfd717e6a320cf44b4afac2b0732d9fcbe2b7fa0cfa830155517fb10e2d527612073b26eecdfd717e6a320cf44b4afac2b0732d9fcbe2b7fa0cfb909101805460ff1916911515919091179055565b61021e6102193660046104f6565b6104a3565b604080516001600160a01b03909716875260208701959095529385019290925260608401526080830152151560a082015260c0015b60405180910390f35b60005461026f906001600160a01b031681565b6040516001600160a01b039091168152602001610253565b336001600160a01b0316600182815481106102a4576102a4610541565b60009182526020909120600690910201546001600160a01b0316146102c857600080fd5b60018082815481106102dc576102dc610541565b60009182526020909120600690910201600501805460ff191691151591909117905550565b60006001828154811061031657610316610541565b600091825260208083206040805160c08101825260069490940290910180546001600160a01b039081168086526001830154948601859052600283015486850152600383015460608701819052600480850154608089015260059094015460ff16151560a088015296549351630208d92960e11b815233938101939093526024830152604482019390935260648101949094529193501690630411b25290608401600060405180830381600087803b1580156103d157600080fd5b505af11580156103e5573d6000803e3d6000fd5b5050600054835160408086015160808701519151630208d92960e11b81526001600160a01b0393841660048201523360248201526044810191909152606481019190915291169250630411b2529150608401600060405180830381600087803b15801561045157600080fd5b505af1158015610465573d6000803e3d6000fd5b50505050600180838154811061047d5761047d610541565b60009182526020909120600690910201600501805460ff19169115159190911790555050565b600181815481106104b357600080fd5b60009182526020909120600690910201805460018201546002830154600384015460048501546005909501546001600160a01b0390941695509193909260ff1686565b60006020828403121561050857600080fd5b5035919050565b6000806000806080858703121561052557600080fd5b5050823594602084013594506040840135936060013592509050565b7f4e487b7100000000000000000000000000000000000000000000000000000000600052603260045260246000fdfea2646970667358221220af397eec1bc1bbfc297a863d4ef3df836db40711995c82a3df0998c536fdff8564736f6c63430008160033","linkReferences":{}},"methodIdentifiers":{"cancel(uint256)":"40e58ee5","make(uint256,uint256,uint256,uint256)":"8582b972","offers(uint256)":"8a72ea6a","take(uint256)":"4fd9efc4","yieldBox()":"de406577"},"id":31}